:020000040800F2
:10000000381B0020B101000843290008C522000860
:10001000412900084D0900089D3200080000000039
:100020000000000000000000000000004D2C00084F
:10003000490A000800000000692B00084F2C000846
:10004000CB010008CB010008CB010008CB01000860
:10005000CB010008CB010008CB010008CB01000850
:10006000CB010008CB010008CB010008CB01000840
:10007000CB010008CB010008CB010008CB01000830
:1000800081090008CB010008CB0100080000000036
:10009000000000000000000000000000CB0100088C
:1000A000CB010008CB010008CB010008CB01000800
:1000B000CB010008CB010008CB010008CB010008F0
:1000C000CB010008CB010008CB010008CB010008E0
:1000D000CB01000829310008413100080000000070
:1000E000CB010008CB010008CB0100080000000094
:1000F000000000000000000000000000CB0100082C
:1001000000000000CB010008CB010008CB01000873
:1001100000000000000000000000000000000000DF
:10012000CB0100088D09000899090008CB010008DF
:10013000CB010008000000000000000000000000EB
:10014000000000000000000000000000CB010008DB
:10015000CB010008CB010008CB0100085931000891
:10016000CB010008CB0100080000000000000000E7
:10017000000000000000000000000000000000007F
:1001800000000000CB01000800000000000000009B
:10019000CB010008CB010008DFF810D000F07CFB99
:1001A00000480047054D0008AFF30080381B0020D1
:1001B0000648804706480047FEE7FEE7FEE7FEE701
:1001C000FEE7FEE7FEE7FEE7FEE7FEE7E52C0008B8
:1001D0009901000830B50B46014600202022012479
:1001E00009E021FA02F59D4205D303FA02F5491B05
:1001F00004FA02F52844151EA2F10102F1DC30BD1B
:100200002DE9F05F0546002092469B46884606464B
:10021000814640241BE0284641464746224600F0DE
:1002200085F953465A46C01A914110D311461846D3
:10023000224600F06CF92D1A67EB01084F46224662
:100240000120002100F063F917EB00094E41201E48
:10025000A4F10104DFDC484631462A464346BDE8A6
:10026000F09F2DE9FE43994615468846074601ACA6
:10027000022942D3002D40D000200290A8F10100B5
:100280004FF0FF36009022E000FB057201FB057085
:1002900011464A469047002805DC54F826003044B1
:1002A00044F8260013E060682A4600FB057154F804
:1002B000040C00FB057007E00B7890F800C001F813
:1002C00001CB00F8013B521E002AF5D1764254F8CA
:1002D000040C61688842D7DC4B462A463846FFF753
:1002E000C0FF54F8040C4B46A8EB0001401C00FB77
:1002F00005702A46491EFFF7B4FFBDE8FE8310B51E
:10030000431A934209D28318881803E010F8011D9C
:1003100003F8011D521EF9D210BD40EA01039B07EC
:1003200003D009E008C9121F08C0042AFAD203E06A
:1003300011F8013B00F8013B521EF9D210BDD2B2B8
:1003400001E000F8012B491EFBD270470022F6E7BE
:1003500010B513460A4604461946FFF7F0FF20463B
:1003600010BDCAB2401E10F8011F8A4202D00029F7
:10037000F9D100207047421C10F8011B0029FBD165
:10038000801A704710B5002200E0521C835C8C5C20
:10039000A34201D1002BF8D1D8B2E1B2401A10BD6E
:1003A000034611F8012B00F8012B002AF9D1184659
:1003B00070472DE9F04D81EA030404F0004B21F071
:1003C000004514464FF0000A23F0004150EA0502B0
:1003D00020D054EA01021DD0C5F30A570246C5F3E6
:1003E0001303C1F31300C1F30A5640F4801543F41C
:1003F0008013A7EB0608101BD64608F2FD3873EBF6
:10040000050002D308F1010801E092185B41B8F140
:10041000000F03DA00200146BDE8F08D00204FF404
:100420008011064684460EE0171B73EB050705D3C3
:10043000121B63EB050306434CEA010C49084FEA23
:10044000300092185B4150EA0107EDD152EA0300F7
:1004500012D082EA040083EA0501084305D0101B8C
:10046000AB4106D20122002306E000224FF00043F8
:1004700002E06FF0010253101AEB06004CEB08513A
:1004800010EB0A0041EB0B01BDE8F04D00F05EB847
:100490000EB540F2334102910021CDE900110A4628
:1004A0000B4600F062F803B000BD70B5C1F30A520C
:1004B00001F000450024C1F3130140F2FF3341F481
:1004C00080119A4201DA002070BD40F233439A4213
:1004D000A2F2334203DC524200F028F800E09040E0
:1004E0002C43F1D0404270BD00F0004230F000409B
:1004F0000AD0C10D01F56071C0F3160042EA015146
:10050000C208400711437047002001467047202A67
:1005100004DB203A00FA02F1002070479140C2F15A
:10052000200320FA03F3194390407047202A04DB8C
:10053000203A21FA02F00021704721FA02F3D0405C
:10054000C2F12002914008431946704710B5141EAD
:1005500073F1000408DA401C41F1000192185B417C
:100560001A4301D120F0010010BD2DE9F04D924653
:100570009B4611B1B1FA81F202E0B0FA80F220326A
:100580009046FFF7C4FF04460F4640EA0A0041EADE
:100590000B0153465A46084313D0114653EA010053
:1005A00019D0C8F140025046FFF7C0FF05460E467D
:1005B000504659464246FFF7AAFF084305D001209E
:1005C00004E020463946BDE8F08D0020054346EAA8
:1005D000E0762C4337430A986305E40AA0EB080051
:1005E0000022FD0A44EA47540A3002D500200146A1
:1005F000E9E7010510196941DDE90845001969417C
:10060000BDE8F04DA2E72DE9FE4F804681EA0300E8
:10061000C00F0C46009021F0004123F00045B8EBDC
:100620000200A94105D24046214690461C460B4691
:10063000024623F00040104347D0270DC7F30A00BD
:10064000C3F30A510290401A019040286BDAC3F3B9
:10065000130040F4801B0098924620B10023D2EB97
:10066000030A63EB0B0B01985946C0F14002504658
:10067000FFF74DFF06460D4650465946019A00F0D9
:100680001DF910EB08006141002487EA115284EA49
:10069000E7731A4340D0009A62B3019A012A4FEAE5
:1006A000075215DC001B61EB02014FF0004202EA29
:1006B0000752CDE90042001C41F5801132462B461D
:1006C000FFF753FF03B0BDE8F08F40462146F9E73E
:1006D000001B61EB0201001C41F5801300185B4117
:1006E0002018A2F5001747EB030140EAD570B619B0
:1006F0006D4111E06D084FEA360645EAC0754FEAD4
:100700000752001B61EB0201001C41F580114908F2
:100710004FEA30000019514132462B4603B0BDE884
:10072000F04FFFF713BF0098012240000023D0EBE9
:10073000020263EBE073009821464FEAE074B8EBE5
:10074000000061EB0401E9E783F000435BE781F01F
:10075000004158E72DE9FE4F81EA030404F000440C
:1007600021F0004100944FF0000B23F0004350EAC9
:1007700001045ED052EA03045BD0C3F30A54C1F310
:100780000A552C44A4F2F3340194A0FB0254C1F3A3
:10079000130141F48011C3F3130343F4801301FBED
:1007A000024400FB034E840A970A44EA815447EA54
:1007B0008357A4FB076802958D0A05FB07854FEA5E
:1007C000932C04FB0C542705029D4FEA065847EA78
:1007D0001637B5EB08056EEB070C870E920E47EA4D
:1007E000811742EA8312A7FB0201B6EB0B0164EB0F
:1007F00000042B0D43EA0C335E1844EB1C50DA4620
:100800005146E7FB0201C5F313044FEA0B3343EAF9
:1008100014534FEA0432019C43EA0603A4F10C048A
:100820000294009CCDE900B4FFF79FFE03B0BDE841
:10083000F08F00200146F9E7C1F30A52C1F313011A
:1008400040F2FF3341F480119A4202DA002001465F
:10085000704740F233439A42A2F2334202DC5242E2
:10086000FFF764BEFFF753BE30B5041E71F10004FC
:1008700004DB4FF00044404264EB0101141E73F1AD
:10088000000405DB1C464FF00043524263EB0403B7
:10089000994208BF904230BD064C074D06E0E06823
:1008A00040F0010394E8070098471034AC42F6D3B7
:1008B000FFF776FC6060000880600008202A06DBF5
:1008C000CB17203A41FA02F043EAE07306E041FA1E
:1008D00002F3D040C2F1200291400843194670470C
:1008E00010B501784FF6FF72407802EA0121084402
:1008F00080B2FFF7CDFD9FED051B53EC112BFFF7E9
:1009000058FDFFF7D2FD80B210BD00003333333302
:100910003333F33F08B54FF6FF71024600910223CF
:100920004721024800F020FC08BD0000A400002080
:1009300001B582B04FF6FF700090012302AA462154
:10094000014800F001FD0EBDA4000020FEE730B517
:100950000346002208463124995C484000210506E0
:1009600002D584EA400000E04000491CC9B2C0B290
:100970000829F4D3521CD2B2022AEDD330BD0000B4
:10098000014800F0BFB8000078020020014800F0E4
:10099000B9B80000D8020020014800F0B3B8000048
:1009A0001802002001681823CAB2103AB2FBF3F211
:1009B000054B6FF30901032A9B5CC36500D9091D30
:1009C00081650846704700000658000810B50146CA
:1009D00000208B698A6A4FF0C07453B1B3F5005F91
:1009E00015D072B1012A0CD0022A0AD0032A09D1EB
:1009F00004E01AB1012A06D0022A03D1C96AC9014A
:100A000000D5012010BDC96AA142FAD010BD002A4C
:100A1000F7D0012AF2D0022AF3D0032AF3D010BD76
:100A200030B50468256825F4802525600468636076
:100A30008368402B036803D099600068C26030BDB2
:100A40009A600068C16030BD704772B6FEE72DE95C
:100A5000F0410446876D00F0BDFA064694F8350073
:100A60000025022806D08020606584F834500120DB
:100A7000BDE8F0812068016821F01601016020685E
:100A8000416921F080014161206C08B9A06C20B15E
:100A90002068016821F0080101602068016821F0E8
:100AA000010101600CE000F095FA801B052807D9D0
:100AB00020206065032084F8350084F83450D7E79F
:100AC00020680068C007EED194F85C103F20884091
:100AD000B860012084F8350084F834500020C7E75E
:100AE00090F83510022903D080214165012070471C
:100AF000052180F835100068016821F001010160CE
:100B0000002070472DE9F84304464FF00009CDF866
:100B1000009063484FF41651A56D0068B0FBF1F7E3
:100B20002E6894F85C10082000FA01F131420FD0D1
:100B300021680A6852070BD50A6822F004020A608D
:100B400094F85C108840A860606D40F0010060651A
:100B500094F85C104FF0010808FA01F0304208D018
:100B600021684969090604D5A860606D40F002005B
:100B7000606594F85C1004208840304208D02168F9
:100B80000968890704D5A860606D40F004006065BD
:100B900094F85C1010208840304218D02168096811
:100BA000090714D5A86020680168490304D50068C6
:100BB000000308D5A16C07E00168C90503D40168EA
:100BC00021F008010160216C09B12046884794F8A2
:100BD0005C1020208840304231D021680968C90665
:100BE0002DD5A86094F8350005282068016806D046
:100BF000490347D5006800031DD4616C1CE021F057
:100C0000160101602068416921F080014161206C7A
:100C100008B9A06C20B12068016821F008010160CA
:100C200094F85C103F208840A86084F8358084F8F0
:100C30003490216D1FE0E16B09B120468847606D5B
:100C400000282BD0606DC00714D0052084F8350033
:100C50002068016821F0010101600098401C0090AB
:100C6000B84203D820680068C007F6D184F8358000
:100C700084F83490E16C002910D001B02046BDE822
:100C8000F04308470168C905D5D4016821F0100177
:100C9000016084F8358084F83490CCE7BDE8F883AF
:100CA000140000202DE9F041044600F093F90646B7
:100CB0005CB1022084F83500002584F834502068A7
:100CC000016821F0010101600DE00120BDE8F08123
:100CD00000F080F9801B052805D9202060650320DD
:100CE00084F83500F2E720680068C007F0D1226878
:100CF000116820480140D4E901031843D4E90336C0
:100D00003343184363691843A3691843E3691843DD
:100D1000236A18430843616A042903D1D4E90B13F9
:100D200019430843106020684069666A20F0070193
:100D300030460E43012704280CD1A06A0643E06A1E
:100D400040B12046FFF742FE20B14020606584F8A4
:100D50003570BAE7206846612046FFF723FE94F815
:100D60005C203F2191408160656584F835700020EA
:100D7000ACE700003F8010F02DE9F0410446866D9D
:100D800090F83400002501280DD0012084F83400AB
:100D900094F835700020012F07D084F83400022524
:100DA0002846BDE8F0810220FBE7022784F8357071
:100DB00060652046FFF734FE94F85C103F208840C1
:100DC000B0602068016841F016010160206C20B11C
:100DD0002068016841F0080101602068016841F065
:100DE00001010160DCE700002DE9F84FDFF8B8A150
:100DF000002201240AF1040B03254FF00F090BF127
:100E0000040E00BF0B6804FA02F63340B34273D1FC
:100E10000F7907F00307012F01D0022F16D1876841
:100E20004FEA420805FA08FC27EA0C07D1F80CC083
:100E30000CFA08FC4CEA070CC0F808C04768B74336
:100E40000E79C6F3001696403E4346600E79F6438F
:100E5000B6070DD0C768560005FA06FC27EA0C074E
:100E6000D1F808C00CFA06FC4CEA070CC0F80CC01C
:100E70000E7906F00306022E10D1D60800EB860884
:100E8000D8F8206057074FEAD76C09FA0CF7BE4331
:100E90000F6907FA0CF73743C8F8207006684FEA65
:100EA000420C05FA0CF7BE430F7907F0030707FA67
:100EB0000CF7374307604E6816F4403F6DD03B4E49
:100EC000376847F480473760366822F0030706F436
:100ED00080460096364E07EB060CDCF8086897074C
:100EE0003F0F09FA07F826EA0806DFF8C8804045F0
:100EF00003D14FF000081EE04FE0DFF8BC80404512
:100F000002D14FF0010816E0DFF8B080404502D171
:100F10004FF002080FE0DFF8A880404502D14FF003
:100F2000030808E0DFF89C80404502D14FF0040838
:100F300001E04FF0070808FA07F848EA0608CCF87D
:100F40000888DAF800605746D1F804C09E435FEA8B
:100F5000CC3C00D51E433E60DBF800605F46D1F814
:100F600004C09E435FEA8C3C00D51E433E60DEF821
:100F700000607746D1F804C09E435FEACC2C00D5D0
:100F80001E433E60084F0C373E68D1F804C09E43B4
:100F90005FEA8C2C00D51E433E60521C102AFFF4E1
:100FA00031AFBDE8F88F0000003C014044380240FA
:100FB00000300140000002400004024000080240EE
:100FC000000C0240001002400AB181617047090420
:100FD000FBE700000148806870470000080000201F
:100FE00070B5040025D094F83D00002520B984F8A0
:100FF0003C50204600F03EFA242084F83D00206852
:10100000016821F0010101602068016841F400419C
:1010100001602068016821F40041016000F0F4FBE8
:101020004D4A6168914201D84C4900E04C498842E0
:1010300001D2012070BD4B492368B0FBF1F15E681D
:1010400026F03F060E435E606368934206D94FF474
:10105000967359434FF47A73B1FBF3F12368491C3B
:101060001E6A26F03F06314319626168914210D82A
:101070004900401EB0FBF1F2521CC2F30B02042ADD
:1010800001D2042022E0B0FBF1F0401CC0F30B00C1
:101090001CE0A268F2B301EBC10303EB0116431E8F
:1010A000B3FBF6F35B1C43F480431B0549D092B3BA
:1010B00001EBC10202EB0111401EB0FBF1F0401C3C
:1010C000C0F30B0040F4804040F400402168CA693E
:1010D0004CF6FF739A431043C861D4E907100143EB
:1010E0002068026822F0C00211430160D4E90301C4
:1010F00001432068826848F2FF339A4311438160BC
:10110000D4E9050108432168CA6822F0FF021043B0
:10111000C86001E00EE016E02068016841F00101BE
:1011200001602564202084F83D00256384F83E504A
:10113000002070BD01EB4106431EB3FBF6F35B1CC0
:10114000B3E70120C2E701EB4101401EB0FBF1F023
:10115000401CC0F30B00B7E7A086010080841E008E
:1011600000093D0040420F002DE9F84F1F46904610
:101170008A460446DDF82890FFF72CFF054694F8D0
:101180003D00202875D1192301226C492046009585
:1011900001F09AF90028F5D194F83C00012868D0B4
:1011A000012084F83C0020680168C90703D1016868
:1011B00041F0010101602068016821F400610160D3
:1011C000222084F83D00102084F83E00002626648A
:1011D000C4F824806785608D20855948E0622B46DD
:1011E0004A465146204601F085F8002878D1208DE6
:1011F000544F68B1012814D002282068016816D025
:1012000041F480610160206841698069009087E055
:101210002068416981690091016841F400710160B1
:101220007EE02068016821F480610160F0E721F42C
:10123000806101602068016841F40061E2E70328F1
:1012400048D801280AD0022814D04B46002239463B
:101250002046009501F038F9D8BB27E02A464946D8
:10126000204601F0B0F9A0BB20680069616A0870EF
:101270004DE061E04B46002239462046009501F0E2
:1012800023F930BB2068016841F4007101602068D7
:101290000069616A0870606A401C6062218D491EA5
:1012A0002185618D491E618521682EE020680168D5
:1012B00021F48061016020680069616A0870606AD9
:1012C000401C6062208D401E2085608D401E608520
:1012D000D0E705E02A464946204601F074F910B1EE
:1012E0000120BDE8F88F20680069616A0870606AB3
:1012F000401C6062218D491E2185618D491E6185DA
:1013000021684A69D24352070AD409690170606AA8
:10131000401C6062208D401E2085608D401E6085CF
:10132000208D00288BD1202084F83D0084F83E6079
:1013300084F83C600020D4E70220D2E702001000CD
:101340000000FFFF040001002DE9F84F1F46904602
:101350008A460446DDF82890FFF73CFE054694F8DF
:101360003D0020287FD119230122404920460095C5
:1013700001F0AAF8002876D194F83C00012872D038
:10138000012084F83C0020680168C90703D1016886
:1013900041F0010101602068016821F400610160F1
:1013A000212084F83D00102084F83E0000262664A9
:1013B000C4F824806785608D20852D48E0622B4627
:1013C0004A465146204601F00BF890B92068416921
:1013D0008069009036E02A464946204601F026F909
:1013E00050B1206C042804D12068016841F40071D8
:1013F00001600120BDE8F88F606A2168007808610B
:10140000606A401C6062618D491E6185218D491EA4
:1014100089B2218522685369DB435B070BD451B144
:1014200000781061606A401C6062608D401E6085BB
:10143000208D401E20852A464946204601F01EF890
:101440000028CED1208D0028C5D154F83D0B01686D
:1014500041F400710160202004F81E09E6776677E8
:101460000020C7E7FFE70220C4E7000002001000E9
:101470000000FFFF2DE9F04387B0044614216846C1
:10148000FEF764FF2268414C3F4B00253F4812267F
:1014900004213F4F10344FF003089A4219D10268DB
:1014A00042F0020202600068029500F0020005901E
:1014B000CDE90381C020CDE9000669463846FFF733
:1014C00093FC206840F400102060206800F40010B5
:1014D00027E0304B4FF009099A4226D1026842F0CA
:1014E000020202600068029500F002000590CDE95A
:1014F00003811815CDE9000669463846FFF774FCEC
:101500000820CDE9000602AA694682E82003384691
:10151000FFF76AFC206840F480002060206800F437
:101520008000059007B0BDE8F0831B4B9A42F9D1CB
:10153000026842F001020260026802F001020592B4
:10154000026842F0020202600068029500F00200A8
:101550000590CDE903819815CDE9000669460F484D
:10156000FFF742FC1020CDE9000602AA694682E896
:1015700020033846FFF738FC206840F40000206064
:10158000206800F40000CCE70054004030380240EE
:101590000004024000580040005C0040000002408F
:1015A0000248816802781144816070470800002079
:1015B0000B4810B5016841F400710160016841F405
:1015C00080610160016841F480710160032000F0D6
:1015D0006FF80F2000F006F800F024F8002010BD8E
:1015E000003C024070B50D4D04464FF47A712878E6
:1015F000B1FBF0F00A490968B1FBF0F000F018FB0C
:1016000048B9102C07D200222146501E00F030F8B5
:1016100000206C6070BD012070BD0000080000203B
:10162000140000200A4808B5016841F480410160B7
:10163000006800F4804000900548001F016841F0F8
:1016400080510160006800F08050009008BD0000EB
:1016500044380240002809DB00F01F0201219140BC
:101660004009800000F1E020C0F800117047000040
:10167000F0B40E4B1B680C46C3F30223C3F10705FD
:10168000042D00D90425191D072901D2002300E0EB
:10169000DB1E012606FA05F1491E214099409E40B5
:1016A000761E16403143F0BC01F076BE0CED00E032
:1016B000064900F0070208684FF6FF03184040EAA9
:1016C0000220034A10430860704700000CED00E060
:1016D0000000FA052DE9F0470E46050065D0DFF859
:1016E0001481D8F80000F7B200F00700B04207D22A
:1016F00088F80070D8F8000000F00700B04254D11C
:1017000028683D4C810712D5400703D5206840F476
:10171000E05020602878000703D5206840F460403E
:1017200020602068A96820F0F00008432060287835
:10173000C0072DD0304968680839012812D0022826
:1017400013D0032811D00968890700292DDA2168F0
:1017500021F0030101432160FFF73CFC814641F287
:10176000883A0EE009688903EFE709688901ECE728
:10177000FFF730FCA0EB0901514502D90320BDE879
:10178000F0872068696800F00C00B0EB810FEFD1A2
:10179000D8F80010404601F00701B14207D90770A0
:1017A000006800F00700B04201D00120E7E7287888
:1017B000400705D52068E96820F4E0500843206020
:1017C0002878000706D52068296920F4604040EA9F
:1017D000C100206000F038F82168084AC1F3031105
:1017E000515CC8400649086006480068FFF7FAFEE9
:1017F0000020C4E7003C0240083802400E580008B0
:10180000140000200C000020044805490068096805
:10181000044AC1F38221515CC84070471400002083
:10182000083802401E580008044805490068096845
:10183000044AC1F34231515CC84070471400002093
:10184000083802401E580008154810B5006810F00E
:101850000C02144813D01449042A0FD0082A0ED1C0
:101860000F4C241F2268236802F03F025B0207D559
:101870002068C0F38810A0FB010106E0084610BDF7
:101880002168C1F38811A1FB00010023FEF7B8FC19
:101890002168C1F30141491C4900B0FBF1F010BDC2
:1018A000083802400024F40040787D012DE9F84F0B
:1018B00004006ED02078DFF84C93C007A9F104052E
:1018C0004AD009F104000168C1F38101012908D05F
:1018D0000068C0F3810002280AD1D9F80000400254
:1018E00006D52868800337D560680028E1D033E04A
:1018F0006068B0F5803F10D0B0F5A02F286810D0F8
:1019000020F480302860286820F4802028606068F7
:10191000A8B1FFF75FFB06460DE0286840F4803071
:10192000F4E740F480202860F7E700BFFFF752FBA0
:10193000801B642873D828688003F7D50CE0FFF774
:1019400049FB064605E000BFFFF744FB801B642807
:10195000F0D828688003F7D42078DFF8AC828007BD
:101960004FF0000A3ED5A748001D016811F00C0F8A
:1019700008D00068C0F3810002280BD1D9F800001C
:10198000400207D42868800716D5E068012800D1F6
:1019900012E033E1E068B8B10120C8F80000FFF7B9
:1019A00019FB064605E000BFFFF714FB801B022869
:1019B000C0D828688007F7D52868216920F0F8008A
:1019C00040EAC10028600DE0C8F800A0FFF702FB64
:1019D000064604E0FFF7FEFA801B02281FD828689D
:1019E0008007F7D42078000722D5864F87486169A1
:1019F000703771B101210160FFF7ECFA064604E08F
:101A0000FFF7E8FA801B022809D838688007F7D565
:101A10000EE0C0F800A0FFF7DDFA064605E082E020
:101A2000FFF7D8FA801B02287DD838688007F7D4E2
:101A30002078400768D5DFF8CCB100270BF13C0BCC
:101A4000DBF80000C0000BD4DBF8001041F080513F
:101A5000CBF80010DBF80000012700F08050009068
:101A60006B4E3068C00510D4306840F48070306030
:101A7000FFF7B0FA009005E0FFF7ACFA0099401AC2
:101A8000022850D83068C005F6D55E4EA0686C3686
:101A900001280FD00528306810D020F001003060F8
:101AA000306820F004003060A068B8B1FFF792FA07
:101AB00000900FE0306840F00100F4E740F00400CF
:101AC0003060F7E7FFF786FA0099411A41F2883053
:101AD000814266D830688007F4D50EE0FFF77AFAC5
:101AE000009007E0FFF776FA0099411A41F288303A
:101AF000814256D830688007F4D42FB1DBF800104B
:101B000021F08051CBF80010A069C8B33D49091DF0
:101B10000968C1F3810102294AD00228504607D042
:101B2000C8F8600000E03CE0FFF754FA04463BE0F0
:101B30004746C8F86000FFF74DFA064605E000BFCB
:101B4000FFF748FA801B02282BD828688001F7D4B9
:101B5000D4E907010843A16A2E4A490802EB014172
:101B6000626A41EA8211084394F82C1040EA01614C
:101B7000C9F8001001203866FFF72CFA044606E089
:101B80003EE000BFFFF726FA001B022809D82868AC
:101B90008001F7D534E000BFFFF71CFA001B0228D4
:101BA00002D90320BDE8F88F28688001F4D427E02B
:101BB0000128F7D0D9F80000E26900F480019142D1
:101BC0001CD1226A00F03F01914217D147F6C07143
:101BD000626A0140B1EB821F10D1A26A4FF0FF335D
:101BE00000F4403103EB5202B1EB024F06D194F8FE
:101BF0002C1000F07060B0EB016F01D00120D1E734
:101C00000020CFE70438024000004742800E4742E0
:101C1000007000400000FFFF4FF0E0210428086939
:101C200003D020F004000861704740F00400FAE798
:101C300010B5401EB0F1807F01D3012010BD4FF0E0
:101C4000E02460610F21601701F0A6FB0020A06175
:101C500007202061002010BD704710B504460068C1
:101C6000406994F83D10C0F3C010212911D180B112
:101C70002068143050E8001F21F0800140E8001275
:101C8000002AF5D1606B08B1FEF7E1FE204601F0B5
:101C9000D3F82068406994F83E10C0F380102229E0
:101CA00011D180B12068143050E8001F21F04001AC
:101CB00040E80012002AF5D1A06B08B1FEF7C7FE7C
:101CC000204601F092F8002010BD7047F8B5016879
:101CD00004460868CA684B6910F00F0F4FF0000502
:101CE00059D003F0010602F49077374365D0C1075D
:101CF00005D0D10503D5216C41F0010121644107D4
:101D000005D5D90703D0216C41F002012164810778
:101D100005D5D90703D0216C41F0040121640107E6
:101D200007D502F02001314303D0216C41F00801B6
:101D30002164216C00293AD0800604D5900602D592
:101D4000204601F087F820684069216CC0F38010BC
:101D5000090700D460B3204601F047F820684069C5
:101D6000400621D52068143050E8001F21F04001C2
:101D700040E80012002AF5D1A06BA8B16C490165BA
:101D8000A06BFEF7ADFE002811D0A06B016D01B075
:101D9000BDE8F040084783060FD593060DD52046D1
:101DA000BDE8F84001F056B82046FFF78EFFF8BDB9
:101DB0002046FFF78AFF2564F8BD266B2023012EFD
:101DC00079D1C60677D5D60675D5086848680090DB
:101DD0004869400640D5A16B086840680004000CC3
:101DE000EAD0A28D8242E7D9E085C869B0F5807F4C
:101DF0002DD020680C3050E8001F21F4807140E89D
:101E00000012002AF5D12068143050E8001F21F09C
:101E1000010140E80012002AF5D12068143050E892
:101E2000001F21F0400140E80012002AF5D184F89B
:101E30003E30256320680C3050E8001F21F010016F
:101E400040E80012002AF5D1A06BFEF700FEA08D3D
:101E5000E18D401A81B229E0A08DE18D401A81B256
:101E6000E08D0028A8D00029A6D020680C3050E8CA
:101E7000002F22F4907240E80026002EF5D1206851
:101E8000143050E8002F22F0010240E80026002E16
:101E9000F5D184F83E30256320680C3050E8002FDF
:101EA00022F0100240E80023002BF5D12046FFF776
:101EB000D3FEF8BDFFE705062BD5150629D594F806
:101EC0003D002128F5D1A068B0F5805F01D12069DF
:101ED000B0B1206A411C2162216800784860E08C22
:101EE000401E0004000CE084E3D12068C16821F0AA
:101EF0008001C1602068C16841F04001C160D8E73D
:101F0000206A0088C0F308004860206A801C2062B4
:101F1000E5E74006CDD55006CBD5CA68204622F06D
:101F20004002CA6084F83D3000F0CBF9C1E7000000
:101F3000F52C000870B5040004D094F83D0000258D
:101F400010B106E0012070BD84F83C50204600F03E
:101F500023F8242084F83D002068C16821F4005152
:101F6000C160204600F0D6FF2068016921F490414D
:101F700001612068416921F02A0141612068C1683E
:101F800041F40051C1602564202084F83D0084F8AC
:101F90003E00002070BD00002DE9F04F87B00546DF
:101FA00014216846FEF7D2F98648DFF81482143807
:101FB000D5F800C00024DFF80C9202210323824AE6
:101FC000061501274FF0070EC4454AD1D9F8008005
:101FD00048F01008C9F80080D9F800C00CF0100CC7
:101FE000CDF814C0D0F800C04CF0010CC0F800C00F
:101FF0000068884600F0010005900802CDE900085D
:10200000CDE902439A46F14669469346CDF810E081
:102010001046FEF7E9FECDE90068CDE9027A69468F
:102020005846CDF81090FEF7DFFE694F67483860DC
:102030007004C7E90104C7E903467C61BC61FC6127
:102040003C6238467C62FEF72DFE08B1FEF7FDFCCF
:10205000AF63002201212520BD63FFF709FB252086
:1020600055E0DFF870814FF0080BC44554D1DFF81C
:1020700054C1ACF1040CDCF8008048F40038CCF812
:102080000080DCF800C00CF4003CCDF814C0D0F89F
:1020900000C04CF0010CC0F800C000688A4600F097
:1020A000010005900420CDE9000ACDE902439946DC
:1020B000F0466946CDF810E04348FEF795FECDE9BD
:1020C0000279CDE900BA69463F48CDF81080FEF7A5
:1020D0008BFE3F4F4048603738604FF00060C7E9E3
:1020E0000104C7E90346C0147C61C7E906403C62AD
:1020F00038467C62FEF7D6FD08B1FEF7A6FCAF635A
:10210000002201212620BD63FFF7B2FA2620FFF747
:10211000A1FA07B0BDE8F08FDFF8C080C445F8D160
:10212000D9F8008048F02008C9F80080D9F800C02C
:102130000CF0200CCDF814C0D0F800C04CF0010C0D
:10214000C0F800C000688A4600F0010005904FF416
:102150000060CDE9000ACDE90243D846CDF810B0C1
:102160009946694693461046FEF73EFE4FF480506E
:10217000CDE9000ACDE902796946CDF810805846CC
:10218000FEF732FE124F1148C0371838386080050C
:10219000C7E90104C7E903467C61BC61FC613C629C
:1021A00038467C62FEF77EFD08B1FEF74EFCAF6359
:1021B000002211464720BD63FFF75AFA4720A6E7E1
:1021C00000100140443802400000024040640240D8
:1021D00018020020004400408860024000140140C2
:1021E00090F83E30202B0ED159B152B190F83C30CE
:1021F000012B08D0012380F83C300023036300F05A
:102200000FBF0120704702207047704770470000E1
:102210002DE9F843044690F83D001F4616460D464A
:1022200020284CD1C5B1BEB194F83C00012846D05D
:10223000012084F83C004FF00008C4F840802120C1
:1022400084F83D00FEF7C6FEA6848146E684A068B9
:10225000B0F5805F03D004E00120BDE8F883206979
:1022600028B12E465FF0000584F83C800EE0002681
:10227000FAE78021204600F01BFFA0B9AEB116F8A6
:10228000010B21684860E08C401EE084E08C4B46E6
:102290004FF0000200970028EBD14FF0400120469C
:1022A00000F006FF30B10320D7E735F8020BC0F38A
:1022B0000800E6E7202084F83D000020CDE702205A
:1022C000CBE77047FEE701684A69D24352050FD455
:1022D0006FF480624A61002140F8301F202242736F
:1022E0008173026942F004020261017301207047A8
:1022F000002070472DE9F84F0446C06A1E469346F9
:102300000D4621680A6842F480620A60082807D0F6
:10231000012805D010F5803F02D0206B112804D190
:102320002068016841F4807101604FF001195B463B
:10233000002249462046009600F0C6F84FF4007887
:1023400040B120680068C00501D5C4F84080032072
:10235000BDE8F88F2069DFF884A0B0F5804F0FD07A
:102360000620216800EAD51747F0F00008613346DF
:102370005A460AF10601204600F0DAF858BB03E09D
:10238000E8B240F001001CE02168E8B20861334681
:102390005A465146204600F0CBF8E0B92068416922
:1023A00081690091016841F4807101605B460022FF
:1023B00049462046009600F087F80028C1D147F032
:1023C000F1002168086133465A465146204600F024
:1023D000AFF80028BCD00120BAE7000002000100DD
:1023E000F8B50446C06A1E460D461746082807D0B1
:1023F000012805D010F5803F02D0206B122804D1AF
:102400002068016841F480710160134600224FF09A
:1024100001112046009600F057F840B1206800688E
:10242000C00502D54FF4007020640320F8BD206978
:10243000B0F5804F0ED00620216800EAD51040F09C
:10244000F000086133463A460B49204600F070F828
:1024500078B902E005F0FE0000E0E8B2216808610A
:10246000054933463A46891F204600F061F80028A6
:10247000DCD00120F8BD00000800010070B5164650
:102480000D4604460DE02046FFF71DFF08B1012070
:1024900070BD681C05D0FEF79DFD801BA84207D8C3
:1024A00035B120684069C0434007ECD4002070BDBE
:1024B000002044F8300F20216173A073216941F09E
:1024C000200121612073E2E72DE9F0471E46904686
:1024D0000D460446C1F30747DDF8209008E0701C64
:1024E00006D0FEF777FDA0EB0900B0420FD876B119
:1024F0002068012F18D0806925EA00000004000C34
:1025000014D000214145EAD00020BDE8F08700202A
:1025100044F8300F20216173A073216941F020013C
:10252000216120730120F0E74069E5E70121E9E737
:102530002DE9F0479A4691460E46044600254FF095
:102540002008C1F3074725E020684069C0434005E3
:1025500014D42068016841F40071016021686FF4AF
:1025600080604861256384F83D8084F83E50206C8B
:1025700040F00400206484F83C501FE0B9F1FF3FB4
:1025800008D0FEF727FDA0EB0A0149450CD8B9F1A8
:10259000000F09D02068012F13D0806926EA0000BF
:1025A0000004000C0BD0CFE744F8305F84F80D80B6
:1025B000A573206940F02000206125730120BDE84B
:1025C000F0874069EAE72DE9F041002590460E4684
:1025D0000446202717E04069C043C0060CD454F8D5
:1025E000301B6FF01000486144F810596777A577E9
:1025F000206A2062257717E0FEF7ECFCA0EB0800CC
:10260000B04208D83EB120684169C9434906E2D4C6
:102610000020BDE8F08144F8305F6773A57320693E
:1026200040F02000206125730120F2E770B51646C6
:102630000D4604460DE02046FFF745FE08B1012097
:1026400070BD681C05D0FEF7C5FC801BA84207D8EA
:1026500035B120684069C0430006ECD4002070BD4D
:10266000002044F8300F20216173A073216941F0EC
:10267000200121612073E2E7134810B50068C168AA
:1026800041F01001C160FF2210490F48FFF7A8FD7B
:102690000F480068C16841F01001C1600B49FF227A
:1026A000FF310B48FFF79CFD0A480068C16841F004
:1026B0001001C160FF2208490648FFF791FDBDE8FF
:1026C000104006A000F0ECBD4C01002037040020B3
:1026D00090010020D40100203506002055534152BE
:1026E0005420696E6974206F6B0D0A00154808B597
:1026F000016841F400110160016801F400110091CA
:10270000016841F4800101600068002200F480004B
:10271000009011461020FEF7ABFF1020FEF79AFF45
:10272000002211463920FEF7A3FF3920FEF792FF61
:10273000002211463A20FEF79BFFBDE808403A20F0
:10274000FEF788BF3038024070B586B01421684665
:10275000FDF7FCFD1D480025016841F00401016002
:10276000016801F004010591016841F080010160F8
:10277000016801F080010591016841F001010160EB
:10278000016801F001010591016841F00201016059
:102790000068012200F002000D4E5403059021460E
:1027A0003046FEF711FC009401246946304601943E
:1027B000CDE90245FEF718FBCDE90045694605481D
:1027C0000294FEF711FB06B070BD000030380240E5
:1027D00000080240000002400D4810B50B4901609E
:1027E0000C49416000214FF480428160C0E903122E
:1027F00041618161C1610162FEF7F2FB002803D0F3
:10280000BDE81040FEF721B910BD000000540040A3
:1028100050000020A08601000D4810B50B49016052
:102820000C49416000214FF480428160C0E90312ED
:1028300041618161C1610162FEF7D2FB002803D0D2
:10284000BDE81040FEF701B910BD0000005800407F
:10285000A4000020A08601000D4810B50B490160BE
:102860000C49416000214FF480428160C0E90312AD
:1028700041618161C1610162FEF7B2FB002803D0B2
:10288000BDE81040FEF7E1B810BD0000005C00405C
:10289000F8000020A08601000C4810B50A4901602C
:1028A0004FF4E1314160002181600C22C160C0E938
:1028B00004128161C161FFF73DFB002803D0BDE830
:1028C0001040FEF7C2B810BD001001404C010020BE
:1028D0000C4810B50A4901604FF4E1314160002114
:1028E00081600C22C160C0E904128161C161FFF7FF
:1028F00021FB002803D0BDE81040FEF7A6B810BDAC
:1029000000440040900100200C4810B50A490160C5
:102910004FF4E1314160002181600C22C160C0E9C7
:1029200004128161C161FFF705FB002803D0BDE8F7
:102930001040FEF78AB810BD00140140D4010020F9
:10294000FEE7FEE770B5002404F1B000C0B200F06D
:10295000E7F8002000F0E4F8102000F0E1F800258E
:10296000002000F0EFF86D1CEDB2802DF8D3641C50
:10297000E4B2082CE8D370BD10B54FF4FA7001F042
:10298000A1F9AE2000F0CCF8002000F0C9F810202A
:1029900000F0C6F8402000F0C3F8812000F0C0F835
:1029A000FF2000F0BDF8A12000F0BAF8C82000F028
:1029B000B7F8A62000F0B4F8A82000F0B1F83F2046
:1029C00000F0AEF8D32000F0ABF8002000F0A8F83B
:1029D000D52000F0A5F8802000F0A2F8D92000F062
:1029E0009FF8F12000F09CF8DA2000F099F812200E
:1029F00000F096F8DB2000F093F8402000F090F80B
:102A0000202000F08DF8022000F08AF88D2000F0E0
:102A100087F8142000F084F8A42000F081F8A620A4
:102A200000F07EF8AF2000F07BF8FFF78BFF00216D
:102A3000BDE810400846AFF3008010B50446B03141
:102A4000C8B200F06DF8102040EA141000F068F8E9
:102A500004F00F00BDE8104040F0010000F060B845
:102A60002DE9F041203A00240D468046D6B27F2859
:102A700003D900204D1C8046EDB2102B29460FD003
:102A8000FFF7DBFF164906EB460001EB4005285D2A
:102A900000F058F8641CE4B2062CF8D3BDE8F081CD
:102AA000FFF7CBFF0F4F00BF04EB0610385C00F0C0
:102AB00049F8641CE4B2082CF6D36D1CE9B2404618
:102AC000FFF7BBFF5FF0000404EB06103844007A08
:102AD00000F038F8641CE4B2082CF5D3DEE70000FF
:102AE000265800084E5A00082DE9F041984617462E
:102AF0000E46044600250DE0434631462046FFF7CA
:102B0000AFFF0834E4B2782C02D90024B61CF6B228
:102B10006D1CEDB27A5D002AEED1BDE8F0810000B7
:102B20001CB500218DF804108DF805004FF6FF70DC
:102B30000090022301AA78210148FEF705FC1CBD84
:102B4000500000201CB540218DF804108DF80500C0
:102B50004FF6FF700090022301AA78210148FEF78A
:102B6000F3FB1CBD500000207047000070B50E46FE
:102B700015460446FF21FDF7EAFEA178884206D1FA
:102B8000FF21E01CFDF7E3FE6179884201D00120BE
:102B900070BD2088DFED100A40BA00EE100ADFEDAC
:102BA0000F1AB8EE400A80EE201A9FED0D0A01EED2
:102BB000210A86ED000AB4F8030040BA00EE100ABC
:102BC0000020B8EE400A80EE201A9FED060A21EEA2
:102BD000000A85ED000A70BD00FF7F4700002F430B
:102BE000000034C20000C84242F2202000F012B8B7
:102BF00038B504464FF4604000F00CF84FF6FF7013
:102C000000900623224689210148FEF7ADFA38BD1F
:102C1000F80000201CB5010A8DF804108DF805009D
:102C20004FF6FF700090022301AA88210148FEF7A9
:102C30008BFB1CBDF800002010B543F2A200FFF78B
:102C4000E9FFBDE81040142001F03CB87047FEF7E2
:102C5000A7BC000030B593B030216846FDF776FB85
:102C600014210CA8FDF772FB1C480024016841F0F8
:102C700080510160006800F0805011901848016890
:102C800041F4404101600068022500F44040119089
:102C90000120039010200490009506950820CDE9AE
:102CA00007406420CDE9090504200B906846FEF733
:102CB000FDFD08B172B6FEE70F20CDE90C054FF41B
:102CC0008050CDE90E4003210CA81094FEF702FDC0
:102CD000002801D072B6FEE713B030BD4038024084
:102CE000007000400248016841F4700101607047C3
:102CF00088ED00E010B5806B0021C185C184FEF72E
:102D0000E4FF10BD70B5846B2068406994F83D10F5
:102D1000C0F3C0100025212904D118B1E584204654
:102D200000F08AF82068406994F83E10C0F38010E3
:102D3000222904D118B1E585204600F056F8206C10
:102D400040F0100020642046FEF7BFFF70BD10B5B4
:102D50000146806B09680968C9052FD40021C18527
:102D600001680C3151E8002F22F4807241E8002301
:102D7000002BF5D10168143151E8002F22F0010237
:102D800041E80023002BF5D10168143151E8002FF0
:102D900022F0400241E80023002BF5D1202180F8E9
:102DA0003E10016B012909D101680C3151E8002F57
:102DB00022F0100241E80023002BF5D1016B01291C
:102DC00002D0FFF722FA10BD818DFEF745FF10BD3E
:102DD00010B5806B016B012902D0FFF717FA10BD07
:102DE000818D4908FEF738FF10BD01680C3151E8AC
:102DF000002F22F4907241E80023002BF5D10168E6
:102E0000143151E8002F22F0010241E80023002B89
:102E1000F5D1016B012909D101680C3151E8002F6E
:102E200022F0100241E80023002BF5D1202180F888
:102E30003E1000210163704701680C3151E8002FFA
:102E400022F0C00241E80023002BF5D1202180F8B8
:102E50003D10704708B590F83E10222901D002209D
:102E600008BD82684FF480539A4201D1016921B1B3
:102E7000816A9A421BD04AB10AE00268816A5268AC
:102E8000C2F308020A80816A891C08E0026972B1F3
:102E90000268526802F07F020A70816A491C8162EE
:102EA000C18D491E0904090CC18503D019E00268CF
:102EB0005268F1E70168CA6822F02002CA6001681E
:102EC000CA6822F48072CA6001684A6922F001026D
:102ED0004A61202180F83E10016B012903D0FFF7E1
:102EE00094F9002008BD0021016301680C3151E80C
:102EF000002F22F0100241E80023002BF5D10168D9
:102F00000A68D20602D50A6849680091818DFEF7E9
:102F1000A3FEE6E770B5044600680169E26821F4A3
:102F20004051114301612169A068E2690843616968
:102F3000114308432168CA6849F20C639A4302436B
:102F4000CA6020684169A26921F44071114341615E
:102F500031492068884202D03049884202D1FEF7C8
:102F600063FC01E0FEF750FCE269002319216425AF
:102F70003226B2F5004F626828D0A0FB0101930F02
:102F80009200FDF73DF90146B0FBF5F06FF0180235
:102F9000504301EB800006EB0010B0FBF5F000F0B1
:102FA000F002B1FBF5F002EB0012B1FBF5F06FF0AF
:102FB0001803584301EB800006EB0010B0FBF5F05E
:102FC00000F00F0021681044886070BDA0FB010173
:102FD00092185B41FDF714F90146B0FBF5F00201D0
:102FE000B1FBF5F06FF01803584301EB800006EBDE
:102FF000C000B0FBF5F000F0F80002EB4002B1FBBE
:10300000F5F0584301EB800006EBC000B0FBF5F093
:1030100000F00700D6E70000001001400014014056
:1030200038B5816282850025134604460564222056
:1030300084F83E00A26B1B48D063A26B1A48106450
:10304000A26B1A48D064A06B0A4605652168A06B84
:10305000091DFDF791FE206801684068009084F822
:103060003C5020680C3050E8001F41F4807140E86B
:103070000012002AF5D12068143050E8001F41F0FA
:10308000010140E80012002AF5D12068143050E810
:10309000001F41F0400140E80012002AF5D1002055
:1030A00038BD00004F2D0008D12D0008052D000867
:1030B0002DE9F041984617460E460446069D27E046
:1030C000681C25D02DB1FDF785FFA0EB0800A842B4
:1030D0001ED920680C3050E8001F21F4D07140E860
:1030E0000012002AF5D12068143050E8001F21F0AA
:1030F000010140E80012002AF5D1202084F83D00AB
:1031000084F83E00002084F83C000320BDE8F081F4
:103110002068006836EA000004D00020B842CFD012
:103120000020F3E70120F9E710B50448FEF7CEFDD3
:10313000BDE81040014800F01BB800004C01002021
:1031400010B50448FEF7C2FDBDE81040014800F08C
:103150000FB800009001002010B50448FEF7B6FD3E
:10316000BDE81040014800F003B80000D401002081
:10317000F8B53E483E490126006800253D4C88428E
:103180001FD10168C943C9061BD40168406800907B
:103190003648FEF762FD2078012800D02670E078DE
:1031A00000B1E570344800684068C0F1FF00C1B26A
:1031B000E1703248FDF7CAF8FF2230492B48FFF78B
:1031C0000FF82F482F4900684F15884223D1016816
:1031D000C943C9061FD40168406800902848FEF71B
:1031E0003CFD6078012800D06670E07800B1E570A1
:1031F0002548006840682149C0F1FF00C2B2E27072
:103200003B46FF311948FFF703F81C49FF22FF3105
:103210001B48FEF7E5FF1D481D490068884223D181
:103220000168C943C9061FD4016840680090174867
:10323000FEF713FDA078012800D0A670E07800B159
:10324000E5701448006840683B46C0F1FF00C2B218
:10325000E27011490548FEF7DBFFBDE8F840FF22A8
:103260000D490A48FEF7BCBFF8BD00004C01002024
:10327000001001401C00002018020020370400202C
:10328000900100200044004078020020D40100207A
:1032900000140140D802002035060020FEE700009F
:1032A0000FB4054B10B503A9044A029800F056F973
:1032B00010BC5DF814FB00006542000844000020CB
:1032C0000FB47CB50C0009AD01D0611E00E00021F7
:1032D000CDE90001064B6A462946089800F03EF900
:1032E000002C02D0009A002111707CBC5DF814FB08
:1032F000633C00080FB4084B10B504A902AA039858
:1033000000F02CF9044602A9002000F0B5FC20468C
:1033100010BC5DF814FB0000793C00087CB50C0083
:103320001D461646014601D0601E00E00020CDE992
:103330000010064B6A462946304600F00FF9002C73
:1033400002D0009A002111707CBD0000633C00088F
:1033500030B47446641E2578641CAB4200D21D460E
:10336000635D5B00E31830BC184701224900520539
:10337000D14201D1002801D00020704701207047C0
:10338000002800D001200143480002494008081AE3
:10339000C00F70470000F07F0907090E002804DB0A
:1033A00000F1E02080F80014704700F00F0000F1F9
:1033B000E02080F8141D704702E008C8121F08C101
:1033C000002AFAD170477047002001E001C1121FA6
:1033D000002AFBD1704700002DE9FF5F82B0002179
:1033E000DDE90430020DDDF840B0034318D044F6A7
:1033F0001050A2F2FF3242431514119801281FD039
:10340000A5EB0B00401C5FEA000A4FF000064E4F90
:10341000DFF83891B046504615D5CAF1000413E0E4
:10342000119801244AA3012801D16FEA0B010298E7
:10343000119AC0E90031C0E9024206B0BDE8F09F30
:10344000CBF10000DFE704460021404A491842EB77
:103450000450CDE9001012E0E00707D032463B46A9
:1034600040464946FDF776F98046894632463B4656
:1034700010461946FDF76EF906460F466410002CFB
:10348000EAD1DDE90401DDE90023BAF1000F06DA33
:10349000FDF760F942464B46FDF75CF905E0FCF7A5
:1034A00088FF42464B46FCF784FF04460E46002246
:1034B000284BFDF7D9F903D84FF0FF30014607E05C
:1034C0000022254B20463146FDF79DF8FDF7B4F963
:1034D000102409E0002C0ADB0A220023FCF790FEEE
:1034E000039B30321A55641E50EA0102F2D1641C6B
:1034F000039AC4F111031444119A012A03D0012242
:1035000008430DD10AE0084304D000204FF0110B0E
:10351000119072E7A3EB0B056D1E0DE05B4504DD1A
:103520004FF0000205F1010504E003DA4FF000025C
:10353000A5F10105002AECD002981199C0E90231E9
:10354000C0E9004579E70000000014400000F03FAA
:10355000300000000000F0430000E03F2DE9FF4F85
:1035600095B09A46884606460025EEE1252877D193
:1035700000242746F94A0121039400E0044316F889
:10358000013F203B01FA03F01042F7D130782A289E
:1035900011D06FF02F033078A0F13002092A16D82D
:1035A000039A44F0020402EB820203EB420210444D
:1035B000761C0390EFE758F8042B0392002A03DAF5
:1035C000504244F40054039044F00204761C3078D6
:1035D0002E2816D116F8010F44F004042A280DD025
:1035E0006FF02F023078A0F13003092B09D807EBD8
:1035F000870302EB4303C718761CF3E758F8047BF4
:10360000761C30786C280FD006DC4C2817D0682840
:103610000DD06A2814D104E0742810D07A280FD174
:103620000DE044F400140AE044F4801401E044F492
:1036300040147278824202D104F58014761C761C04
:10364000307866280BD013DC582877D009DC0028A6
:1036500075D04528F6D04628F4D047281AD193E1F2
:1036600018E0632835D0642879D0652812D18BE121
:10367000702873D008DC6728F1D069286FD06E28D5
:103680000DD06F2806D1ACE073282CD0752874D0EB
:10369000782853D05246179990476D1C54E1C4F3D3
:1036A0000250022809D003280DD0D8F800100428B1
:1036B0000DD00D6008F1040846E1D8F80010EA17B3
:1036C000C1E90052F6E7D8F800100D80F2E70D705E
:1036D000F0E718F8041B8DF8001000208DF80100A9
:1036E000EB46012003E058F804BB4FF0FF306107C0
:1036F0004FF0000102D40DE009F101018946B94201
:103700000FDA8145F8DB1BF809100029F4D108E035
:1037100009F1010189468142FADB1BF809100029F1
:10372000F6D103985346A0EB090721463846179A6D
:1037300000F080FA284400EB090507E044E008E1C6
:103740000DE01BF8010B524617999047B9F101099A
:10375000F7D2534621463846179AF2E039E00A215B
:10376000C4F302524FF0000B0091022A06D058F821
:10377000040BC117032A09D00AE023E008F107006F
:1037800020F00702F2E80201904605E000B2C117FE
:10379000042A01D140B2C117002906DA0A460021E5
:1037A000404261EB02012D2202E0220504D52B22CA
:1037B0008DF80420012203E0E20701D02022F7E780
:1037C000914657E00A2100E010214FF0000B0091D4
:1037D0000BE010214FF0000B44F004040827009187
:1037E00003E008204FF0000B0090C4F30252022ABD
:1037F00005D058F8040B0021032A08D008E008F18E
:10380000070020F00702F2E80201904603E080B2D0
:10381000042A00D1C0B24FF0000922072AD532781D
:10382000702A07D0DDF800C08CF0100C5CEA0B0C9D
:1038300005D00EE040228DF80420012208E050EA75
:10384000010306D030238DF804308DF805200222C4
:103850009146009B83F0080353EA0B030AD150EA18
:10386000010201D1620705D530228DF804204FF006
:1038700001097F1E3278582A04D039A20C920CAA72
:1038800002920BE03BA2F9E75B46009AFCF7B8FC1A
:103890000C9B9B5C029A521E0292137050EA01022A
:1038A000F2D1029804A9081A00F1200B600702D592
:1038B00024F4803400E001275F4502DDA7EB0B0014
:1038C00000E0002000EB0B01009003984944401AEF
:1038D0000390E00306D453462146179A039800F05C
:1038E000A9F90544002706E001A85246C05D1799D2
:1038F00090476D1C7F1C4F45F6DBE0030CD553460B
:103900002146179A039800F095F9054404E0302009
:103910005246179990476D1C0099481E0090002947
:10392000F5DC08E00298029952460078491C0291A1
:10393000179990476D1CBBF10001ABF1010BF1DC55
:103940005BE100F065F90544761C307800287FF4CF
:103950000DAE19B02846BDE8F08F0000092801001F
:1039600030313233343536373839616263646566F5
:1039700000000000303132333435363738394142B7
:103980004344454600000000600700D4062708F1C4
:10399000070020F00700F0E80223804603F0004C07
:1039A0005FEA0C0001D097A009E0200501D596A0A0
:1039B00005E0E00701D095A001E0AFF24C001390C4
:1039C000307823F0004365280CD006DC452809D068
:1039D00046281DD047287FD13BE0662818D06728AD
:1039E0007AD136E00021112F01DB112000E0781C94
:1039F000CDE9000104A90CA8FFF7EEFCDDE90D01FB
:103A00000C9A4FF0000B07F10109109200914EE063
:103A10004FF000400097CDE9011004A90CA8FFF772
:103A2000DBFCDDE90D020C9B0F994FF0000B91467A
:103A30001093009211B9791C00EB0109B7EB090052
:103A400003D4C0F1FF3B07F10109A9EB0700019086
:103A500042E0012F00DA01270021112F01DD1120A2
:103A600000E03846CDE9000104A90CA8FFF7B4FC3A
:103A7000DDE90D010C9A00914FF0000BB946109250
:103A800021070FD4009A4A4503DA914601E0A9F1D3
:103A90000109B9F1010F05DD109AA9F10101515C8D
:103AA0003029F4D0B84202DA10F1040F03DA012110
:103AB000CDE9011010E0002803DC8344A9EB0001EC
:103AC00002E0411C494500DD8946A0EB0B00401C8B
:103AD00001904FF000400290200705D4019848451E
:103AE00002DB4FF0FF30019000208DF84B00029870
:103AF0000DF14B07B0F1004F25D002200C902B2088
:103B00000D90029800280CDA404202902D200D9072
:103B100007E00A210298FCF75DFB3031029007F8BC
:103B2000011D0C99481E0C900029F2DC0298002817
:103B3000EFD1791E0D980870307800F0200040F029
:103B4000450007F8020D11A8C01BC01D0290139874
:103B5000007800B1012000EB0901019801EBE07150
:103B6000029801440398401A401E0390E00306D4D3
:103B700053462146179A039800F05CF805441398C1
:103B8000007818B15246179990476D1CE00323D571
:103B900053462146179A039800F04CF805441BE061
:103BA000BBF1000F07DB0098584504DD109817990A
:103BB00010F80B0001E01799302052469047019809
:103BC0000BF1010B401E05F10105019004D12E20DF
:103BD0005246179990476D1CB9F10001A9F10109EE
:103BE000DEDC05E017F8010B5246179990476D1C73
:103BF0000299481E02900029F4DC53462146179A88
:103C000003989EE62D0000002B000000200000001D
:103C10002DE9F041044600251E461746880404D4C9
:103C200005E039462020B0476D1C641EF9D52846B2
:103C3000BDE8F0812DE9F041044600251E4690467E
:103C4000C80301D5302700E02027880404D505E00B
:103C500041463846B0476D1C641EF9D52846BDE87C
:103C6000F0814A68002A06D00A68531C0B60107065
:103C70004868401E486070470A68531C0B6010700B
:103C8000704770B50D4604998C0099008918AA00F8
:103C900010182246FCF733FB70BD0A680C308242D4
:103CA00004D14868824201D101207047002070474A
:103CB00010B504460420FDF7AFFF0148046010BDB5
:103CC0001800002070B5054600244FF47A7603E012
:103CD000304600F005F8641CAC42F9D370BD00001A
:103CE00070B54FF0E024002265690949A3690968AD
:103CF0004843A1699942FCD002D2A3EB010302E040
:103D0000A5EB010633441A440B468242F1D370BD41
:103D100018000020FFB59DB01D98269D1C460E463C
:103D200000287DD0007801210300FFF711FB0898DF
:103D300041321121090D05792A460421C9A08EE1DD
:103D40002A460421C9A08AE12A460521C9A086E1A4
:103D50001D9800F0ABFD01910090C8A2642102A85B
:103D6000FFF7AEFA014664285AD22A4602A876E145
:103D70001D9800F068FE3204D20E009202460B46F7
:103D8000642101A800F0E8FE010049D42A4601A8F8
:103D900065E11D9800F063FE07461D9800F068FE7F
:103DA0002B4622463946009600F0AEF921B0F0BD10
:103DB0001D9F7869002842D179611D9800F0CEFCE2
:103DC00002902A460121AFA0A047002837D10298CF
:103DD00000280AD01F992346002200953046491C2E
:103DE00000F062F900282AD134E0002078612A46E8
:103DF0000121A5A033E101461D9800F07BFC1F9A2C
:103E0000234600953146521CFFF784FF002816D147
:103E100002980199401E814214DA2A46012100E0ED
:103E200014E19AA0A047002809D11F992346012236
:103E300000953046491C00F037F9002808D00020D2
:103E4000786103E123460022009530461F99F2E78E
:103E50000198401C029901908842CCDBC5E7B0066E
:103E600003D58BA00390012002E08AA003900220DA
:103E700005901D980890006A00287DD1089801627D
:103E80001D9800F057FD06902A46012182A0A04708
:103E90000028F2D1069800286FD01F9923460022EF
:103EA00000953046491C00F0FFF80028E5D1F005E8
:103EB000800F75D01D9800F097FD0290C00000F0B3
:103EC000F1FE0190002857D00027069800F063FB10
:103ED0000146F800019A00901150069800F036FD56
:103EE0000146019A00988018416006991D9800F0DB
:103EF00033FD7F1C06900028E7D10298874228D125
:103F0000300601D5654B00E0654B08220299019807
:103F1000FCF7A7F900274BE00198F9000818406862
:103F2000069001461D9800F0F7FC0990002810D07B
:103F30000698FCF720FA01462B4622460096069882
:103F400000F0E2F82A4605990398A047002823D1FB
:103F500001E0AFF300801F9A234600953146521CC2
:103F60000998FFF7D7FE002816D10298401E874215
:103F700017D22A46012101E065E06AE043A0A0478C
:103F8000002809D11F992346012200953046491C7B
:103F900000F08AF800280AD0019800F07BFE52E079
:103FA00039E023460022009530461F99F0E77F1C38
:103FB00002988742B0D3019800F06CFE49E0069861
:103FC00000F0D8FC1F9A234600953146521CFFF79B
:103FD000A1FE002837D10498002810D02A460121DC
:103FE0002AA0A04700282ED11F9923460122009520
:103FF0003046491C00F058F8002824D109E0234637
:104000000022009530461F9900F04EF800281AD182
:104010001FE00498069006991D9800F09DFC0490FE
:10402000069800F093FC0746FCF7A5F901462B46DD
:1040300022463846009600F067F82A46059903980C
:10404000A0470028BBD00899002008620020C04388
:10405000ACE60899002008622A46012111A0A04779
:10406000A4E600006E756C6C00000000747275654B
:104070000000000066616C7365000000256C6C64D4
:10408000000000005B0000005D0000002C0000004C
:104090003A0000003A2000007B000000E1500008D8
:1040A000ED5000087D000000F8B50E461C46C10624
:1040B00018D0C006C00E0090012110A0069AA0479B
:1040C0000027FF43002807D1002508E00C48069A86
:1040D0000099A047002801D03846F8BD6D1CB542B4
:1040E000F4DB08E0002A06D0800604D4012105A0F4
:1040F000069A9847F8BD0020F8BD00000A000000AD
:104100003E60000820000000FFB589B00F4606465B
:104110000B9B012140A00C9A9847002875D1354689
:104120003446F71918E0791B02AA284601F04BFB28
:1041300004006AD002985C2810D022280ED02028D3
:104140000CDB1299490501D52F2807D01299490691
:1041500001D57F2802DC2546BC42E4D3B54206D017
:104160000B9BA91B30460C9A984700284DD1AC42B6
:1041700006D10B9B012128A00C9A98470DB0F0BDE9
:10418000029A02210D2A23D008DC082A1AD0092A13
:1041900020D00A2A1AD00C2A06D115E0222A0FD0E4
:1041A0002F2A19D05C2A09D001200004824215DA96
:1041B0001AA105A8FFF79EF8062120E019A01FE02C
:1041C00019A01DE019A01BE019A019E019A017E023
:1041D00019A015E019A013E019A011E0101A0103AD
:1041E0001B22890DD2028A18029080053721800D8A
:1041F0008902431813A105A8FFF77CF80C2105A834
:104200000B9B0C9A9847002802D00020C043B5E7CA
:1042100025462E46A0E70000220000005C752530F0
:10422000345800005C5C00005C2200005C6200000E
:104230005C6600005C6E00005C7200005C74000054
:104240005C2F00005C75253034585C75253034587F
:104250000000000013460A4610B50146184601F05A
:10426000B5F910BD03490A685206FCD5C2B24A60CE
:10427000704700000010014010B5002821D0114BFC
:104280000022001F196803E0814203D80A464968EA
:104290000029F9D152B11368841A9C4204D10068F4
:1042A00018441060104602E0506000E0186039B118
:1042B00002680B1A934203D10B681A4402604968E2
:1042C000416010BD4800002070B5044688184E4A71
:1042D00080180246154646E023785B1965782D0262
:1042E000EB18A5782D04EB18E5782D06EE18237948
:1042F0009A1863791B029A18A3791B049A18E37918
:104300001B069B18227A1018627A12021018A27AE1
:1043100012041018E27A12061518701B1C262A4681
:10432000F24142401046ED181B1A1A26F2415A403B
:1043300013464019ED1A1826F2416A4015461B181B
:10434000401B1026F2414240EE1810461B1A0D2564
:10435000EA4153408519F21A18461C26F041504094
:104360005A190C390C340C29B6D80B00FEF7F0FFA3
:104370000D4A2724211E1C191613110E0B082900A3
:10438000E17A09060818A17A09040818617A090275
:104390000818217A0818E17909068A18A179090410
:1043A0008A18617909028A1821798A18E178090640
:1043B0004D19A17809044D19617809024D19217828
:1043C0004D1912231146D9415040411A1523084670
:1043D0004D40D841281A07240346E3414240D21AEF
:1043E00010241346E3415140C91A1C240B4648408F
:1043F000E341C01A42401223D841101A414008221A
:10440000D041081A70BD0000EFBEADDE10B5044605
:1044100000F004F8606800F03DFC10BD70B5054682
:104420000C35046908E06668A068241F00F0B7F93D
:10443000204600F02FFC3446AC42F4D170BDF8B5F4
:104440000446406800F026FCA1680126491C30465D
:104450008840A1600090C00000F024FC606000284B
:1044600003D0002025460C3509E00020C043F8BDEC
:10447000C10062680B1DD5506268401C5550227AFD
:10448000314691408142F3D822696D602D600DE084
:10449000171F566838680099FBF79CFE6068C900D2
:1044A00041183A1D204600F0D1F83246AA42EFD119
:1044B0000020F8BDFFB581B01F460E46FFF7EDFBAB
:1044C000002813D13468251F2868B84206D1284631
:1044D00014300399FBF756FF002804D07068A042FF
:1044E00004D06468EFE7284605B0F0BD0020FBE784
:1044F00070B504460D460846FBF73DFF0B490A68B8
:1045000001462846FFF7E0FE237A01219940491E23
:1045100001406268C900511803462A462046FFF749
:10452000C9FF002800D0C06870BD00004000002016
:1045300070B50446002020600320A060402000F0F9
:10454000B1FB6060002806D020460C3020610021BD
:104550000123E06009E00020C04370BDCA00656827
:10456000161DA8516568491CA850257A1A46AA400C
:104570008A42F3D8002070BD00B501460C3100F02E
:1045800003F800BD10307047024648680C32904274
:1045900000D100207047C0687047806870470000F5
:1045A000FFB50546027A012401682046904081B09B
:1045B0001F46814204D32846FFF741FF002840D11F
:1045C0000298FBF7D8FE20490A6801460298FFF7D7
:1045D0007BFE0646287A33468440641E3440686871
:1045E000E1004018009001462846029AFFF762FF5A
:1045F000040004D0E06800F0D2F8E7601EE0029802
:10460000FBF7B9FE1521C8421BD2153000F04AFB5A
:10461000040016D0266003982061204614300299C9
:10462000FBF7BEFE201DA060E7606060221D2846EB
:10463000009900F00BF82868401C2860002005B0A5
:10464000F0BD0020C043FAE74000002070B51546D9
:104650000C460646FFF721FB002806D030462946C7
:104660000C3000F047FB656003E02946206800F04D
:1046700041FB256070BD70B5182000F013FB0400ED
:104680000ED0012020700025E56060600820A06049
:10469000202000F007FB2061002802D02046656141
:1046A00070BD204600F0F6FA002070BD70B5104EC7
:1046B0000D0005D0002817D00178012914D101E0A0
:1046C000304670BDA8420FD001220446114600F0CA
:1046D0001FF8002808D0E168206989004550E0688B
:1046E000401CE060002070BD284600F04CF8E7E771
:1046F000FFFFFFFF002805D00278012A02D1C2681F
:104700008A4201D8002070470069890040587047EC
:10471000F8B50546C06817464318AA682869934249
:1047200019D9064654185000844200D80446A00007
:1047300000F0B8FA00280ED0AC602861002F0BD032
:10474000E9680023009132461946FFF79AFA30468D
:1047500000F0A0FA2869F8BD3046F8BD002802D064
:104760000178012901D000207047C068704710B55A
:10477000002807D041684A1C04D0491E416001D17D
:1047800000F019F810BD10B5002807D041684A1C88
:1047900004D0491E416001D100F00DF810BD10B5E4
:1047A000002807D041684A1C04D0491E416001D14D
:1047B00000F001F810BD70B500280AD0017800297A
:1047C00008D001290BD002291AD0032915D00429B9
:1047D00013D070BD04460830FFF718FE0CE0044605
:1047E000002504E0A9004058FFF7CDFF6D1CE068EC
:1047F000A8422069F6D805E0204600F04BFA70BDCB
:104800000446806800F046FAF6E738B51C469B057A
:1048100009D4002804D00378012B04D0002B02D047
:104820000020C04338BD0B46009200222146FFF70E
:1048300071FA38BD3EB505460C46684600F00AFFE1
:10484000002801D000203EBD23466A46094928467B
:10485000FFF7DBFF002801D0002405E0684600F0E8
:104860000FFF00F027FA0446684600F0E7FE2046F6
:104870003EBD000055420008004870472800002057
:10488000002804D041684A1C01D0491C416070478F
:1048900070B504460D46102000F004FA002804D03C
:1048A000032101700121021D32C270BD002802D017
:1048B0000178032902D00020014670478268C16850
:1048C00010467047004870473000002010B5242083
:1048D00000F0E8F9040004D00E480068002802D077
:1048E00004E0002010BD002000F04AF800202070F5
:1048F0000120606020460830FFF71AFE002803D030
:10490000204600F0C7F9ECE70020E0612062204675
:1049100010BD00004000002010B5002904D0002880
:1049200002D00278002A01D0002010BD0830FFF725
:10493000DFFD10BD10B5002802D00178002901D09C
:10494000002010BD0830FFF717FE10BD10B500287D
:1049500001D0FFF717FE10BD10B5002808D002786F
:10496000002A05D1002903D00830FFF70DFE10BD45
:10497000002010BD10B5002801D0FFF70EFE10BDBD
:1049800038B5084C216800290AD1002807D16846AB
:1049900000F004FE0098002801D101200090206062
:1049A00038BD00004000002070B50E4D140007D047
:1049B000002912D0002810D00278002A0DD101E081
:1049C000284670BDA04208D0C269531CC36123466B
:1049D0000830FFF7E5FD0028F3D02046FFF7D3FEAF
:1049E000EEE70000FFFFFFFF002802D0017800295A
:1049F00001D000207047806870470FB410B50021C7
:104A000003AB0846029A00F045F810BC08BC04B09D
:104A1000184770B504460D46FEF7B2FC002805D1D4
:104A200020462946FEF7A1FC002801D0002070BDD9
:104A3000102000F037F90028F9D00421017001217D
:104A4000021D32C270BD002802D00178042902D0B4
:104A50000020014670478268C168104670470028F0
:104A600002D00178022901D000207047C068704749
:104A7000002802D00178022901D000207047806808
:104A8000704710B5002200F0FDFD10BD00487047D2
:104A900020000020F0B595B01D4614000E460746D4
:104AA00029D02078002826D00021384600F0A4F82C
:104AB00023463246394601A800F05AFD01A800F00D
:104AC000CFFA14A901A8149500F01EFB044600209B
:104AD0001490002C1BD001A800F0C2FA08A8007A9C
:104AE0000028204614D0FFF742FE0AA210A101A818
:104AF00000F056FD0BE00EA1384600F07DF80FA047
:104B00000023591E00900A46384600F086F800201F
:104B100015B0F0BD476172626167652061667465BA
:104B20007220666F726D617420737472696E6700B3
:104B30003C666F726D61743E000000004E554C4C37
:104B4000206F7220656D70747920666F726D61746C
:104B500020737472696E6700FEB5074608980C46AC
:104B6000002800D1112001930092034620A238466C
:104B7000FEF7A6FB0026F643002811DB0546A042FF
:104B80000ED22E213846FBF7ECFB002812D165210E
:104B90003846FBF7E6FB00280CD1E81CA04201D305
:104BA0003046FEBD2E207855302178194170002105
:104BB0008170AD1C65213846FBF7D3FB002814D06B
:104BC000461C841C40782D2802D1761C00E0641C11
:104BD00020783028FBD0B44207D0E01B2A1A2146A7
:104BE0003046FBF78CFBA01B2D1A2846FEBD0000AB
:104BF000252E2A670000000010B500280AD00022E8
:104C00005C231A54531E036043608260002902D063
:104C100000F00CF810BD027310BD1CB505AC01947A
:104C2000049C009400F020F81CBD000070B5040046
:104C30000D4616D0002D14D00846FBF79CFB2246EB
:104C40000C32502802D22946104608E006464C3E57
:104C500004A11046FBF7A4FB2046A9190F30FBF76F
:104C60009FFB70BD2E2E2E0070B50400059D04988C
:104C70000FD05C26365D002E0BD10EC402462046B6
:104C80002B46A02150300C3CFEF748FB0020E034BE
:104C9000E07670BD002802D0014949680847704796
:104CA00038000020002802D00149096808477047F1
:104CB0003800002010B50446FBF75DFB0146204696
:104CC00000F006F810BD10B5012200F0DBFC10BDAD
:104CD00070B506460C46481CFFF7E4FF050007D0F8
:104CE00022463146FBF70BFB00202855284670BDB5
:104CF000002070BD486002680A600268516001606F
:104D000070470000ACB000242A9428949FED7A0AE2
:104D100029948DED230A79A18DED250AD1E90001B1
:104D2000CDE92601FCF744FCFDF794FFFDF70CFDEF
:104D3000FDF7DCFCFDF7B0FDFDF7CAFDFDF74CFD0E
:104D4000FDF76AFDFDF788FDFDF7DEFD6420FEF747
:104D5000AFFFFDF791FCFDF70FFE26AA69A103A89E
:104D6000FEF7C8FA0021102303AA0846FDF7BCFE8F
:104D7000802103A8FBF7EAFA654E4FF400550022A4
:104D800029463046FCF720F9FDF756FFFDF72CFFCA
:104D9000B0B160A0FEF784FA012229463046FCF744
:104DA00013F9614F41F288384FF480794FF6FF7A5A
:104DB0004046FEF787FF2320FBF7BAFD10B108E05D
:104DC0005AA0E7E72AA8FBF7A5FD60B15BA0FEF7B4
:104DD00067FA21465CA0FEF763FA28A8FDF708FFF2
:104DE00030B15CA014E02AA8FBF77AFD0446F0E796
:104DF00025AA23A928A8FDF7B9FE10B15DA0FEF7EA
:104E00004FFA25AA23A928A8FDF7B0FE18B159A08A
:104E1000FEF746FA10E02598FBF766FB05460E46BE
:104E20002398FBF761FB41EC100BCDE9005653ECE6
:104E3000102B55A0FEF734FA9DED250A59A05AA370
:104E4000BDEEC00A5AA18DED000ACDE901049DED29
:104E5000230A59A0BDEEC00A10EE102AFFF7CDFDBF
:104E600049463860FFF7E6FC78603868FFF7A3FC36
:104E700026AA54A103A87B68FEF73CFA03A953A015
:104E8000FEF70EFA03AA51A15248FEF733FA82B296
:104E9000534650495048FDF7BBF9802103A8FBF762
:104EA00055FA9DED250A4DA103A8BDEEC00A10EEEE
:104EB000103A9DED230ABDEEC00A10EE102AFEF74F
:104EC00019FA102303AA02210020FDF70DFE80210C
:104ED00003A8FBF73BFA224644A103A8FEF70AFA0F
:104EE000102303AA04210020FDF7FEFD802103A862
:104EF000FBF72CFA5CE70000000000006E6F6465B1
:104F000032000000202020202573202020000000F7
:104F100000080240736874333020696E697420663B
:104F200061696C2E0A000000000000207368743371
:104F30003020696E6974206F6B2E0A006572726F83
:104F400072200D0A000000006C75783A25640D0A85
:104F50000000000072656164206461746120667203
:104F60006F6D207368743330206661696C2E0D0A92
:104F70000000000063726320636865636B206661F4
:104F8000696C2E0D0A00000074656D70203D2025AF
:104F90002E31662C2068756D69203D20252E3166E6
:104FA0000D0A00006C75780068756D6900000000DE
:104FB00074656D70000000007B7369736973697DAF
:104FC0000000000025732C257300000025730D0AD6
:104FD0000000000038030020D4010020543A25646A
:104FE0002020483A25642020000000004C3A256427
:104FF00020200000F0B50B30154D20F007010024F3
:10500000144A0FE003688B420BD38B4205D95E1A1A
:1050100043184768C3E9006700E04368136002C0B3
:1050200004E0021D10680028ECD12046002802D1BF
:10503000286808B10020F0BD064A07481060074AFA
:10504000121A22F00702C0E9002401202860D7E7E5
:105050004C000020480000203C07002038170020AA
:10506000014610B518311EC908301EC00169183834
:10507000002907D002462C321CCA18301EC000215D
:10508000016010BD426C4168521C4264826C521C2B
:105090000123826408E00A2A1DD0426C521C42643B
:1050A000826C521C491C82640A78202AF3D0092A97
:1050B000F1D00A2AEFD02C2AEDD03A2AEBD0D3B285
:1050C00024221354026C8261426CC261826C491CBE
:1050D0000262416010BD026C4364521C0264DFE74F
:1050E00010B549684068FBF74DF910BD00680968C4
:1050F000884202D20020C0437047884201D001207C
:1051000070470020704700000EB52422135C692B05
:1051100042D00CDC5B2B1BD004DC492B42D04F2B44
:105120000DD155E0622B2BD0662B08D145E06E2BBC
:1051300023D06F2B53D0732B0DD07B2B05D02AA2FD
:1051400032A100F02DFA00200EBD00F0C1F80EBD16
:1051500000F066F80EBD02AA009201AB2EA200F08C
:1051600059F90028F6D002990029019902D0FFF7D9
:10517000AAFD0EBDFFF785FC0EBDFFF7A3FB0EBD1C
:105180000868021D0A600068002802D0FFF77EFC54
:105190000EBDFFF771FB0EBD0868021D0A600068B6
:1051A000C11707E00868C01DC208D20010460830C9
:1051B000086003CAFFF76CFB0EBD0868C01DC2087B
:1051C000D20010460830086003CAFFF722FC0EBD6B
:1051D0000868021D0A600068FFF752FB0EBD0868F0
:1051E000021D0A6000680EBD556E657870656374B7
:1051F000656420666F726D617420636861726163BB
:105200007465722027256327000000003C666F72DA
:105210006D61743E00000000737472696E67000077
:10522000F8B50F460546FFF726FA06462846FFF76B
:1052300017FF2C4620341CE0002814D0394628469D
:10524000FFF762FF010009D03046FFF72FFA002870
:105250000CD00AA210A1284600F0A2F93046FFF7B0
:1052600086FA0020F8BD0FA216A1F4E72846FFF742
:10527000F7FE20795D28DFD13046F8BD556E6162BA
:105280006C6520746F20617070656E6420746F208F
:1052900061727261790000003C696E7465726E61C2
:1052A0006C3E0000556E65787065637465642065BA
:1052B0006E64206F6620666F726D61742073747205
:1052C000696E67003C666F726D61743E000000009D
:1052D000F0B585B00E460546FFF7F8FA019028466E
:1052E000FFF7BEFE2C46203446E0002B04D0732B83
:1052F00008D024A22BA127E02DA22AA1284600F045
:105300004FF92BE002A8009004AB31A231462846A9
:1053100000F080F8070021D02846FFF7A1FE3146B3
:105320002846FFF7F1FE020012D039460198FFF738
:105330003BFB0028029817D0002802D03846FFF720
:10534000A9FC3B4625A22BA1284600F029F905E03F
:105350000298002802D03846FFF79CFC0198FFF71E
:1053600006FA002005B0F0BD002802D03846FFF74D
:1053700091FC2846FFF774FE23797D2BB5D1019867
:10538000F0E70000457870656374656420666F72AD
:105390006D6174202773272C20676F742027256385
:1053A000270000003C666F726D61743E00000000D3
:1053B000556E657870656374656420656E64206FF2
:1053C0006620666F726D617420737472696E670017
:1053D0006F626A656374206B65790000556E616267
:1053E0006C6520746F20616464206B6579202225D0
:1053F000732200003C696E7465726E616C3E000041
:10540000014610B518311EC928301EC030381EC8DC
:105410001EC010BDFFB583B01F460C460398FFF7B2
:105420001FFE039D039820352E79FFF7E9FF232EF9
:1054300027D0252E25D02B2E23D02068011D2160BA
:105440000468002C10D02046FAF795FF0546014667
:10545000204600F099F900280CD03D600C980021FE
:105460000160204607B0F0BD2DA233A1039800F0E3
:1054700097F853E032A230A1059B039800F090F812
:105480004CE0684600F0E6F82068011D21600668DF
:10549000002E2CD00398FFF7E3FD2879232829D08C
:1054A000252827D00398FFF7ABFF3046FAF763FFB4
:1054B00002463146684600F089F8401C1FD0039828
:1054C000FFF7CEFD28792B28DED00398FFF798FF51
:1054D0000199009800F058F9002816D0019838601A
:1054E0000C9801210160684600F0C5F8BAE70CA2EB
:1054F00011A106E02068011D21600268D9E715A20C
:1055000018A1039800F04CF805E00DA20AA1059B34
:10551000039800F045F8684600F090F80020A1E7F5
:105520004E554C4C20737472696E672061726775BA
:105530006D656E74000000003C617267733E000090
:10554000496E76616C6964205554462D3820257368
:10555000000000004F7574206F66206D656D6F72DE
:10556000790000003C696E7465726E616C3E0000EB
:1055700003604360C263816300218160C160016197
:1055800041618161C161016241628162C162016305
:1055900041630122416402648164704700207047C6
:1055A0000FB47CB5044609A801900D4608980090F8
:1055B000214618310EC9A06BFFF756FB2946A06B98
:1055C000FFF734FB7CBC08BC04B01847F7B50446B1
:1055D0008168406816460A1AB2421BD8164A9142A0
:1055E00027D8B21C25D85242904222D84D00711CB7
:1055F0004018854200D805462846FFF753FB0700B0
:1056000017D006CC083CFAF77AFE2068FFF742FB79
:105610002760A56003CC32464018083C0199FAF790
:105620006EFE60688019606022680021115408468F
:10563000FEBD0020C043FEBDFFFFFF7F10B5044646
:105640000068002801D0FFF725FB0020A060606003
:10565000206010BD70B50446002510206560A06074
:10566000FFF720FB2060002802D00570002070BDED
:105670000020C04370BD00220168026008467047E8
:105680000068704770B515460E46002811D0002DF1
:1056900001D0044603E0FFF71BFB040009D01020F3
:1056A000FFF700FB002805D0022101700121021D37
:1056B00052C270BD002D02D12046FFF7EBFA002048
:1056C00070BD802801D201207047014680393F29F2
:1056D00013D9C02811D0C1280FD042391D2901D8B3
:1056E000022070470146E0390F2901D80320704796
:1056F000F038042801D804207047002070470000CB
:1057000070B50378022904D0032905D0042906D0F6
:105710002EE0DB06DB0E04E01B071B0F01E05B073E
:105720005B0F0124055D2E46803E402E20D2AD0643
:105730009B01AD0E5B19641C8C42F3D3104883426D
:1057400016DC1B20C0020F4C181AA04210D90229E7
:1057500004D0032905D0042906D00BE0802B07DBF9
:1057600008E00120C00201E001200004834201DAC8
:10577000002070BD002A00D01360012070BD000021
:10578000FFFF1000FF070000F0B50E46074600249B
:1057900015E0385DFFF795FF050004D0012D0DD908
:1057A000301BA84201D20020F0BD38190022294642
:1057B000FFF7A6FF0028F7D06419641E641CB442EA
:1057C000E7D30120F0BD78B516460A00054617D08C
:1057D0002878FFF776FF040013D0012C09D09442FB
:1057E0000FD801466A462846FFF78AFF002808D0EE
:1057F00001E028780090002E01D000983060281930
:1058000078BD002078BD00061016000610160000B6
:105810000000000000000102030406070809000060
:105820000000010203040000000000000000002F3F
:10583000000000000700070000147F147F140024FC
:105840002A7F2A1200626408132300364955225029
:1058500000000503000000001C224100000041225E
:105860001C000014083E08140008083E0808000048
:1058700000A0600000080808080800006060000040
:10588000002010080402003E5149453E0000427FBE
:105890004000004261514946002141454B3100180A
:1058A00014127F10002745454539003C4A494930CC
:1058B0000001710905030036494949360006494986
:1058C000291E000036360000000056360000000891
:1058D000142241000014141414140000412214086E
:1058E00000020151090600324959513E007C121153
:1058F000127C007F49494936003E41414122007FE8
:105900004141221C007F49494941007F09090901A1
:10591000003E4149497A007F0808087F0000417F26
:105920004100002040413F01007F08142241007FD8
:1059300040404040007F020C027F007F0408107F3F
:10594000003E4141413E007F09090906003E4151A8
:10595000215E007F09192946004649494931000165
:10596000017F0101003F4040403F001F2040201FB9
:10597000003F4038403F006314081463000708707C
:10598000080700615149454300007F41410000552F
:105990002A552A55000041417F00000402010204FB
:1059A00000404040404000000102040000205454E8
:1059B0005478007F48444438003844444420003838
:1059C0004444487F00385454541800087E090102AA
:1059D0000018A4A4A47C007F080404780000447D7F
:1059E0004000004080847D00007F102844000000BB
:1059F000417F4000007C04180478007C080404788F
:105A000000384444443800FC24242418001824247A
:105A100018FC007C08040408004854545420000476
:105A20003F444020003C4040207C001C2040201C83
:105A3000003C4030403C004428102844001CA0A0FA
:105A4000A07C004464544C44141414141414000036
:105A50000000000000000000000000000000000046
:105A600000F80000000000000033300000000010CB
:105A70000C06100C0600000000000000000040C0F2
:105A80007840C0784000043F04043F0404000070E4
:105A900088FC08300000001820FF211E0000F008DC
:105AA000F000E018000000211C031E211E0000F081
:105AB0000888700000001E212324192721101016C9
:105AC0000E000000000000000000000000000000C8
:105AD00000E0180402000000000718204000000247
