:020000040800F2
:10000000F0090020B1010008D9250008551E00089C
:100010006D2400080D030008A9300008000000004E
:10002000000000000000000000000000032800089D
:10003000D903000800000000012800080528000876
:10004000CB010008CB010008CB010008CB01000860
:10005000CB010008CB010008CB010008CB01000850
:10006000CB010008CB010008CB010008CB01000840
:10007000CB010008CB010008CB010008CB01000830
:1000800011030008CB010008CB01000800000000AC
:10009000000000000000000000000000CB0100088C
:1000A000CB010008CB010008CB010008CB01000800
:1000B000CB010008CB010008CB010008CB010008F0
:1000C000CB010008CB010008CB010008CB010008E0
:1000D000CB010008412F0008592F00080000000044
:1000E000CB010008CB010008CB0100080000000094
:1000F000000000000000000000000000CB0100082C
:1001000000000000CB010008CB010008CB01000873
:1001100000000000000000000000000000000000DF
:10012000CB0100081D03000829030008CB010008CB
:10013000CB010008000000000000000000000000EB
:10014000000000000000000000000000CB010008DB
:10015000CB010008CB010008CB010008712F00087B
:10016000CB010008CB0100080000000000000000E7
:10017000000000000000000000000000000000007F
:1001800000000000CB01000800000000000000009B
:10019000CB010008CB010008DFF810D000F0A4F874
:1001A00000480047F9340008AFF30080F009002050
:1001B0000648804706480047FEE7FEE7FEE7FEE701
:1001C000FEE7FEE7FEE7FEE7FEE7FEE79928000808
:1001D000990100082DE9F05F0546002092469B46F4
:1001E00088460646814640241BE02846414647464D
:1001F000224600F069F853465A46C01A914110D37E
:1002000011461846224600F050F82D1A67EB0108F7
:100210004F4622460120002100F047F817EB000965
:100220004E41201EA4F10104DFDC484631462A4637
:100230004346BDE8F09FD2B201E000F8012B491E11
:10024000FBD270470022F6E710B513460A46044673
:100250001946FFF7F0FF204610BD30B505462A4687
:100260000B4612F8010B13F8014B08B1A042F8D06D
:100270001CB1002802D06D1CF1E7284630BD30B516
:100280000B46014600202022012409E021FA02F554
:100290009D4205D303FA02F5491B04FA02F52844EE
:1002A000151EA2F10102F1DC30BD202A04DB203A48
:1002B00000FA02F1002070479140C2F1200320FAB9
:1002C00003F3194390407047202A04DB203A21FAB7
:1002D00002F00021704721FA02F3D040C2F120025F
:1002E0009140084319467047064C074D06E0E06808
:1002F00040F0010394E8070098471034AC42F6D36D
:10030000FFF74EFF943F0008B43F0008FEE70000EF
:10031000014800F0BFB800002C020020014800F0A6
:10032000B9B800008C020020014800F0B3B800000A
:10033000CC01002001681823CAB2103AB2FBF3F2D4
:10034000054B6FF30901032A9B5CC36500D9091DA6
:1003500081650846704700005C37000810B501460B
:1003600000208B698A6A4FF0C07453B1B3F5005F07
:1003700015D072B1012A0CD0022A0AD0032A09D161
:1003800004E01AB1012A06D0022A03D1C96AC901C0
:1003900000D5012010BDC96AA142FAD010BD002AC3
:1003A000F7D0012AF2D0022AF3D0032AF3D010BDED
:1003B00030B50468256825F48025256004686360ED
:1003C0008368402B036803D099600068C26030BD29
:1003D0009A600068C16030BD704772B6FEE72DE9D3
:1003E000F0410446876D00F0BDFA064694F83500EA
:1003F0000025022806D08020606584F83450012052
:10040000BDE8F0812068016821F0160101602068D4
:10041000416921F080014161206C08B9A06C20B1D4
:100420002068016821F0080101602068016821F05E
:10043000010101600CE000F095FA801B052807D946
:1004400020206065032084F8350084F83450D7E715
:1004500020680068C007EED194F85C103F20884007
:10046000B860012084F8350084F834500020C7E7D4
:1004700090F83510022903D0802141650120704792
:10048000052180F835100068016821F00101016044
:10049000002070472DE9F84304464FF00009CDF8DD
:1004A000009063484FF41651A56D0068B0FBF1F75A
:1004B0002E6894F85C10082000FA01F131420FD048
:1004C00021680A6852070BD50A6822F004020A6004
:1004D00094F85C108840A860606D40F00100606591
:1004E00094F85C104FF0010808FA01F0304208D08F
:1004F00021684969090604D5A860606D40F00200D2
:10050000606594F85C1004208840304208D021686F
:100510000968890704D5A860606D40F00400606533
:1005200094F85C1010208840304218D02168096887
:10053000090714D5A86020680168490304D500683C
:10054000000308D5A16C07E00168C90503D4016860
:1005500021F008010160216C09B12046884794F818
:100560005C1020208840304231D021680968C906DB
:100570002DD5A86094F8350005282068016806D0BC
:10058000490347D5006800031DD4616C1CE021F0CD
:10059000160101602068416921F080014161206CF1
:1005A00008B9A06C20B12068016821F00801016041
:1005B00094F85C103F208840A86084F8358084F867
:1005C0003490216D1FE0E16B09B120468847606DD2
:1005D00000282BD0606DC00714D0052084F83500AA
:1005E0002068016821F0010101600098401C009022
:1005F000B84203D820680068C007F6D184F8358077
:1006000084F83490E16C002910D001B02046BDE898
:10061000F04308470168C905D5D4016821F01001ED
:10062000016084F8358084F83490CCE7BDE8F88325
:100630000C0000202DE9F041044600F093F9064635
:100640005CB1022084F83500002584F8345020681D
:10065000016821F0010101600DE00120BDE8F08199
:1006600000F080F9801B052805D920206065032053
:1006700084F83500F2E720680068C007F0D12268EE
:10068000116820480140D4E901031843D4E9033636
:100690003343184363691843A3691843E369184354
:1006A000236A18430843616A042903D1D4E90B1370
:1006B00019430843106020684069666A20F007010A
:1006C00030460E43012704280CD1A06A0643E06A95
:1006D00040B12046FFF742FE20B14020606584F81B
:1006E0003570BAE7206846612046FFF723FE94F88C
:1006F0005C203F2191408160656584F83570002061
:10070000ACE700003F8010F02DE9F0410446866D13
:1007100090F83400002501280DD0012084F8340021
:1007200094F835700020012F07D084F8340002259A
:100730002846BDE8F0810220FBE7022784F83570E7
:1007400060652046FFF734FE94F85C103F20884037
:10075000B0602068016841F016010160206C20B192
:100760002068016841F0080101602068016841F0DB
:1007700001010160DCE700002DE9F84FDFF8B8A1C6
:10078000002201240AF1040B03254FF00F090BF19D
:10079000040E00BF0B6804FA02F63340B34273D173
:1007A0000F7907F00307012F01D0022F16D18768B8
:1007B0004FEA420805FA08FC27EA0C07D1F80CC0FA
:1007C0000CFA08FC4CEA070CC0F808C04768B743AD
:1007D0000E79C6F3001696403E4346600E79F64306
:1007E000B6070DD0C768560005FA06FC27EA0C07C5
:1007F000D1F808C00CFA06FC4CEA070CC0F80CC093
:100800000E7906F00306022E10D1D60800EB8608FA
:10081000D8F8206057074FEAD76C09FA0CF7BE43A7
:100820000F6907FA0CF73743C8F8207006684FEADB
:10083000420C05FA0CF7BE430F7907F0030707FADD
:100840000CF7374307604E6816F4403F6DD03B4EBF
:10085000376847F480473760366822F0030706F4AC
:1008600080460096364E07EB060CDCF808689707C2
:100870003F0F09FA07F826EA0806DFF8C880404566
:1008800003D14FF000081EE04FE0DFF8BC80404588
:1008900002D14FF0010816E0DFF8B080404502D1E8
:1008A0004FF002080FE0DFF8A880404502D14FF07A
:1008B000030808E0DFF89C80404502D14FF00408AF
:1008C00001E04FF0070808FA07F848EA0608CCF8F4
:1008D0000888DAF800605746D1F804C09E435FEA02
:1008E000CC3C00D51E433E60DBF800605F46D1F88B
:1008F00004C09E435FEA8C3C00D51E433E60DEF898
:1009000000607746D1F804C09E435FEACC2C00D546
:100910001E433E60084F0C373E68D1F804C09E432A
:100920005FEA8C2C00D51E433E60521C102AFFF457
:1009300031AFBDE8F88F0000003C01404438024070
:100940000030014000000240000402400008024064
:10095000000C0240001002400AB181617047090496
:10096000FBE700000148806870470000000000209D
:1009700070B5040025D094F83D00002520B984F816
:100980003C50204600F04EF9242084F83D002068B9
:10099000016821F0010101602068016841F4004113
:1009A00001602068016821F40041016000F0A2FAB2
:1009B0004D4A6168914201D84C4900E04C49884257
:1009C00001D2012070BD4B492368B0FBF1F15E6894
:1009D00026F03F060E435E606368934206D94FF4EB
:1009E000967359434FF47A73B1FBF3F12368491CB2
:1009F0001E6A26F03F06314319626168914210D8A1
:100A00004900401EB0FBF1F2521CC2F30B02042A53
:100A100001D2042022E0B0FBF1F0401CC0F30B0037
:100A20001CE0A268F2B301EBC10303EB0116431E05
:100A3000B3FBF6F35B1C43F480431B0549D092B330
:100A400001EBC10202EB0111401EB0FBF1F0401CB2
:100A5000C0F30B0040F4804040F400402168CA69B4
:100A60004CF6FF739A431043C861D4E90710014361
:100A70002068026822F0C00211430160D4E903013A
:100A800001432068826848F2FF339A431143816032
:100A9000D4E9050108432168CA6822F0FF02104327
:100AA000C86001E00EE016E02068016841F0010135
:100AB00001602564202084F83D00256384F83E50C1
:100AC000002070BD01EB4106431EB3FBF6F35B1C37
:100AD000B3E70120C2E701EB4101401EB0FBF1F09A
:100AE000401CC0F30B00B7E7A086010080841E0005
:100AF00000093D0040420F002DE9F84F1F46904687
:100B00008A460446DDF82890FFF72CFF054694F846
:100B10003D0020287FD1192301224049204600951D
:100B200001F024FA002876D194F83C00012872D014
:100B3000012084F83C0020680168C90703D10168DE
:100B400041F0010101602068016821F40061016049
:100B5000212084F83D00102084F83E000026266401
:100B6000C4F824806785608D20852D48E0622B467F
:100B70004A465146204601F085F990B920684169FE
:100B80008069009036E02A464946204601F06DFA19
:100B900050B1206C042804D12068016841F4007130
:100BA00001600120BDE8F88F606A21680078086163
:100BB000606A401C6062618D491E6185218D491EFD
:100BC00089B2218522685369DB435B070BD451B19D
:100BD00000781061606A401C6062608D401E608514
:100BE000208D401E20852A464946204601F098F96E
:100BF0000028CED1208D0028C5D154F83D0B0168C6
:100C000041F400710160202004F81E09E677667740
:100C10000020C7E7FFE70220C4E700000200100041
:100C20000000FFFF10B586B0044614216846FFF7A8
:100C300009FB13492068884220D11248002102682C
:100C400042F002020260006800F002000590C0203D
:100C500000901220CDE901010320039004200490AC
:100C600069460948FFF788FD06481030016841F4DD
:100C700000110160006800F40010059006B010BD7E
:100C800000540040303802400004024002488168AD
:100C90000278114481607047000000200B4810B5B5
:100CA000016841F400710160016841F480610160F4
:100CB000016841F480710160032000F06FF80F209B
:100CC00000F006F800F024F8002010BD003C0240BF
:100CD00070B50D4D04464FF47A712878B1FBF0F0F1
:100CE0000A490968B1FBF0F000F018FB48B9102C74
:100CF00007D200222146501E00F030F800206C6020
:100D000070BD012070BD0000000000200C0000201C
:100D10000A4808B5016841F480410160006800F4A8
:100D2000804000900548001F016841F0805101603B
:100D3000006800F08050009008BD00004438024078
:100D4000002809DB00F01F020121914040098000CA
:100D500000F1E020C0F8001170470000F0B40E4B25
:100D60001B680C46C3F30223C3F10705042D00D909
:100D70000425191D072901D2002300E0DB1E0126EE
:100D800006FA05F1491E214099409E40761E164004
:100D90003143F0BC02F0AEB90CED00E0064900F0C2
:100DA000070208684FF6FF03184040EA0220034A92
:100DB00010430860704700000CED00E00000FA05E9
:100DC0002DE9F0470E46050065D0DFF81481D8F80C
:100DD0000000F7B200F00700B04207D288F80070B8
:100DE000D8F8000000F00700B04254D128683D4C0C
:100DF000810712D5400703D5206840F4E0502060F9
:100E00002878000703D5206840F4604020602068FF
:100E1000A96820F0F000084320602878C0072DD092
:100E2000304968680839012812D0022813D00328F5
:100E300011D00968890700292DDA216821F0030102
:100E400001432160FFF78EFD814641F2883A0EE0B2
:100E500009688903EFE709688901ECE7FFF782FD7C
:100E6000A0EB0901514502D90320BDE8F0872068B5
:100E7000696800F00C00B0EB810FEFD1D8F80010DA
:100E8000404601F00701B14207D90770006800F041
:100E90000700B04201D00120E7E72878400705D5D8
:100EA0002068E96820F4E0500843206028780007B3
:100EB00006D52068296920F4604040EAC10020601E
:100EC00000F038F82168084AC1F30311515CC840AA
:100ED0000649086006480068FFF7FAFE0020C4E7EC
:100EE000003C024008380240643700080C00002033
:100EF000040000200448054900680968044AC1F359
:100F00008221515CC84070470C0000200838024024
:100F1000743700080448054900680968044AC1F3A9
:100F20004231515CC84070470C0000200838024034
:100F300074370008154810B5006810F00C0214480A
:100F400013D01449042A0FD0082A0ED10F4C241FA5
:100F50002268236802F03F025B0207D52068C0F3D5
:100F60008810A0FB010106E0084610BD2168C1F30E
:100F70008811A1FB00010023FFF72CF92168C1F3C0
:100F80000141491C4900B0FBF1F010BD0838024096
:100F90000024F40040787D012DE9F84F04006ED064
:100FA0002078DFF84C93C007A9F104054AD009F175
:100FB00004000168C1F38101012908D00068C0F371
:100FC000810002280AD1D9F80000400206D528681D
:100FD000800337D560680028E1D033E06068B0F561
:100FE000803F10D0B0F5A02F286810D020F48030BA
:100FF0002860286820F4802028606068A8B1FFF786
:10100000B1FC06460DE0286840F48030F4E740F477
:1010100080202860F7E700BFFFF7A4FC801B64284E
:1010200073D828688003F7D50CE0FFF79BFC0646D1
:1010300005E000BFFFF796FC801B6428F0D8286805
:101040008003F7D42078DFF8AC8280074FF0000AE5
:101050003ED5A748001D016811F00C0F08D00068AC
:10106000C0F3810002280BD1D9F80000400207D458
:101070002868800716D5E068012800D112E033E126
:10108000E068B8B10120C8F80000FFF76BFC064625
:1010900005E000BFFFF766FC801B0228C0D8286867
:1010A0008007F7D52868216920F0F80040EAC100E0
:1010B00028600DE0C8F800A0FFF754FC064604E0E5
:1010C000FFF750FC801B02281FD828688007F7D440
:1010D0002078000722D5864F87486169703771B143
:1010E00001210160FFF73EFC064604E0FFF73AFCF1
:1010F000801B022809D838688007F7D50EE0C0F8B1
:1011000000A0FFF72FFC064605E082E0FFF72AFC6F
:10111000801B02287DD838688007F7D420784007E4
:1011200068D5DFF8CCB100270BF13C0BDBF80000F1
:10113000C0000BD4DBF8001041F08051CBF8001058
:10114000DBF80000012700F0805000906B4E306803
:10115000C00510D4306840F480703060FFF702FCA6
:10116000009005E0FFF7FEFB0099401A022850D8D6
:101170003068C005F6D55E4EA0686C3601280FD0E9
:101180000528306810D020F001003060306820F071
:1011900004003060A068B8B1FFF7E4FB00900FE0F6
:1011A000306840F00100F4E740F004003060F7E7F9
:1011B000FFF7D8FB0099411A41F28830814266D886
:1011C00030688007F4D50EE0FFF7CCFB009007E015
:1011D000FFF7C8FB0099411A41F28830814256D886
:1011E00030688007F4D42FB1DBF8001021F0805173
:1011F000CBF80010A069C8B33D49091D0968C1F3C7
:10120000810102294AD00228504607D0C8F8600060
:1012100000E03CE0FFF7A6FB04463BE04746C8F889
:101220006000FFF79FFB064605E000BFFFF79AFB53
:10123000801B02282BD828688001F7D4D4E9070145
:101240000843A16A2E4A490802EB0141626A41EA59
:101250008211084394F82C1040EA0161C9F800108B
:1012600001203866FFF77EFB044606E03EE000BF43
:10127000FFF778FB001B022809D828688001F7D502
:1012800034E000BFFFF76EFB001B022802D90320E9
:10129000BDE8F88F28688001F4D427E00128F7D052
:1012A000D9F80000E26900F4800191421CD1226A61
:1012B00000F03F01914217D147F6C071626A0140C8
:1012C000B1EB821F10D1A26A4FF0FF3300F440311E
:1012D00003EB5202B1EB024F06D194F82C1000F050
:1012E0007060B0EB016F01D00120D1E70020CFE7A3
:1012F0000438024000004742800E47420070004020
:101300000000FFFF4FF0E0210428086903D020F01F
:1013100004000861704740F00400FAE710B5401E71
:10132000B0F1807F01D3012010BD4FF0E024606157
:101330000F21601701F0DEFE0020A0610720206170
:10134000002010BD70B590F83C20012A2CD001245B
:1013500080F83C40022280F83D2003685A689D686E
:1013600022F070060A6832435A60104B02689A42B3
:101370000ED0B2F1804F0BD00D4B9A4208D00D4BDE
:101380009A4205D00C4B9A4202D00C4B9A4204D19F
:10139000496825F080031943916080F83D400021A1
:1013A00080F83C10084670BD022070BD000001406E
:1013B0000004004000080040000C004000400140D4
:1013C00010B5040003D094F83D0010B107E00120EF
:1013D00010BD002084F83C00204600F01FF80220D9
:1013E00084F83D00211D206801F05EFA012084F898
:1013F000460084F83E0084F83F0084F8400084F8FA
:10140000410084F8420084F8430084F8440084F8E2
:10141000450084F83D00002010BD000008B50068BC
:10142000B0F1804F08D10548016841F00101016029
:10143000006800F00100009008BD00004038024044
:1014400070B5044690F83C000025012817D001260D
:1014500084F83C60022084F83D002068826822F015
:10146000770222F47F4282600868502838D00DDC71
:1014700020284FD005DC90B3102811D14AE002207B
:1014800070BD302846D040280AD13BE060282FD0DC
:1014900070280DD0B0F5805F03D0B0F5005F12D09A
:1014A000012584F83D60002084F83C00284670BD8A
:1014B000CB68D1E90121206801F04FFA20688168EA
:1014C00041F0770109E0CB68D1E90121206801F002
:1014D00044FA2068816841F480418160E1E719E0C5
:1014E000CA684968206801F0EDFA5021206806E0DA
:1014F000CA684968206801F0F6FA6021206801F0A6
:1015000036FACEE7CA684968206801F0DBFA402164
:101510002068F4E7226801461046F0E7F0B587B08E
:10152000044614216846FEF78DFE216800252848F0
:101530000224284A284EB1F1804F27D0274B9942E8
:1015400022D1016841F001010160016801F001014F
:101550000591016841F0020101600068694600F0F0
:101560000200059080208DE83100CDE9035410463B
:10157000FFF702F90094CDE90145CDE9035469462E
:10158000304600BFFFF7F8F807B0F0BD016841F042
:1015900001010160016801F001010591016841F05C
:1015A000020101600068012700F002000590202080
:1015B0008DE83100CDE9035769461046FFF7DCF8A6
:1015C000B8028DE83100CDE9035769463046D9E7C6
:1015D0003038024000000240000402400004004095
:1015E00070B5044690F83C0000260D4601280FD047
:1015F000012084F83C006AB1042A1DD0082A2FD0AB
:101600000C2A3FD00126002084F83C00304670BDF3
:10161000022070BD206801F0B3F92068816941F0B3
:10162000080181612068816921F0040181612068DD
:1016300081692A69114311E0206801F0C9F9206825
:10164000816941F4006181612068816921F48061D0
:101650008161206881692A6941EA02218161D2E7BA
:10166000206801F0E1F92068C16941F00801C16119
:101670002068C16921F00401C1612068C1692A693B
:10168000114311E0206801F0FBF92068C16941F4C1
:101690000061C1612068C16921F48061C161206875
:1016A000C1692A6941EA0221C161ACE710B50400B1
:1016B00003D094F83D0010B107E0012010BD0020D8
:1016C00084F83C00204600F01FF8022084F83D001A
:1016D000211D206801F0E8F8012084F8460084F814
:1016E0003E0084F83F0084F8400084F8410084F80C
:1016F000420084F8430084F8440084F8450084F8EC
:101700003D00002010BD000008B500680649884271
:1017100008D10648016841F002010160006800F04C
:101720000200009008BD0000000400404038024064
:1017300010B50446022249B104290ED0082913D05D
:1017400094F84100012816D0012010BD94F83E0005
:101750000128F9D184F83E200FE094F83F000128D9
:10176000F2D184F83F2008E094F840000128EBD142
:1017700084F8402001E084F841200122206801F033
:10178000DFF812492068884203D1426C42F40042DB
:101790004264206888420ED0B0F1804F0BD00C49D3
:1017A000884208D00B49884205D00B49884202D0B4
:1017B0000A49884204D1816801F00701062903D053
:1017C000016841F001010160002010BD00000140EE
:1017D0000004004000080040000C004000400140B0
:1017E000704710B504460068406994F83D10C0F396
:1017F000C010212911D180B12068143050E8001F99
:1018000021F0800140E80012002AF5D1606B08B198
:10181000FEF7E5FD204601F01AFA2068406994F8C9
:101820003E10C0F38010222911D180B120681430FD
:1018300050E8001F21F0400140E80012002AF5D1D5
:10184000A06B08B1FEF7CBFD204601F0D9F90020CE
:1018500010BD7047F8B5016804460868CA684B694E
:1018600010F00F0F4FF0000559D003F0010602F4FD
:101870009077374365D0C10705D0D10503D5216CDA
:1018800041F001012164410705D5D90703D0216C3E
:1018900041F002012164810705D5D90703D0216CED
:1018A00041F004012164010707D502F02001314312
:1018B00003D0216C41F008012164216C00293AD049
:1018C000800604D5900602D5204601F0CEF92068A6
:1018D0004069216CC0F38010090700D460B3204632
:1018E00001F08EF920684069400621D52068143047
:1018F00050E8001F21F0400140E80012002AF5D115
:10190000A06BA8B16C490165A06BFEF7B1FD002882
:1019100011D0A06B016D01B0BDE8F040084783060F
:101920000FD593060DD52046BDE8F84001F09DB9CE
:101930002046FFF78EFFF8BD2046FFF78AFF25649B
:10194000F8BD266B2023012E79D1C60677D5D606A1
:1019500075D50868486800904869400640D5A16B75
:10196000086840680004000CEAD0A28D8242E7D9E2
:10197000E085C869B0F5807F2DD020680C3050E834
:10198000001F21F4807140E80012002AF5D1206880
:10199000143050E8001F21F0010140E80012002A35
:1019A000F5D12068143050E8001F21F0400140E8D4
:1019B0000012002AF5D184F83E30256320680C30EF
:1019C00050E8001F21F0100140E80012002AF5D174
:1019D000A06BFEF704FDA08DE18D401A81B229E0D5
:1019E000A08DE18D401A81B2E08D0028A8D0002999
:1019F000A6D020680C3050E8002F22F4907240E806
:101A00000026002EF5D12068143050E8002F22F077
:101A1000010240E80026002EF5D184F83E3025630F
:101A200020680C3050E8002F22F0100240E800231C
:101A3000002BF5D12046FFF7D3FEF8BDFFE70506E2
:101A40002BD5150629D594F83D002128F5D1A0689D
:101A5000B0F5805F01D12069B0B1206A411C2162DC
:101A6000216800784860E08C401E0004000CE0848F
:101A7000E3D12068C16821F08001C1602068C1689D
:101A800041F04001C160D8E7206A0088C0F3080037
:101A90004860206A801C2062E5E74006CDD55006EC
:101AA000CBD5CA68204622F04002CA6084F83D3097
:101AB00000F0CFF9C1E700000B2B000870B504005F
:101AC00004D094F83D00002510B106E0012070BD5F
:101AD00084F83C50204600F023F8242084F83D0090
:101AE0002068C16821F40051C160204601F01EF950
:101AF0002068016921F4904101612068416921F069
:101B00002A0141612068C16841F40051C160256427
:101B1000202084F83D0084F83E00002070BD0000C5
:101B20002DE9F04F87B0054614216846FEF78AFB81
:101B30008848DFF81C821438D5F800C00024DFF88C
:101B4000149202210323844A061501274FF0070B44
:101B5000C4454AD1D9F8008048F01008C9F800807F
:101B6000D9F800C00CF0100CCDF814C0D0F800C0AB
:101B70004CF0010CC0F800C00068894600F001007C
:101B800005900802CDE90009DA460DF1080C9846E7
:101B90008CE81005694693461046FEF7EDFDCDE949
:101BA00000690DF1080C69468CE880055846FEF77F
:101BB000E3FD6B4F694838607004C7E90104C7E969
:101BC00003467C61BC61FC613C6238467C62FEF786
:101BD00031FD08B1FEF701FCAF6300220121252091
:101BE000BD63FFF7BBF8252055E0DFF87881C445D9
:101BF00056D1DFF860C1ACF1040CDCF8008048F489
:101C00000038CCF80080DCF800C00CF4003CCDF8C3
:101C100014C0D0F800C04CF0010CC0F800C000683F
:101C20008A4600F0010005900420CDE9000ACDE9C4
:101C30000243D846CDF810B09946694693461046FF
:101C4000FEF79AFD0820CDE9000ACDE90279694640
:101C5000CDF810805846FEF78FFD414F424860375F
:101C600038604FF00060C7E90104C7E90346C014BB
:101C70007C61C7E906403C6238467C62FEF7DAFCCC
:101C800008B1FEF7AAFBAF63002201212620BD6345
:101C9000FFF764F82620FFF753F807B0BDE8F08F90
:101CA000DFF8C880C445F8D1D9F8008048F0200892
:101CB000C9F80080D9F800C00CF0200CCDF814C091
:101CC000D0F800C04CF0010CC0F800C000688A4693
:101CD00000F0010005904FF40060CDE9000ACDE965
:101CE00002434FF00808994669469346CDF81080A4
:101CF0001046FEF741FD4FF48050CDE9000ACDE9D2
:101D000002796946CDF810805846FEF735FD144F2C
:101D10001248C037183838608005C7E90104C7E9A0
:101D200003464FF480707C61C7E906403C62384648
:101D30007C62FEF77FFC08B1FEF74FFBAF63002229
:101D400011464720BD63FFF709F84720A3E70000CD
:101D5000001001404438024000000240406402404C
:101D6000CC01002000440040886002400014014083
:101D700090F83E30202B0ED159B152B190F83C3042
:101D8000012B08D0012380F83C300023036301F0CD
:101D900053B8012070470220704770477047000019
:101DA0002DE9F843044690F83D001F4616460D46BF
:101DB00020284CD1C5B1BEB194F83C00012846D0D2
:101DC000012084F83C004FF00008C4F84080212036
:101DD00084F83D00FEF7C6FDA6848146E684A0682F
:101DE000B0F5805F03D004E00120BDE8F8832069EE
:101DF00028B12E465FF0000584F83C800EE00026F6
:101E0000FAE78021204601F05FF8A0B9AEB116F8DC
:101E1000010B21684860E08C401EE084E08C4B465A
:101E20004FF0000200970028EBD14FF04001204610
:101E300001F04AF830B10320D7E735F8020BC0F3C0
:101E40000800E6E7202084F83D000020CDE70220CE
:101E5000CBE77047FEE701684A69D24352050FD4C9
:101E60006FF480624A61002140F8301F20224273E3
:101E70008173026942F0040202610173012070471C
:101E800000207047F8B50446C06A1E460D46174646
:101E9000082807D0012805D010F5803F02D0206B1C
:101EA000122804D12068016841F480710160134652
:101EB00000224FF001112046009600F057F840B183
:101EC00020680068C00502D54FF40070206403202C
:101ED000F8BD2069B0F5804F0ED00620216800EAD9
:101EE000D51040F0F000086133463A460B492046D1
:101EF00000F070F878B902E005F0FE0000E0E8B20A
:101F000021680861054933463A46891F204600F09A
:101F100061F80028DCD00120F8BD000008000100B5
:101F200070B516460D4604460DE02046FFF793FFB8
:101F300008B1012070BD681C05D0FEF713FD801BA1
:101F4000A84207D835B120684069C0434007ECD4A7
:101F5000002070BD002044F8300F20216173A07371
:101F6000216941F0200121612073E2E72DE9F0476A
:101F70001E4690460D460446C1F30747DDF8209003
:101F800008E0701C06D0FEF7EDFCA0EB0900B042A3
:101F90000FD876B12068012F18D0806925EA00009B
:101FA0000004000C14D000214145EAD00020BDE817
:101FB000F087002044F8300F20216173A07321695D
:101FC00041F02001216120730120F0E74069E5E73D
:101FD0000121E9E72DE9F0479A4691460E4604466D
:101FE00000254FF02008C1F3074725E0206840692D
:101FF000C043400514D42068016841F400710160B9
:1020000021686FF480604861256384F83D8084F81E
:102010003E50206C40F00400206484F83C501FE0E7
:10202000B9F1FF3F08D0FEF79DFCA0EB0A0149453E
:102030000CD8B9F1000F09D02068012F13D08069A6
:1020400026EA00000004000C0BD0CFE744F8305F14
:1020500084F80D80A573206940F02000206125736D
:102060000120BDE8F0874069EAE770B516460D46E5
:1020700004460DE02046FFF7EEFE08B1012070BDDA
:10208000681C05D0FEF76EFC801BA84207D835B14E
:1020900020684069C0430006ECD4002070BD0020D9
:1020A00044F8300F20216173A073216941F02001B1
:1020B00021612073E2E70000134810B50068C16891
:1020C00041F01001C160FF2210490F48FFF750FE98
:1020D0000F480068C16841F01001C1600B49FF2240
:1020E000FF310B48FFF744FE0A480068C16841F021
:1020F0001001C160FF2208490648FFF739FEBDE81C
:10210000104006A000F0D2BF00010020EC02002029
:102110004401002088010020EA0400205553415268
:102120005420696E6974206F6B0D0A00154808B55C
:10213000016841F400110160016801F4001100918F
:10214000016841F4800101600068002200F4800011
:10215000009011461020FEF701FE1020FEF7F0FD62
:10216000002211463920FEF7F9FD3920FEF7E8FD7F
:10217000002211463A20FEF7F1FDBDE808403A2062
:10218000FEF7DEBD303802402DE9F04387B0142160
:102190006846FEF757F82E480025016841F0040113
:1021A0000160016801F004010591016841F08001BE
:1021B0000160016801F080010591016841F00101B1
:1021C0000160016801F001010591016841F002011F
:1021D00001600068012200F002001E4E54030590C9
:1021E00021463046FEF7B8FBDFF86C800022502114
:1021F0004046FEF7B1FBDFF864904FF2050700227E
:1022000039464846FEF7A8FB00940124694630464B
:102210000194CDE90245FEF7AFFACDE900456946E4
:1022200040460294FEF7A8FA5020022603958DE856
:10223000510069464046FEF79FFA00970395CDE9A5
:10224000014669464846FEF797FA07B0BDE8F083B5
:102250003038024000080240000002400004024002
:102260000D4810B50B4901600C49416000214FF445
:1022700080428160C0E9031241618161C1610162F4
:10228000FEF776FB002803D0BDE81040FEF7A5B8A6
:1022900010BD0000005400401C000020A08601007A
:1022A00010B58EB000240794089409940A940B94F6
:1022B0001C2168460C94FDF7C5FF21484FF0804172
:1022C000016040F2E731C0E90114C0E90314846100
:1022D000FFF776F808B1FEF780F84FF480500790CA
:1022E00007A91748FFF7ACF808B1FEF776F81448CD
:1022F000FFF7DCF908B1FEF770F80B940BA9104852
:102300000C94FFF71FF808B1FEF767F86020CDE9DD
:10231000000402940022694609480494FFF760F91A
:1023200008B1FEF75AF8082269460548FFF758F940
:1023300008B1FEF752F80248FFF7F0F80EB010BDF2
:102340007000002010B58AB0002407941C21684654
:102350000894FDF777FF1A481849016040F2E73109
:10236000C0E90114C0E903148461FFF79FF908B1C3
:10237000FEF733F8079407A911480894FEF7E2FF27
:1023800008B1FEF72AF86020CDE900040294042287
:1023900069460B480494FFF723F908B1FEF71DF8CE
:1023A0000C2269460648FFF71BF908B1FEF715F83D
:1023B0000348FFF7B3F80AB010BD00000004004066
:1023C000B80000200C4810B50A4901604FF4E13113
:1023D0004160002181600C22C160C0E9041281616A
:1023E000C161FFF76BFB002803D0BDE81040FDF78B
:1023F000F4BF10BD00100140000100200C4810B5D2
:102400000A4901604FF4E1314160002181600C22F2
:10241000C160C0E904128161C161FFF74FFB002870
:1024200003D0BDE81040FDF7D8BF10BD0044004008
:10243000440100200C4810B50A4901604FF4E13115
:102440004160002181600C22C160C0E904128161F9
:10245000C161FFF733FB002803D0BDE81040FDF752
:10246000BCBF10BD0014014088010020FEE7000041
:1024700070B500210D48FFF75BF90C4D002428686A
:10248000446304210A48FFF753F9094E3068846316
:102490000C213046FFF74CF93068046408212846C7
:1024A000FFF746F92868C46370BD00007000002083
:1024B000B80000202DE9F0411446024600254248AC
:1024C000DFF808816426012A0BD0414F022A27D069
:1024D0004048032A41D0042A18D1B1B301295AD067
:1024E0005DE011B1012902D005E0002200E00122E7
:1024F0001021FEF731FA012C0AD0002C06D1002160
:102500003248FFF715F9D8F800004563BDE8F081BF
:1025100000212E48FFF70CF9D8F800004663F5E7D4
:1025200011B1012902D005E0002200E00122402182
:10253000FEF712FA012C09D0002CE7D1042124481F
:10254000FFF7F6F838688563E0E722E004212048C9
:10255000FFF7EEF838688663D8E711B1012902D099
:1025600005E0002200E001220121FEF7F5F9012C2F
:1025700008D0002CCAD10C211548FFF7D9F83868CB
:102580000564C3E70C211248FFF7D2F838680664E7
:10259000BCE7002200E001220421FEF7DDF9012C56
:1025A00009D0002CB2D108210848FFF7C1F8D8F8AB
:1025B0000000C563AAE708210448FFF7B9F8D8F876
:1025C0000000C663A2E70000000002407000002087
:1025D000B800002000040240FEE770B5002404F1BA
:1025E000B000C0B200F0E8F8002000F0E5F81020DC
:1025F00000F0E2F80025002000F0F0F86D1CEDB2CC
:10260000802DF8D3641CE4B2082CE8D370BD10B55B
:102610004FF4FA7000F03EFFAE2000F0CDF800203D
:1026200000F0CAF8102000F0C7F8402000F0C4F80D
:10263000812000F0C1F8FF2000F0BEF8A12000F0DA
:10264000BBF8C82000F0B8F8A62000F0B5F8A82024
:1026500000F0B2F83F2000F0AFF8D32000F0ACF863
:10266000002000F0A9F8D52000F0A6F8802000F0A6
:10267000A3F8D92000F0A0F8F12000F09DF8DA20AE
:1026800000F09AF8122000F097F8DB2000F094F8A0
:10269000402000F091F8202000F08EF8022000F099
:1026A0008BF88D2000F088F8142000F085F8A42025
:1026B00000F082F8A62000F07FF8AF2000F07CF850
:1026C000FFF78BFF0021BDE810400846AFF3008004
:1026D00010B50446B031C8B200F06EF8102040EAE0
:1026E000141000F069F804F00F00BDE8104040F04D
:1026F000010000F061B800002DE9F041203A00240B
:102700000D468046D6B27F2803D900204D1C804656
:10271000EDB2102B29460FD0FFF7DAFF164906EB72
:10272000460001EB4005285D00F058F8641CE4B257
:10273000062CF8D3BDE8F081FFF7CAFF0F4F00BFAA
:1027400004EB0610385C00F049F8641CE4B2082C75
:10275000F6D36D1CE9B24046FFF7BAFF5FF0000404
:1027600004EB06103844007A00F038F8641CE4B238
:10277000082CF5D3DEE700007C370008A4390008F8
:102780002DE9F041984617460E46044600250DE017
:10279000434631462046FFF7AFFF0834E4B2782CB9
:1027A00002D90024B61CF6B26D1CEDB27A5D002A87
:1027B000EED1BDE8F08100001CB500218DF80410B9
:1027C0008DF805004FF6FF700090022301AA7821D2
:1027D0000148FEF791F91CBD1C0000201CB54021EA
:1027E0008DF804108DF805004FF6FF70009002235D
:1027F00001AA78210148FEF77FF91CBD1C000020CA
:1028000070477047FEF742BA30B593B03021684642
:10281000FDF718FD14210CA8FDF714FD1C48002439
:10282000016841F080510160006800F08050119013
:102830001848016841F4404101600068022500F435
:1028400040401190012003901020049000950695BF
:102850000820CDE907406420CDE9090504200B904C
:102860006846FEF799FB08B172B6FEE70F20CDE986
:102870000C054FF48050CDE90E4003210CA81094B4
:10288000FEF79EFA002801D072B6FEE713B030BD05
:1028900040380240007000400248016841F4700175
:1028A0000160704788ED00E0F0B502681D4B1E4CDA
:1028B0009F031E4D1E4E984207D0B84205D0A0423D
:1028C00003D0A84201D0B04204D122F0700C4A6873
:1028D00042EA0C02984210D0B8420ED0A0420CD06E
:1028E000A8420AD0B04208D0124CA04205D0124CE7
:1028F000A04202D0114CA04203D122F44074CA6815
:1029000022434C6922F08002224302608A68C2623C
:102910000A688262984201D109690163012141611B
:10292000F0BD00000000014000040040000800402D
:10293000000C0040004001400044014000480140BC
:1029400010B501F01F030121046A99408C43046211
:10295000016A9A401143016210BD10B5846842EAD1
:10296000032224F47F440A432243826010BD82681C
:1029700022F070020A4342F00701816070470000B4
:1029800030B5026A22F001020262026A4368846979
:1029900024F073050C682C4322F002058A682A4350
:1029A0000A4DA8420BD122F00805CA6823F44073EF
:1029B0002A434D6922F004021D438B692B43436077
:1029C000846149684163026230BD0000000001403B
:1029D00030B5026A22F010020262026A436884691A
:1029E0000D6824F4E64444EA05248D6822F02002B0
:1029F00042EA05120B4DA8420ED1CD6822F08002AA
:102A000042EA05124D6923F4406343EA85038D6968
:102A100022F0400243EA8503436084614968816390
:102A2000026230BD0000014030B5026A22F48072BB
:102A30000262036A4268C46923F4007324F07305D8
:102A40000C682C438D6843EA05230C4DA8420ED137
:102A5000CD6823F4006343EA05234D6922F4405214
:102A600042EA05128D6923F4806342EA051242604E
:102A7000C4614968C163036230BD000000000140C9
:102A800030B5026A22F480520262046A4268C36965
:102A90000D6823F4E64343EA05238D6824F40054CB
:102AA00044EA0534064DA84204D14D6922F480421F
:102AB00042EA85124260C36149680164046230BD24
:102AC0000000014010B5036A046A24F001040462A6
:102AD000846924F0F00444EA021423F00A020A4351
:102AE0008461026210BD10B5036A23F01003036213
:102AF0008369046A23F4704343EA023224F0A0039A
:102B000043EA01118261016210BD10B5806B0021A2
:102B1000C185C184FEF79DFE10BD70B5846B206831
:102B2000406994F83D10C0F3C0100025212904D15C
:102B300018B1E584204600F08AF82068406994F8CE
:102B40003E10C0F38010222904D118B1E58520463B
:102B500000F056F8206C40F0100020642046FEF78C
:102B600078FE70BD10B50146806B09680968C9051B
:102B70002FD40021C18501680C3151E8002F22F4C7
:102B8000807241E80023002BF5D10168143151E82F
:102B9000002F22F0010241E80023002BF5D101684B
:102BA000143151E8002F22F0400241E80023002BAD
:102BB000F5D1202180F83E10016B012909D101686F
:102BC0000C3151E8002F22F0100241E80023002BC5
:102BD000F5D1016B012902D0FFF7DFF810BD818D1F
:102BE000FEF7FEFD10BD10B5806B016B012902D010
:102BF000FFF7D4F810BD818D4908FEF7F1FD10BD37
:102C000001680C3151E8002F22F4907241E8002352
:102C1000002BF5D10168143151E8002F22F0010298
:102C200041E80023002BF5D1016B012909D101688E
:102C30000C3151E8002F22F0100241E80023002B54
:102C4000F5D1202180F83E10002101637047016812
:102C50000C3151E8002F22F0C00241E80023002B84
:102C6000F5D1202180F83D10704708B590F83E104E
:102C7000222901D0022008BD82684FF480539A4275
:102C800001D1016921B1816A9A421BD04AB10AE09F
:102C90000268816A5268C2F308020A80816A891C4C
:102CA00008E0026972B10268526802F07F020A709D
:102CB000816A491C8162C18D491E0904090CC185C4
:102CC00003D019E002685268F1E70168CA6822F08F
:102CD0002002CA600168CA6822F48072CA60016872
:102CE0004A6922F001024A61202180F83E10016BFE
:102CF000012903D0FFF751F8002008BD002101632E
:102D000001680C3151E8002F22F0100241E8002345
:102D1000002BF5D101680A68D20602D50A68496815
:102D20000091818DFEF75CFDE6E7000070B504467A
:102D300000680169E26821F4405111430161216991
:102D4000A068E26908436169114308432168CA68C1
:102D500049F20C639A430243CA6020684169A26940
:102D600021F440711143416131492068884202D009
:102D70003049884202D1FEF7CDF801E0FEF7BAF8FB
:102D8000E2690023192164253226B2F5004F6268FA
:102D900028D0A0FB0101930F9200FDF71BFA01461A
:102DA000B0FBF5F06FF01802504301EB800006EB2A
:102DB0000010B0FBF5F000F0F002B1FBF5F002EB13
:102DC0000012B1FBF5F06FF01803584301EB8000DF
:102DD00006EB0010B0FBF5F000F00F002168104486
:102DE000886070BDA0FB010192185B41FDF7F2F90C
:102DF0000146B0FBF5F00201B1FBF5F06FF01803EE
:102E0000584301EB800006EBC000B0FBF5F000F08A
:102E1000F80002EB4002B1FBF5F0584301EB8000F3
:102E200006EBC000B0FBF5F000F00700D6E70000AD
:102E3000001001400014014038B5816282850025F0
:102E4000134604460564222084F83E00A26B1B480A
:102E5000D063A26B1A481064A26B1A48D064A06BAE
:102E60000A4605652168A06B091DFDF74DFC206829
:102E700001684068009084F83C5020680C3050E8AD
:102E8000001F41F4807140E80012002AF5D120684B
:102E9000143050E8001F41F0010140E80012002A00
:102EA000F5D12068143050E8001F41F0400140E89F
:102EB0000012002AF5D1002038BD0000652B000863
:102EC000E72B00081B2B00082DE9F0419846174618
:102ED0000E460446069D27E0681C25D02DB1FDF75F
:102EE00041FDA0EB0800A8421ED920680C3050E834
:102EF000001F21F4D07140E80012002AF5D12068AB
:102F0000143050E8001F21F0010140E80012002AAF
:102F1000F5D1202084F83D0084F83E00002084F89C
:102F20003C000320BDE8F0812068006836EA00001C
:102F300004D00020B842CFD00020F3E70120F9E709
:102F400010B50448FEF786FCBDE81040014800F0CB
:102F50001BB800000001002010B50448FEF77AFC01
:102F6000BDE81040014800F00FB800004401002007
:102F700010B50448FEF76EFCBDE81040014800F0B3
:102F800003B8000088010020F8B53B483B49012602
:102F9000006800253A4C88421FD10168C943C90620
:102FA0001BD40168406800903348FEF71AFC207873
:102FB000012800D02670E07800B1E5703148006843
:102FC0004068C0F1FF00C1B2E1702F48FDF73AF947
:102FD000FF222D492848FEF7CBFE2C482C490068DB
:102FE000884224D10168C943C90620D401684068D9
:102FF00000902648FEF7F5FB6078012800D0667047
:10300000E07800B1E5702348006840681E49C0F1CF
:10301000FF00C2B2E2704FF40073FF311648FEF7B2
:10302000BFFE1949FF22FF311848FEF7A1FE1A48DA
:103030001A49006888421DD10168C943C90619D4DC
:103040000168406800901448FEF7CBFBA078012887
:1030500000D0A670E07800B1E570114800684068C3
:10306000FF22C0F1FF00E070BDE8F8400D490A48BA
:10307000FEF77EBEF8BD00000001002000100140F8
:1030800014000020CC010020EC02002044010020AC
:10309000004400402C020020880100200014014060
:1030A0008C020020EA040020FEE700000FB4054B6C
:1030B00010B503A9044A029800F03CF810BC5DF872
:1030C00014FB0000E5340008180000200FB4084B82
:1030D00010B504A902AA039800F02CF8044602A92E
:1030E000002000F0C8F9204610BC5DF814FB000079
:1030F000773400080907090E002804DB00F1E020FE
:1031000080F80014704700F00F0000F1E02080F814
:10311000141D704702E008C8121F08C1002AFAD126
:1031200070477047002001E001C1121F002AFBD147
:10313000704700002DE9FF4F8BB0884605460026FA
:1031400006E025280BD0DDE90D1290476D1C761C9A
:1031500028780028F5D10FB03046BDE8F08F002464
:10316000A146A2460122AE4900E0044315F8013F02
:10317000203B02FA03F00842F7D128782A2810D021
:103180006FF02F022878A0F13001092915D809EB3A
:10319000890102EB410144F0020400EB01096D1CBE
:1031A000F0E758F8041B5FEA010903D544F4005422
:1031B000C9F1000944F002046D1C28782E2817D1AB
:1031C00015F8010F44F004042A280ED06FF02F02E6
:1031D0002878A0F1300109290AD80AEB8A0102EB0C
:1031E000410100EB010A6D1CF2E758F804AB6D1CBD
:1031F00028786C280FD006DC4C2817D068280DD012
:103200006A2814D104E0742810D07A280FD10DE078
:1032100044F400140AE044F4801401E044F440143F
:103220006978814202D104F580146D1C6D1C2878E8
:10323000692865D006DC00288DD0632827D0642853
:1032400006D15DE06E2808D073282AD0752877D083
:10325000DDE90D129047761CE0E0C4F3025002282D
:1032600009D003280DD0D8F8001004280DD00E6026
:1032700008F10408D2E0D8F80010F217C1E90062A2
:10328000F6E7D8F800100E80F2E70E70F0E718F8B5
:10329000041B8DF8001000208DF80100EB46012082
:1032A00003E058F804BB4FF0FF3061074FF0000710
:1032B00001D40AE07F1C57450DDA8742FADB1BF880
:1032C00007100029F6D106E07F1C8742FCDB1BF8C3
:1032D00007100029F8D1DDE90D23A9EB070081468D
:1032E000214600F0B1F83044C61904E0DDE90D12C2
:1032F0001BF8010B90477F1EF8D22146484688E014
:1033000058F8040BC4F302514FF00A0B032900D103
:1033100000B2042900D140B2002802DA40422D2137
:1033200002E0210505D52B218DF82410012104E0B0
:1033300006E0E10710D02021F6E708AF089113E07E
:1033400058F8040BC4F302514FF00A0B032900D1C3
:1033500080B2042900D1C0B20021EEE75946FCF743
:103360008EFF303107F8011D0028F7D1ADEB0700C3
:1033700000F1200B600702D524F4803401E04FF007
:10338000010ADA4502DDAAEB0B0000E000208246CC
:1033900000EB0B0108980144A9EB01000A90E0033F
:1033A00006D4DDE90D2321460A9800F04DF80644C5
:1033B0004FF0000908E009A911F80900DDE90D1234
:1033C000904709F10109761C08998945F3DBE00370
:1033D0000CD5DDE90D2321460A9800F035F80644A6
:1033E00004E0DDE90D1230209047761CBAF10001AF
:1033F000AAF1010AF5DC05E0DDE90D1217F8010B71
:103400009047761CBBF10001ABF1010BF4DC0A988C
:103410002146DDE90D2300F005F806446D1C97E612
:10342000092801002DE9F041044600251E461746F3
:10343000880404D405E039462020B0476D1C641E82
:10344000F9D52846BDE8F0812DE9F0410446002574
:103450001E469046C80301D5302700E02027880487
:1034600004D505E041463846B0476D1C641EF9D5C9
:103470002846BDE8F0810A68531C0B601070704745
:1034800010B504460420FDF73DFF0148046010BD5F
:103490001000002070B5054600244FF47A7603E052
:1034A000304600F005F8641CAC42F9D370BD000052
:1034B00070B54FF0E024002265690949A3690968E5
:1034C0004843A1699942FCD002D2A3EB010302E078
:1034D000A5EB010633441A440B468242F1D370BD7A
:1034E0001000002003490A685206FCD5C2B24A60A7
:1034F0007047000000100140A2B002254FF0000903
:103500002E462C46C8464F46FDF7C8FBFFF77CF910
:10351000FEF73AFEFEF70AFEFEF754FFFEF76EFFD7
:10352000FEF79EFEFEF786FFFEF7BAFEFEF70AFFE5
:10353000FEF79EFF6420FFF7A3FFFEF7BDFDFFF738
:1035400066F80021102368A20846FFF719F9DFF892
:10355000ACA141F2883B00BF9AF8001001292FD19D
:1035600000218AF8001066A16748FCF776FE08B1D2
:10357000002521E065A16448FCF76FFE08B1012534
:103580001AE064A16048FCF768FE08B1002613E069
:1035900062A15D48FCF761FE08B101260CE061A163
:1035A0005948FCF75AFE08B1002405E05FA15648CF
:1035B000FCF753FE00B10124FF215348FCF742FE03
:1035C00033462A465BA101A80094FFF77FFD102334
:1035D00001AA02210020FFF7D3F8802101A8FCF7FF
:1035E00031FE43464A4658A101A80097FFF76EFDF9
:1035F000102301AA04210020FFF7C2F8802101A8AE
:10360000FCF720FE15B1012D10D022E0B9F1000F1A
:103610001ED001224FF0000911461046FEF74AFF66
:103620005846FFF737FF002201210EE0B9F1010FE4
:103630000ED04FF001094A4600214846FEF73AFFF6
:103640005846FFF727FF002211460120FEF732FF00
:10365000022516B1012E10D022E0B8F1000F1ED0C5
:1036600001224FF0000811460220FEF723FF5846C2
:10367000FFF710FF002201210EE0B8F1010F0ED07C
:103680004FF00108424600210220FEF713FF584682
:10369000FFF700FF002211460220FEF70BFF022673
:1036A000A4B1012C7FF458AF012F0DD001273A4669
:1036B00000210320FEF7FEFE5846FFF7EBFE002236
:1036C00011460320FEF7F6FE022445E7002FFBD04B
:1036D0000122002711460320FEF7ECFE5846FFF7B3
:1036E000D9FE00220121ECE72020202020436F6E2C
:1036F00074726F6C20202020000000001600002053
:103700006E63313000000000EA0400206E63313146
:10371000000000006E633230000000006E63323142
:10372000000000006E633330000000006E63333130
:10373000000000004E313A2564204E323A256420C4
:103740004E333A256420200053313A256420533209
:103750003A25642053333A256420200000061016D1
:103760000006101600000000000000000102030423
:103770000607080900000000010203040000000021
:1037800000000000002F00000000070007000014E8
:103790007F147F1400242A7F2A12006264081323F6
:1037A00000364955225000000503000000001C228D
:1037B0004100000041221C000014083E08140008CB
:1037C000083E0808000000A060000008080808087B
:1037D000000060600000002010080402003E514913
:1037E000453E0000427F40000042615149460021B1
:1037F00041454B31001814127F10002745454539CB
:10380000003C4A4949300001710905030036494925
:10381000493600064949291E0000363600000000DE
:103820005636000000081422410000141414141429
:1038300000004122140800020151090600324959D2
:10384000513E007C1211127C007F49494936003EEE
:1038500041414122007F4141221C007F49494941A9
:10386000007F09090901003E4149497A007F0808A3
:10387000087F0000417F4100002040413F01007F60
:1038800008142241007F40404040007F020C027F2C
:10389000007F0408107F003E4141413E007F09093E
:1038A0000906003E4151215E007F09192946004664
:1038B000494949310001017F0101003F4040403F3B
:1038C000001F2040201F003F4038403F0063140885
:1038D0001463000708700807006151494543000060
:1038E0007F41410000552A552A55000041417F0083
:1038F0000004020102040040404040400000010278
:103900000400002054545478007F48444438003860
:103910004444442000384444487F003854545418E8
:1039200000087E0901020018A4A4A47C007F0804FA
:1039300004780000447D4000004080847D00007FCA
:10394000102844000000417F4000007C04180478E7
:10395000007C0804047800384444443800FC2424E3
:1039600024180018242418FC007C080404080048CB
:103970005454542000043F444020003C4040207CEC
:10398000001C2040201C003C4030403C00442810DB
:103990002844001CA0A0A07C004464544C4414148F
:1039A00014141414000000000000000000000000C7
:1039B00000000000000000F80000000000000033DC
:1039C0003000000000100C06100C06000000000083
:1039D0000000000040C07840C0784000043F04046C
:1039E0003F040400007088FC08300000001820FF2D
:1039F000211E0000F008F000E018000000211C0368
:103A00001E211E0000F00888700000001E212324E3
:103A10001927211010160E00000000000000000001
:103A200000000000000000E0180402000000000791
:103A30001820400000020418E00000000040201898
:103A400007000000404080F0804040000202010F6B
:103A500001020200000000F0000000000101011F4F
:103A600001010100000000000000000080B07000B3
:103A70000000000000000000000000000001010143
:103A800001010101000000000000000000303000D2
:103A900000000000000000008060180400601806AC
:103AA0000100000000E010080810E000000F1020E6
:103AB00020100F00001010F8000000000020203F30
:103AC00020200000007008080888700000302824BA
:103AD000222130000030088888483000001820205B
:103AE00020110E000000C02010F800000007042480
:103AF000243F240000F808888808080000192120C5
:103B000020110E0000E0108888180000000F11201E
:103B100020110E0000380808C83808000000003FD7
:103B2000000000000070880808887000001C222136
:103B300021221C0000E010080810E00000003122E3
:103B400022110F00000000C0C00000000000003083
:103B500030000000000000800000000000008060D5
:103B60000000000000008040201008000001020456
:103B7000081020004040404040404000040404043D
:103B800004040400000810204080000000201008F9
:103B900004020100007048080808F000000000302E
:103BA00036010000C030C828E810E00007182724BC
:103BB00023140B000000C038E0000000203C23026A
:103BC0000227382008F8888888700000203F2020CD
:103BD00020110E00C03008080808380007182020FF
:103BE0002010080008F808080810E000203F2020F6
:103BF00020100F0008F88888E8081000203F2020D7
:103C00002320180008F88888E8081000203F2000CA
:103C100003000000C0300808083800000718202002
:103C2000221E020008F808000008F808203F2101C1
:103C300001213F20000808F8080800000020203F6C
:103C40002020000000000808F8080800C0808080DC
:103C50007F00000008F888C028180800203F2001D5
:103C60002638200008F8080000000000203F20202F
:103C70002020300008F8F800F8F80800203F003F46
:103C8000003F200008F830C00008F808203F20005E
:103C900007183F00E01008080810E0000F1020206F
:103CA00020100F0008F808080808F000203F210144
:103CB00001010000E01008080810E0000F1824249B
:103CC00038504F0008F8888888887000203F20000E
:103CD000030C3020007088080808380000382021C4
:103CE00021221C00180808F8080818000000203FCE
:103CF0002000000008F808000008F808001F202035
:103D000020201F000878880000C838080000073805
:103D10000E010000F80800F80008F800033C070056
:103D2000073C0300081868808068180820302C03BE
:103D3000032C30200838C800C83808000000203F95
:103D40002000000010080808C83808002038262184
:103D500020201800000000FE020202000000007F88
:103D600040404000000C30C0000000000000000196
:103D70000638C00000020202FE0000000040404081
:103D80007F000000000004020202040000000000A6
:103D90000000000000000000000000008080808023
:103DA000808080800002020400000000000000000B
:103DB00000000000000080808080000000192422A4
:103DC00022223F2008F8008080000000003F1120E0
:103DD00020110E000000008080800000000E1120E5
:103DE00020201100000000808088F800000E1120C3
:103DF00020103F200000808080800000001F2222D1
:103E000022221300008080F0888888180020203F3C
:103E1000202000000000808080808000006B94944F
:103E20009493600008F8008080800000203F21000B
:103E300000203F2000809898000000000020203FD4
:103E400020200000000000809898000000C08080C2
:103E5000807F000008F8000080808000203F24025E
:103E60002D302000000808F8000000000020203F4E
:103E7000202000008080808080808000203F200003
:103E80003F20003F8080008080800000203F210094
:103E900000203F200000808080800000001F202044
:103EA00020201F00808000808000000080FFA12073
:103EB00020110E000000008080808000000E112084
:103EC00020A0FF80808080008080800020203F2113
:103ED00020000100000080808080800000332424C6
:103EE00024241900008080E0808000000000001F72
:103EF000202000008080000000808000001F202023
:103F000020103F20808080000080808000010E30E3
:103F10000806010080800080008080800F300C0344
:103F20000C300F0000808000808080000020312E47
:103F30000E312000808080000080808080818E7023
:103F40001806010000808080808080000021302CD5
:103F50002221300000000000807C020200000000EE
:103F6000003F404000000000FF0000000000000093
:103F7000FF0000000002027C800000000040403F83
:103F8000000000000006010102020404000000001D
:103F900000000000B43F0008000000201C000000EA
:103FA00014310008D03F00081C000020D409000094
:103FB0002431000801000000100000000000000093
:103FC0000024F400000000000000000000000000D9
:040000050800019955
:00000001FF
