:020000040800F2
:10000000082D0020B1010008C52C000805260008B5
:10001000B12A0008590F0008493600080000000006
:10002000000000000000000000000000952F000804
:100030002510000800000000ED2E0008093000081F
:10004000CB010008CB010008CB010008CB01000860
:10005000CB010008CB010008CB010008CB01000850
:10006000CB010008CB010008CB010008CB01000840
:10007000CB010008CB010008CB010008CB01000830
:100080005D0F0008CB010008CB0100080000000054
:10009000000000000000000000000000CB0100088C
:1000A000CB010008CB010008CB010008CB01000800
:1000B000CB010008CB010008CB010008CB010008F0
:1000C000CB010008CB010008CB010008CB010008E0
:1000D000CB010008E1340008F934000800000000FA
:1000E000CB010008CB010008CB0100080000000094
:1000F000000000000000000000000000CB0100082C
:1001000000000000CB010008CB010008CB01000873
:1001100000000000000000000000000000000000DF
:10012000CB010008690F0008750F0008CB0100081B
:10013000CB010008000000000000000000000000EB
:10014000000000000000000000000000CB010008DB
:10015000CB010008CB010008CB01000811350008D5
:10016000CB010008CB0100080000000000000000E7
:10017000000000000000000000000000000000007F
:1001800000000000CB01000800000000000000009B
:10019000CB010008CB010008DFF810D000F00CFC08
:1001A00000480047D5580008AFF30080082D002014
:1001B0000648804706480047FEE7FEE7FEE7FEE701
:1001C000FEE7FEE7FEE7FEE7FEE7FEE79D300008FC
:1001D0009901000830B50B46014600202022012479
:1001E00009E021FA02F59D4205D303FA02F5491B05
:1001F00004FA02F52844151EA2F10102F1DC30BD1B
:100200002DE9F05F0546002092469B46884606464B
:10021000814640241BE0284641464746224600F0DE
:100220000EF953465A46C01A914110D3114618464A
:10023000224600F0F5F82D1A67EB01084F462246DA
:100240000120002100F0ECF817EB00094E41201EC0
:10025000A4F10104DFDC484631462A464346BDE8A6
:10026000F09F2DE9FE43994615468846074601ACA6
:10027000022942D3002D40D000200290A8F10100B5
:100280004FF0FF36009022E000FB057201FB057085
:1002900011464A469047002805DC54F826003044B1
:1002A00044F8260013E060682A4600FB057154F804
:1002B000040C00FB057007E00B7890F800C001F813
:1002C00001CB00F8013B521E002AF5D1764254F8CA
:1002D000040C61688842D7DC4B462A463846FFF753
:1002E000C0FF54F8040C4B46A8EB0001401C00FB77
:1002F00005702A46491EFFF7B4FFBDE8FE8310B51E
:10030000431A934209D28318881803E010F8011D9C
:1003100003F8011D521EF9D210BD40EA01039B07EC
:1003200003D009E008C9121F08C0042AFAD203E06A
:1003300011F8013B00F8013B521EF9D210BDD2B2B8
:1003400001E000F8012B491EFBD270470022F6E7BE
:1003500010B513460A4604461946FFF7F0FF20463B
:1003600010BD30B505462A460B4612F8010B13F8AE
:10037000014B08B1A042F8D01CB1002802D06D1C7E
:10038000F1E7284630BDCAB2401E10F8011F8A426C
:1003900002D00029F9D100207047421C10F8011B3F
:1003A0000029FBD1801A704710B5002200E0521CD2
:1003B000835C8C5CA34201D1002BF8D1D8B2E1B2AE
:1003C000401A10BDCBB203E00178994203D0401C23
:1003D000521EF9D200207047034611F8012B00F895
:1003E000012B002AF9D11846704700F087B80000A9
:1003F00030B5041E71F1000404DB4FF000444042AC
:1004000064EB0101141E73F1000405DB1C464FF080
:100410000043524263EB04038B4208BF824230BD6B
:10042000202A04DB203A00FA02F1002070479140B4
:10043000C2F1200320FA03F3194390407047202AA9
:1004400004DB203A21FA02F00021704721FA02F37E
:10045000D040C2F120029140084319467047000085
:100460000FB4002300B589B00CA900910B996FF06F
:100470000042CB601E4B06931E4B07930423CDE92D
:1004800001321D4A089202466B46002000F05AFBDA
:1004900009B05DF814FB70B586B006464FF0FF302A
:1004A0000091CDE90101002015460C46049032462A
:1004B000694604A8FFF7D4FF02460498211825B125
:1004C00008B1084600E020462860049800280DD0B6
:1004D000002A02DD0098884208D0081B0094CDE96C
:1004E00001043246694604A8FFF7BAFF06B070BDA2
:1004F0007D0D00089B0D0008090A00082DE9F04752
:1005000091460E4680460446002514F8017B2FB123
:1005100000F076FA0068C05DC007F6D12B2F02D03C
:100520002D2F1ED0641E4A463146204600F046FC60
:1005300026B13268A24201D1C6F800806A054FF0A8
:10054000020418D50023D0EB030563EB01025D1B09
:10055000934109DB0023D0EB030063EB0101BDE80D
:10056000F08745F48065DEE703F0FCF804600020C6
:100570004FF00041F3E7021E71F10002EFDA03F0E1
:10058000F1F804604FF0FF304108E8E710B5141EA1
:1005900073F1000408DA401C41F1000192185B413C
:1005A0001A4301D120F0010010BD2DE9F04D924613
:1005B0009B4611B1B1FA81F202E0B0FA80F220322A
:1005C0009046FFF72DFF04460F4640EA0A0041EA35
:1005D0000B0153465A46084313D0114653EA010013
:1005E00019D0C8F140025046FFF729FF05460E46D4
:1005F000504659464246FFF713FF084305D00120F5
:1006000004E020463946BDE8F08D0020054346EA67
:10061000E0762C4337430A986305E40AA0EB080010
:100620000022FD0A44EA47540A3002D50020014660
:10063000E9E7010510196941DDE90845001969413B
:10064000BDE8F04DA2E72DE9FE4F804681EA0300A8
:10065000C00F0C46009021F0004123F00045B8EB9C
:100660000200A94105D24046214690461C460B4651
:10067000024623F00040104347D0270DC7F30A007D
:10068000C3F30A510290401A019040286BDAC3F379
:10069000130040F4801B0098924620B10023D2EB57
:1006A000030A63EB0B0B01985946C0F14002504618
:1006B000FFF7B6FE06460D4650465946019A00F031
:1006C0008DF910EB08006141002487EA115284EA99
:1006D000E7731A4340D0009A62B3019A012A4FEAA5
:1006E000075215DC001B61EB02014FF0004202EAE9
:1006F0000752CDE90042001C41F5801132462B46DD
:10070000FFF753FF03B0BDE8F08F40462146F9E7FD
:10071000001B61EB0201001C41F5801300185B41D6
:100720002018A2F5001747EB030140EAD570B6196F
:100730006D4111E06D084FEA360645EAC0754FEA93
:100740000752001B61EB0201001C41F580114908B2
:100750004FEA30000019514132462B4603B0BDE844
:10076000F04FFFF713BF0098012240000023D0EBA9
:10077000020263EBE073009821464FEAE074B8EBA5
:10078000000061EB0401E9E783F000435BE781F0DF
:10079000004158E72DE9FE4F81EA030404F00044CC
:1007A00021F0004100944FF0000B23F0004350EA89
:1007B00001045ED052EA03045BD0C3F30A54C1F3D0
:1007C0000A552C44A4F2F3340194A0FB0254C1F363
:1007D000130141F48011C3F3130343F4801301FBAD
:1007E000024400FB034E840A970A44EA815447EA14
:1007F0008357A4FB076802958D0A05FB07854FEA1E
:10080000932C04FB0C542705029D4FEA065847EA37
:100810001637B5EB08056EEB070C870E920E47EA0C
:10082000811742EA8312A7FB0201B6EB0B0164EBCE
:1008300000042B0D43EA0C335E1844EB1C50DA46DF
:100840005146E7FB0201C5F313044FEA0B3343EAB9
:1008500014534FEA0432019C43EA0603A4F10C044A
:100860000294009CCDE900B4FFF79FFE03B0BDE801
:10087000F08F00200146F9E72DE9F04D81EA0304ED
:1008800004F0004B21F0004514464FF0000A23F01D
:10089000004150EA050220D054EA01021DD0C5F300
:1008A0000A570246C5F31303C1F31300C1F30A56F6
:1008B00040F4801543F48013A7EB0608101BD646BE
:1008C00008F2FD3873EB050002D308F1010801E0DE
:1008D00092185B41B8F1000F03DA00200146BDE831
:1008E000F08D00204FF48011064684460EE0171B61
:1008F00073EB050705D3121B63EB050306434CEAB4
:10090000010C49084FEA300092185B4150EA010798
:10091000EDD152EA030012D082EA040083EA050115
:10092000084305D0101BAB4106D20122002306E08C
:1009300000224FF0004302E06FF0010253101AEB67
:1009400006004CEB085110EB0A0041EB0B01BDE82F
:10095000F04DFFF71BBEC1F30A52C1F3130140F281
:10096000FF3341F480119A4202DA002001467047B9
:1009700040F233439A42A2F2334202DC5242FFF782
:100980005EBDFFF74DBD000030B5041E71F10004DF
:1009900004DB4FF00044404264EB0101141E73F18C
:1009A000000405DB1C464FF00043524263EB040396
:1009B000994208BF904230BD064C074D06E0E06802
:1009C00040F0010394E8070098471034AC42F6D396
:1009D000FFF7E6FB6876000888760008202A06DB29
:1009E000CB17203A41FA02F043EAE07306E041FAFD
:1009F00002F3D040C2F120029140084319467047EB
:100A0000004870476476000810B50446FFF7F8FF09
:100A10000068005D00F0010010BD00002DE9FF4FEF
:100A2000087883B09946FF2805D0491C2D2804D0AA
:100A30000024002008E000200BE00124F9E700EB8F
:100A4000800003EB4000491C0B78FF2BF7D104B169
:100A5000404200230293147819461D462D2C01D0E4
:100A60002B2C04D1521C2D2C13D000240294AA4606
:100A70001478FF2C0FD00A25A3FB057801FB058114
:100A80004FF0000C03FB0C11521CE3194AEB01015F
:100A9000EEE70124EAE7814453EA010002D019F5A8
:100AA000C87F06DA03980021C0E9001107B0BDE84D
:100AB000F08F0025AE4E2F46DFF8B882184600F0C2
:100AC000ECF9CDE90001B9F1000002DAC9F1000446
:100AD00000E004460023A74A1AEB030B42EB045A3A
:100AE00012E0E00707D02A46334638464146FFF772
:100AF00051FE074688462A46334610461946FFF7F8
:100B000049FE05460E466410002CEAD1DDE90001DD
:100B1000B9F1000F5A46534606DAFFF7ADFE3A46E2
:100B20004346FFF7A9FE05E0FFF734FE3A46434689
:100B3000FFF730FE029A0AB181F00041039AC2E940
:100B40000001B3E72DE9FF4F1F468DB0D7E90146FD
:100B50004FF0FF382E2045464FF000090B90B96941
:100B60006D1C0E988847396A824688470028F6D15E
:100B7000BAF1FF3F0AD024F4D064002E11DDBAF19F
:100B80002B0F08D0BAF12D0F0BD102E0404611B067
:100B90008DE744F48064B9696D1C0E9888478246DD
:100BA000761E6946600501D52D2000E02B208DF8CA
:100BB000000001F1010B0DF1200809E0B9696D1C7D
:100BC0000E98884782460F9844F40074761E05609C
:100BD000002E02DDBAF1300FF0D00B998A453ED1DC
:100BE00044F0800406E00F99681CA9F1010944F45F
:100BF00000740860B9696D1C761E0E98884782469D
:100C00003028F0D02BE00B998A4505D1200603D47B
:100C100044F08004761E18E0504602F079FE08B3D6
:100C20000DF11301761E44F400748B4508D2AAF12D
:100C300030000BF8010B200607D5A9F1010003E0F5
:100C4000200602D409F101008146A00502D50F99C2
:100C5000681C0860B9696D1C0E9888478246002E92
:100C6000D1DC53E0002E51DDBAF1650F02D0BAF1AC
:100C7000450F4BD1A00549D5B9696D1C24F44074CA
:100C8000761E0E9888478246002E0CDD2B2804D055
:100C9000BAF12D0F07D144F48074B9696D1C0E9818
:100CA00088478246761EE00501D52D2100E02B21E4
:100CB00008F8011BCDF82C8021E00DF12901761EEA
:100CC00044F4007488450CD2AAF1300010F0FF0003
:100CD00088F8000002D10B99884509D908F101086C
:100CE00006E0E00501D5244801E042F20F7081469C
:100CF000B9696D1C0E98884782460F980560002ED2
:100D000004DD504602F004FE0028D6D1F9690E98A1
:100D10008847FF208BF8000088F80000002006902C
:100D200007904B466A4608A906A8FFF777FEA0057C
:100D300002D46FF001002AE714F0240F0AD0E00774
:100D400014D1DDE906123868031D3B600068C0E974
:100D500000120BE0DDE9060100F0ABF80146E00708
:100D600004D13868021D3A600068016028460EE729
:100D7000000014400000F03FF1D8FFFF426842B18C
:100D8000016811F8013B23B1521EC0E90012184658
:100D900070470121C160881E704742685AB1C3681C
:100DA000016843B983688B4205D0491E521CC0E9D3
:100DB0000012002070474FF0FF3070472DE9F74FC9
:100DC0004FF00009009C1546CA4614F8010B302864
:100DD00001D0ADB115E014F8010B4FF001097828EE
:100DE00003D0582801D04DB10BE00DB1102D08D122
:100DF0004FF00009102514F8010B02E0082500E06F
:100E00000A2500273E46B8464FEAE57B16E0A5FBDB
:100E100007230BFB073105FB080005FB0616010C39
:100E2000571846F100061FFA80F8381E4FF00109E6
:100E300076F5803000D3CA4614F8010B294600F03D
:100E40001EF80028E3DA019838B1B9F1000F01D09B
:100E5000641E00E0009C01980460BAF1000F08D005
:100E600002F080FC02210160C81E014603B0BDE80B
:100E7000F08F310441EA174148EA0740F6E73A2883
:100E800000D2303820F02002412A01D3A2F13700ED
:100E9000884201D34FF0FF3070470EB540F2334225
:100EA00002920022CDE900221346FFF77EFB03B039
:100EB00000BD01F0004330B421F0004150EA0102CE
:100EC00006D00A0DA2F56072C1F31301002A02DCFC
:100ED00030BC00207047440F44EAC104C100E01850
:100EE00030BC00EBC250AFF300800029A8BF7047B0
:100EF000401C490008BF20F00100704710B4B0FA50
:100F000080FC00FA0CF050EA010404BF10BC7047EA
:100F100049B1CCF1200421FA04F411FA0CF118BF04
:100F2000012121430843A3EB0C01CB1D4FEA0061D3
:100F30004FEA102042BF002010BC704700EBC350A6
:100F400010440029A4BF10BC7047401C490008BFD2
:100F500020F0010010BC7047FEE70000014800F0DF
:100F6000BFB80000E4020020014800F0B9B800005A
:100F700044030020014800F0B3B8000084020020C0
:100F800001681823CAB2103AB2FBF3F2054B6FF3B3
:100F90000901032A9B5CC36500D9091D81650846C8
:100FA00070470000886D000810B5014600208B696D
:100FB0008A6A4FF0C07453B1B3F5005F15D072B1B7
:100FC000012A0CD0022A0AD0032A09D104E01AB15E
:100FD000012A06D0022A03D1C96AC90100D501201D
:100FE00010BDC96AA142FAD010BD002AF7D0012A6B
:100FF000F2D0022AF3D0032AF3D010BD30B5046832
:10100000256825F480252560046863608368402B8B
:10101000036803D099600068C26030BD9A600068C0
:10102000C16030BD704772B6FEE72DE9F04104465D
:10103000876D00F0BDFA064694F8350000250228B9
:1010400006D08020606584F834500120BDE8F0812E
:101050002068016821F0160101602068416921F0D3
:1010600080014161206C08B9A06C20B12068016842
:1010700021F0080101602068016821F00101016090
:101080000CE000F095FA801B052807D92020606548
:10109000032084F8350084F83450D7E720680068CE
:1010A000C007EED194F85C103F208840B860012062
:1010B00084F8350084F834500020C7E790F83510E4
:1010C000022903D08021416501207047052180F865
:1010D00035100068016821F00101016000207047AF
:1010E0002DE9F84304464FF00009CDF8009063481D
:1010F0004FF41651A56D0068B0FBF1F72E6894F817
:101100005C10082000FA01F131420FD021680A6812
:1011100052070BD50A6822F004020A6094F85C10AA
:101120008840A860606D40F00100606594F85C1034
:101130004FF0010808FA01F0304208D021684969EF
:10114000090604D5A860606D40F00200606594F85F
:101150005C1004208840304208D021680968890763
:1011600004D5A860606D40F00400606594F85C10E0
:1011700010208840304218D021680968090714D52A
:10118000A86020680168490304D50068000308D5F9
:10119000A16C07E00168C90503D4016821F00801CA
:1011A0000160216C09B12046884794F85C1020202A
:1011B0008840304231D021680968C9062DD5A86021
:1011C00094F8350005282068016806D0490347D502
:1011D000006800031DD4616C1CE021F01601016061
:1011E0002068416921F080014161206C08B9A06C40
:1011F00020B12068016821F00801016094F85C10BA
:101200003F208840A86084F8358084F83490216DB0
:101210001FE0E16B09B120468847606D00282BD0A4
:10122000606DC00714D0052084F83500206801687F
:1012300021F0010101600098401C0090B84203D8E1
:1012400020680068C007F6D184F8358084F83490AF
:10125000E16C002910D001B02046BDE8F0430847FA
:101260000168C905D5D4016821F01001016084F836
:10127000358084F83490CCE7BDE8F883280000205E
:101280002DE9F041044600F093F906465CB10220D6
:1012900084F83500002584F834502068016821F076
:1012A000010101600DE00120BDE8F08100F080F94E
:1012B000801B052805D920206065032084F83500AF
:1012C000F2E720680068C007F0D122681168204862
:1012D0000140D4E901031843D4E9033633431843EA
:1012E00063691843A3691843E3691843236A1843E1
:1012F0000843616A042903D1D4E90B131943084355
:10130000106020684069666A20F0070130460E438D
:10131000012704280CD1A06A0643E06A40B12046A8
:10132000FFF742FE20B14020606584F83570BAE7CF
:10133000206846612046FFF723FE94F85C203F2199
:1013400091408160656584F835700020ACE700004D
:101350003F8010F02DE9F0410446866D90F834008E
:10136000002501280DD0012084F8340094F8357050
:101370000020012F07D084F8340002252846BDE85C
:10138000F0810220FBE7022784F835706065204673
:10139000FFF734FE94F85C103F208840B06020686E
:1013A000016841F016010160206C20B120680168DD
:1013B00041F0080101602068016841F0010101600D
:1013C000DCE700002DE9F84FDFF8B8A10022012486
:1013D0000AF1040B03254FF00F090BF1040E00BFB7
:1013E0000B6804FA02F63340B34273D10F7907F069
:1013F0000307012F01D0022F16D187684FEA420858
:1014000005FA08FC27EA0C07D1F80CC00CFA08FC16
:101410004CEA070CC0F808C04768B7430E79C6F31A
:10142000001696403E4346600E79F643B6070DD04F
:10143000C768560005FA06FC27EA0C07D1F808C071
:101440000CFA06FC4CEA070CC0F80CC00E7906F04A
:101450000306022E10D1D60800EB8608D8F82060CB
:1014600057074FEAD76C09FA0CF7BE430F6907FA22
:101470000CF73743C8F8207006684FEA420C05FAAB
:101480000CF7BE430F7907F0030707FA0CF7374351
:1014900007604E6816F4403F6DD03B4E376847F406
:1014A00080473760366822F0030706F480460096CE
:1014B000364E07EB060CDCF8086897073F0F09FA71
:1014C00007F826EA0806DFF8C880404503D14FF048
:1014D00000081EE04FE0DFF8BC80404502D14FF02D
:1014E000010816E0DFF8B080404502D14FF0020855
:1014F0000FE0DFF8A880404502D14FF0030808E074
:10150000DFF89C80404502D14FF0040801E04FF025
:10151000070808FA07F848EA0608CCF80888DAF855
:1015200000605746D1F804C09E435FEACC3C00D52A
:101530001E433E60DBF800605F46D1F804C09E4366
:101540005FEA8C3C00D51E433E60DEF800607746C3
:10155000D1F804C09E435FEACC2C00D51E433E6008
:10156000084F0C373E68D1F804C09E435FEA8C2CCC
:1015700000D51E433E60521C102AFFF431AFBDE877
:10158000F88F0000003C0140443802400030014028
:10159000000002400004024000080240000C02402B
:1015A000001002400AB1816170470904FBE70000A6
:1015B00001488068704700001C00002070B50400DE
:1015C00025D094F83D00002520B984F83C502046F1
:1015D00000F04EF9242084F83D002068016821F0D5
:1015E000010101602068016841F400410160206848
:1015F000016821F40041016000F0A2FA4D4A6168DF
:10160000914201D84C4900E04C49884201D2012066
:1016100070BD4B492368B0FBF1F15E6826F03F06D0
:101620000E435E606368934206D94FF49673594344
:101630004FF47A73B1FBF3F12368491C1E6A26F05C
:101640003F06314319626168914210D84900401E3B
:10165000B0FBF1F2521CC2F30B02042A01D20420A7
:1016600022E0B0FBF1F0401CC0F30B001CE0A268CC
:10167000F2B301EBC10303EB0116431EB3FBF6F318
:101680005B1C43F480431B0549D092B301EBC102BC
:1016900002EB0111401EB0FBF1F0401CC0F30B0047
:1016A00040F4804040F400402168CA694CF6FF7362
:1016B0009A431043C861D4E90710014320680268C7
:1016C00022F0C00211430160D4E903010143206804
:1016D000826848F2FF339A4311438160D4E90501DF
:1016E00008432168CA6822F0FF021043C86001E085
:1016F0000EE016E02068016841F0010101602564F8
:10170000202084F83D00256384F83E50002070BD01
:1017100001EB4106431EB3FBF6F35B1CB3E701206C
:10172000C2E701EB4101401EB0FBF1F0401CC0F3E9
:101730000B00B7E7A086010080841E0000093D0071
:1017400040420F002DE9F84F1F4690468A46044656
:10175000DDF82890FFF72CFF054694F83D0020287F
:101760007FD11923012240492046009500F0D6FF81
:10177000002876D194F83C00012872D0012084F82A
:101780003C0020680168C90703D1016841F00101EC
:1017900001602068016821F400610160212084F863
:1017A0003D00102084F83E0000262664C4F8248002
:1017B0006785608D20852D48E0622B464A4651465C
:1017C000204600F037FF90B9206841698069009099
:1017D00036E02A464946204601F01FF850B1206CF9
:1017E000042804D12068016841F4007101600120DF
:1017F000BDE8F88F606A216800780861606A401C63
:101800006062618D491E6185218D491E89B22185E5
:1018100022685369DB435B070BD451B10078106138
:10182000606A401C6062608D401E6085208D401E95
:1018300020852A464946204600F04AFF0028CED19E
:10184000208D0028C5D154F83D0B016841F400718A
:101850000160202004F81E09E67766770020C7E7BC
:10186000FFE70220C4E70000020010000000FFFFB5
:1018700010B586B0044614216846FEF767FD13498B
:101880002068884220D112480021026842F00202FA
:101890000260006800F002000590C0200090122055
:1018A000CDE9010103200390042004906946094812
:1018B000FFF788FD06481030016841F4001101600F
:1018C000006800F40010059006B010BD0054004000
:1018D0003038024000040240024881680278114416
:1018E000816070471C0000200B4810B5016841F46E
:1018F00000710160016841F480610160016841F498
:1019000080710160032000F06FF80F2000F006F8EE
:1019100000F024F8002010BD003C024070B50D4DD1
:1019200004464FF47A712878B1FBF0F00A4909684F
:10193000B1FBF0F000F018FB48B9102C07D20022E0
:101940002146501E00F030F800206C6070BD012070
:1019500070BD00001C000020280000200A4808B5C7
:10196000016841F480410160006800F4804000900B
:101970000548001F016841F080510160006800F0D7
:101980008050009008BD000044380240002809DB68
:1019900000F01F02012191404009800000F1E02089
:1019A000C0F8001170470000F0B40E4B1B680C46E5
:1019B000C3F30223C3F10705042D00D90425191D23
:1019C000072901D2002300E0DB1E012606FA05F1FB
:1019D000491E214099409E40761E16403143F0BC7E
:1019E00001F0B0BE0CED00E0064900F00702086807
:1019F0004FF6FF03184040EA0220034A10430860F4
:101A0000704700000CED00E00000FA052DE9F047FA
:101A10000E46050065D0DFF81481D8F80000F7B253
:101A200000F00700B04207D288F80070D8F8000034
:101A300000F00700B04254D128683D4C810712D510
:101A4000400703D5206840F4E05020602878000764
:101A500003D5206840F4604020602068A96820F029
:101A6000F000084320602878C0072DD0304968680E
:101A70000839012812D0022813D0032811D0096890
:101A8000890700292DDA216821F003010143216033
:101A9000FFF78EFD814641F2883A0EE0096889031E
:101AA000EFE709688901ECE7FFF782FDA0EB090188
:101AB000514502D90320BDE8F0872068696800F02D
:101AC0000C00B0EB810FEFD1D8F80010404601F0C8
:101AD0000701B14207D90770006800F00700B04263
:101AE00001D00120E7E72878400705D52068E9689C
:101AF00020F4E050084320602878000706D52068CD
:101B0000296920F4604040EAC100206000F038F804
:101B10002168084AC1F30311515CC84006490860B6
:101B200006480068FFF7FAFE0020C4E7003C0240C8
:101B300008380240906D0008280000202000002096
:101B40000448054900680968044AC1F38221515CD0
:101B5000C84070472800002008380240A06D0008E7
:101B60000448054900680968044AC1F34231515CE0
:101B7000C84070472800002008380240A06D0008C7
:101B8000154810B5006810F00C02144813D0144921
:101B9000042A0FD0082A0ED10F4C241F2268236874
:101BA00002F03F025B0207D52068C0F38810A0FB5B
:101BB000010106E0084610BD2168C1F38811A1FBB0
:101BC00000010023FEF71CFB2168C1F30141491C01
:101BD0004900B0FBF1F010BD083802400024F400C9
:101BE00040787D012DE9F84F04006ED02078DFF8B1
:101BF0004C93C007A9F104054AD009F1040001681B
:101C0000C1F38101012908D00068C0F381000228D6
:101C10000AD1D9F80000400206D52868800337D5DC
:101C200060680028E1D033E06068B0F5803F10D0F4
:101C3000B0F5A02F286810D020F4803028602868E4
:101C400020F4802028606068A8B1FFF7B1FC064648
:101C50000DE0286840F48030F4E740F480202860EC
:101C6000F7E700BFFFF7A4FC801B642873D828683F
:101C70008003F7D50CE0FFF79BFC064605E000BFAC
:101C8000FFF796FC801B6428F0D828688003F7D4FF
:101C90002078DFF8AC8280074FF0000A3ED5A748D5
:101CA000001D016811F00C0F08D00068C0F381001E
:101CB00002280BD1D9F80000400207D42868800719
:101CC00016D5E068012800D112E033E1E068B8B130
:101CD0000120C8F80000FFF76BFC064605E000BFD6
:101CE000FFF766FC801B0228C0D828688007F7D55C
:101CF0002868216920F0F80040EAC10028600DE062
:101D0000C8F800A0FFF754FC064604E0FFF750FCBB
:101D1000801B02281FD828688007F7D42078000786
:101D200022D5864F87486169703771B10121016002
:101D3000FFF73EFC064604E0FFF73AFC801B022852
:101D400009D838688007F7D50EE0C0F800A0FFF783
:101D50002FFC064605E082E0FFF72AFC801B0228E4
:101D60007DD838688007F7D42078400768D5DFF839
:101D7000CCB100270BF13C0BDBF80000C0000BD40A
:101D8000DBF8001041F08051CBF80010DBF80000C8
:101D9000012700F0805000906B4E3068C00510D4D1
:101DA000306840F480703060FFF702FC009005E07E
:101DB000FFF7FEFB0099401A022850D83068C00592
:101DC000F6D55E4EA0686C3601280FD00528306825
:101DD00010D020F001003060306820F00400306046
:101DE000A068B8B1FFF7E4FB00900FE0306840F066
:101DF0000100F4E740F004003060F7E7FFF7D8FB9C
:101E00000099411A41F28830814266D830688007D3
:101E1000F4D50EE0FFF7CCFB009007E0FFF7C8FB1E
:101E20000099411A41F28830814256D830688007C3
:101E3000F4D42FB1DBF8001021F08051CBF8001062
:101E4000A069C8B33D49091D0968C1F38101022990
:101E50004AD00228504607D0C8F8600000E03CE0B5
:101E6000FFF7A6FB04463BE04746C8F86000FFF7D3
:101E70009FFB064605E000BFFFF79AFB801B022888
:101E80002BD828688001F7D4D4E907010843A16A58
:101E90002E4A490802EB0141626A41EA8211084375
:101EA00094F82C1040EA0161C9F80010012038664E
:101EB000FFF77EFB044606E03EE000BFFFF778FB3D
:101EC000001B022809D828688001F7D534E000BF3C
:101ED000FFF76EFB001B022802D90320BDE8F88F34
:101EE00028688001F4D427E00128F7D0D9F8000051
:101EF000E26900F4800191421CD1226A00F03F01A6
:101F0000914217D147F6C071626A0140B1EB821F5E
:101F100010D1A26A4FF0FF3300F4403103EB5202BC
:101F2000B1EB024F06D194F82C1000F07060B0EBCA
:101F3000016F01D00120D1E70020CFE70438024033
:101F400000004742800E4742007000400000FFFF43
:101F50004FF0E0210428086903D020F00400086154
:101F6000704740F00400FAE710B5401EB0F1807FE2
:101F700001D3012010BD4FF0E02460610F216017F4
:101F800001F0E0FB0020A06107202061002010BDCF
:101F9000704710B504460068406994F83D10C0F3DE
:101FA000C010212911D180B12068143050E8001FE1
:101FB00021F0800140E80012002AF5D1606B08B1E1
:101FC000FFF733F8204601F013F92068406994F8D0
:101FD0003E10C0F38010222911D180B12068143046
:101FE00050E8001F21F0400140E80012002AF5D11E
:101FF000A06B08B1FFF719F8204601F0D2F80020D5
:1020000010BD7047F8B5016804460868CA684B6996
:1020100010F00F0F4FF0000559D003F0010602F445
:102020009077374365D0C10705D0D10503D5216C22
:1020300041F001012164410705D5D90703D0216C86
:1020400041F002012164810705D5D90703D0216C35
:1020500041F004012164010707D502F0200131435A
:1020600003D0216C41F008012164216C00293AD091
:10207000800604D5900602D5204601F0C7F82068F6
:102080004069216CC0F38010090700D460B320467A
:1020900001F087F820684069400621D52068143097
:1020A00050E8001F21F0400140E80012002AF5D15D
:1020B000A06BA8B16C490165A06BFEF7FFFF00287B
:1020C00011D0A06B016D01B0BDE8F0400847830658
:1020D0000FD593060DD52046BDE8F84001F096B81F
:1020E0002046FFF78EFFF8BD2046FFF78AFF2564E4
:1020F000F8BD266B2023012E79D1C60677D5D606EA
:1021000075D50868486800904869400640D5A16BBD
:10211000086840680004000CEAD0A28D8242E7D92A
:10212000E085C869B0F5807F2DD020680C3050E87C
:10213000001F21F4807140E80012002AF5D12068C8
:10214000143050E8001F21F0010140E80012002A7D
:10215000F5D12068143050E8001F21F0400140E81C
:102160000012002AF5D184F83E30256320680C3037
:1021700050E8001F21F0100140E80012002AF5D1BC
:10218000A06BFEF752FFA08DE18D401A81B229E0CD
:10219000A08DE18D401A81B2E08D0028A8D00029E1
:1021A000A6D020680C3050E8002F22F4907240E84E
:1021B0000026002EF5D12068143050E8002F22F0C0
:1021C000010240E80026002EF5D184F83E30256358
:1021D00020680C3050E8002F22F0100240E8002365
:1021E000002BF5D12046FFF7D3FEF8BDFFE705062B
:1021F0002BD5150629D594F83D002128F5D1A068E6
:10220000B0F5805F01D12069B0B1206A411C216224
:10221000216800784860E08C401E0004000CE084D7
:10222000E3D12068C16821F08001C1602068C168E5
:1022300041F04001C160D8E7206A0088C0F308007F
:102240004860206A801C2062E5E74006CDD5500634
:10225000CBD5CA68204622F04002CA6084F83D30DF
:1022600000F0CFF9C1E70000AD30000870B5040000
:1022700004D094F83D00002510B106E0012070BDA7
:1022800084F83C50204600F023F8242084F83D00D8
:102290002068C16821F40051C160204601F016F8A1
:1022A0002068016921F4904101612068416921F0B1
:1022B0002A0141612068C16841F40051C160256470
:1022C000202084F83D0084F83E00002070BD00000E
:1022D0002DE9F04F87B0054614216846FEF736F821
:1022E0008848DFF81C821438D5F800C00024DFF8D5
:1022F000149202210323844A061501274FF0070B8D
:10230000C4454AD1D9F8008048F01008C9F80080C7
:10231000D9F800C00CF0100CCDF814C0D0F800C0F3
:102320004CF0010CC0F800C00068894600F00100C4
:1023300005900802CDE90009DA460DF1080C98462F
:102340008CE81005694693461046FFF73BF8CDE947
:1023500000690DF1080C69468CE880055846FFF7C6
:1023600031F86B4F694838607004C7E90104C7E968
:1023700003467C61BC61FC613C6238467C62FEF7CE
:102380007FFF08B1FEF74FFEAF6300220121252039
:10239000BD63FFF709FB252055E0DFF87881C445D0
:1023A00056D1DFF860C1ACF1040CDCF8008048F4D1
:1023B0000038CCF80080DCF800C00CF4003CCDF80C
:1023C00014C0D0F800C04CF0010CC0F800C0006888
:1023D0008A4600F0010005900420CDE9000ACDE90D
:1023E0000243D846CDF810B0994669469346104648
:1023F000FEF7E8FF0820CDE9000ACDE90279694639
:10240000CDF810805846FEF7DDFF414F4248603757
:1024100038604FF00060C7E90104C7E90346C01403
:102420007C61C7E906403C6238467C62FEF728FFC3
:1024300008B1FEF7F8FDAF63002201212620BD633D
:10244000FFF7B2FA2620FFF7A1FA07B0BDE8F08F38
:10245000DFF8C880C445F8D1D9F8008048F02008DA
:10246000C9F80080D9F800C00CF0200CCDF814C0D9
:10247000D0F800C04CF0010CC0F800C000688A46DB
:1024800000F0010005904FF40060CDE9000ACDE9AD
:1024900002434FF00808994669469346CDF81080EC
:1024A0001046FEF78FFF4FF48050CDE9000ACDE9CA
:1024B00002796946CDF810805846FEF783FF144F25
:1024C0001248C037183838608005C7E90104C7E9E9
:1024D00003464FF480707C61C7E906403C62384691
:1024E0007C62FEF7CDFE08B1FEF79DFDAF630022D2
:1024F00011464720BD63FFF757FA4720A3E70000C6
:102500000010014044380240000002404064024094
:102510008402002000440040886002400014014012
:1025200090F83E30202B0ED159B152B190F83C308A
:10253000012B08D0012380F83C300023036300F016
:102540004BBF012070470220704770477047000062
:102550002DE9F843044690F83D001F4616460D4607
:1025600020284CD1C5B1BEB194F83C00012846D01A
:10257000012084F83C004FF00008C4F8408021207E
:1025800084F83D00FFF714F8A6848146E684A0682D
:10259000B0F5805F03D004E00120BDE8F883206936
:1025A00028B12E465FF0000584F83C800EE000263E
:1025B000FAE78021204600F057FFA0B9AEB116F827
:1025C000010B21684860E08C401EE084E08C4B46A3
:1025D0004FF0000200970028EBD14FF04001204659
:1025E00000F042FF30B10320D7E735F8020BC0F30B
:1025F0000800E6E7202084F83D000020CDE7022017
:10260000CBE77047FEE701684A69D24352050FD411
:102610006FF480624A61002140F8301F202242732B
:102620008173026942F00402026101730120704764
:1026300000207047F8B50446C06A1E460D4617468E
:10264000082807D0012805D010F5803F02D0206B64
:10265000122804D12068016841F48071016013469A
:1026600000224FF001112046009600F057F840B1CB
:1026700020680068C00502D54FF400702064032074
:10268000F8BD2069B0F5804F0ED00620216800EA21
:10269000D51040F0F000086133463A460B49204619
:1026A00000F070F878B902E005F0FE0000E0E8B252
:1026B00021680861054933463A46891F204600F0E3
:1026C00061F80028DCD00120F8BD000008000100FE
:1026D00070B516460D4604460DE02046FFF793FF01
:1026E00008B1012070BD681C05D0FEF761FF801B9A
:1026F000A84207D835B120684069C0434007ECD4F0
:10270000002070BD002044F8300F20216173A073B9
:10271000216941F0200121612073E2E72DE9F047B2
:102720001E4690460D460446C1F30747DDF820904B
:1027300008E0701C06D0FEF73BFFA0EB0900B0429A
:102740000FD876B12068012F18D0806925EA0000E3
:102750000004000C14D000214145EAD00020BDE85F
:10276000F087002044F8300F20216173A0732169A5
:1027700041F02001216120730120F0E74069E5E785
:102780000121E9E72DE9F0479A4691460E460446B5
:1027900000254FF02008C1F3074725E02068406975
:1027A000C043400514D42068016841F40071016001
:1027B00021686FF480604861256384F83D8084F867
:1027C0003E50206C40F00400206484F83C501FE030
:1027D000B9F1FF3F08D0FEF7EBFEA0EB0A01494537
:1027E0000CD8B9F1000F09D02068012F13D08069EF
:1027F00026EA00000004000C0BD0CFE744F8305F5D
:1028000084F80D80A573206940F0200020612573B5
:102810000120BDE8F0874069EAE770B516460D462D
:1028200004460DE02046FFF7EEFE08B1012070BD22
:10283000681C05D0FEF7BCFE801BA84207D835B146
:1028400020684069C0430006ECD4002070BD002021
:1028500044F8300F20216173A073216941F02001F9
:1028600021612073E2E70000144810B50068C168D8
:1028700041F01001C160FF2211491048FFF750FEDE
:1028800010480068C16841F01001C1600C49FF2286
:10289000FF310C48FFF744FE0B480068C16841F067
:1028A0001001C1600649FF22FF310748FFF738FEDB
:1028B000BDE8104005A000F0C9BE0000B80100202E
:1028C000A2050020FC010020400200205553415287
:1028D0005420696E6974206F6B0D0A00154808B5A5
:1028E000016841F400110160016801F400110091D8
:1028F000016841F4800101600068002200F480005A
:10290000009011461020FFF74FF81020FFF73EF817
:10291000002211463920FFF747F83920FFF736F833
:10292000002211463A20FFF73FF8BDE808403A2060
:10293000FFF72CB83038024070B586B014216846D5
:10294000FDF704FD1D480025016841F00401016008
:10295000016801F004010591016841F08001016006
:10296000016801F080010591016841F001010160F9
:10297000016801F001010591016841F00201016067
:102980000068012200F002000D4E5403059021461C
:102990003046FEF707FE0094012469463046019454
:1029A000CDE90245FEF70EFDCDE900456946054833
:1029B0000294FEF707FD06B070BD000030380240FB
:1029C00000080240000002400D4810B50B490160AC
:1029D0000C49416000214FF480428160C0E903123C
:1029E00041618161C1610162FEF7E8FD002803D009
:1029F000BDE81040FEF717BB10BD000000540040BA
:102A000064010020A08601000C4810B50A4901604D
:102A10004FF4E1314160002181600C22C160C0E9C6
:102A200004128161C161FFF721FC002803D0BDE8D9
:102A30001040FEF7F8BA10BD00100140B8010020A8
:102A40000C4810B50A4901604FF4E13141600021A2
:102A500081600C22C160C0E904128161C161FFF78D
:102A600005FC002803D0BDE81040FEF7DCBA10BD1D
:102A700000440040FC0100200C4810B50A490160E8
:102A80004FF4E1314160002181600C22C160C0E956
:102A900004128161C161FFF7E9FB002803D0BDE8A2
:102AA0001040FEF7C0BA10BD0014014040020020E3
:102AB000FEE700002DE9F04104244FF4FA674FF6D9
:102AC000FF76BD1021A1254800F0EAFD82B2334611
:102AD00022492348FFF73CFD384601F0FBFA21A0CC
:102AE00000F0B4FD2A4623A123A000F0A9F800B10C
:102AF0000324C82001F0EEFA22A000F0A7FD2A4628
:102B00001CA124A000F09CF800B10224C82001F010
:102B1000E1FA27A000F09AFD2A4616A127A000F0AE
:102B20008FF800B10124C82001F0D4FA31A000F0E0
:102B30008DFD2A460FA134A000F082F808B9002CC0
:102B4000C0D1BDE8F0413AA000F080BD41542B5205
:102B50004553544F52450D0A00000000A4030020C5
:102B6000FC010020BFAACABCC5E4D6C357494649E8
:102B70000D0A00004F4B000041542B43574D4F446A
:102B8000453D3100C7EBB4F2BFAA574946490D0A8B
:102B90000000000041542B43574A41503D226D75BF
:102BA000222C223132333435363738776422000014
:102BB000C5E4D6C3C8EBCDF80D0A000041542B4D37
:102BC000515454555345524346473D302C312C22E5
:102BD000393335373930333631222C2234383937CE
:102BE0003037222C22726F75746531222C302C30D4
:102BF0002C222200BFAACABCC1ACBDD3B7FECEF105
:102C0000C6F70D0A0000000041542B4D51545443A7
:102C10004F4E4E3D302C223138332E3233302E344D
:102C2000302E3339222C363030322C300000000068
:102C3000494F5420436F6E666967204F4B0D0A0061
:102C40002DE9F0410F4605461446FF211548FDF7D2
:102C50007DFB2A4614A1164800F022FD82B24FF6F1
:102C6000FF7313491348FFF773FC134D002612E05E
:102C7000287801280CD139460A48FDF772FB30B19B
:102C8000FF210848FDF762FB0120BDE8F0812E70AE
:102C90000A2001F01FFA641EEAD208A000F0D6FC58
:102CA0000020F2E7A106002025730D0A00000000B5
:102CB000A4030020FC010020310000206572726F27
:102CC000720D0A00FEE770B5002404F1B000C0B236
:102CD00000F0E8F8002000F0E5F8102000F0E2F83D
:102CE0000025002000F0F0F86D1CEDB2802DF8D327
:102CF000641CE4B2082CE8D370BD10B54FF4FA7030
:102D000001F0E8F9AE2000F0CDF8002000F0CAF89C
:102D1000102000F0C7F8402000F0C4F8812000F037
:102D2000C1F8FF2000F0BEF8A12000F0BBF8C820D9
:102D300000F0B8F8A62000F0B5F8A82000F0B2F82E
:102D40003F2000F0AFF8D32000F0ACF8002000F0F6
:102D5000A9F8D52000F0A6F8802000F0A3F8D9202B
:102D600000F0A0F8F12000F09DF8DA2000F09AF8C9
:102D7000122000F097F8DB2000F094F8402000F0DB
:102D800091F8202000F08EF8022000F08BF88D20C2
:102D900000F088F8142000F085F8A42000F082F8F4
:102DA000A62000F07FF8AF2000F07CF8FFF78BFF43
:102DB0000021BDE810400846AFF3008010B504467E
:102DC000B031C8B200F06EF8102040EA141000F0E4
:102DD00069F804F00F00BDE8104040F0010000F079
:102DE00061B800002DE9F041203A00240D468046EC
:102DF000D6B27F2803D900204D1C8046EDB2102B9F
:102E000029460FD0FFF7DAFF164906EB460001EB23
:102E10004005285D00F058F8641CE4B2062CF8D395
:102E2000BDE8F081FFF7CAFF0F4F00BF04EB0610AB
:102E3000385C00F049F8641CE4B2082CF6D36D1C31
:102E4000E9B24046FFF7BAFF5FF0000404EB06105A
:102E50003844007A00F038F8641CE4B2082CF5D34A
:102E6000DEE70000A86D0008D06F00082DE9F041F2
:102E7000984617460E46044600250DE04346314667
:102E80002046FFF7AFFF0834E4B2782C02D90024C3
:102E9000B61CF6B26D1CEDB27A5D002AEED1BDE82B
:102EA000F08100001CB500218DF804108DF805009C
:102EB0004FF6FF700090022301AA78210148FEF727
:102EC00041FC1CBD640100201CB540218DF804109C
:102ED0008DF805004FF6FF700090022301AA7821BB
:102EE0000148FEF72FFC1CBD640100207047000064
:102EF00070B504460D460846FDF74FFAC3B22246A8
:102F00000EA115485B1C00F0CBFBC82213A1124890
:102F1000FFF796FE10B912A000F098FBC82215A189
:102F20002846FFF78DFE10B915A000F08FFBBDE815
:102F3000704064210848FDF709BA000041542B4D48
:102F40005154545055425241573D302C2225732242
:102F50002C25642C302C30009F0800204F4B0000A3
:102F600050756220696E6974204572726F720D0A25
:102F7000000000002B4D5154545055423A4F4B0025
:102F80005075622053656E64204572726F720D0A2F
:102F9000000000007047000010B502460AA10F486B
:102FA00000F07EFBC8220EA10C48FFF749FE28B1B5
:102FB000BDE810400BA10FA000F048BBBDE81040D9
:102FC0000DA000F043BB000041542B4D515454530D
:102FD00055423D302C222573222C31009F080020C1
:102FE0004F4B000053756220537563636573730D17
:102FF0000A00000025730000537562204661696C69
:10300000A3A10D0A00000000FEF766BC30B593B026
:1030100030216846FDF79AF914210CA8FDF796F9BE
:103020001C480024016841F080510160006800F0F4
:10303000805011901848016841F4404101600068D7
:10304000022500F4404011900120039010200490CC
:10305000009506950820CDE907406420CDE90905D3
:1030600004200B906846FEF7BDFD08B172B6FEE77E
:103070000F20CDE90C054FF48050CDE90E4003211F
:103080000CA81094FEF7C2FC002801D072B6FEE72F
:1030900013B030BD40380240007000400248016863
:1030A00041F470010160704788ED00E010B5806B5D
:1030B0000021C185C184FEF7A4FF10BD70B5846BEB
:1030C0002068406994F83D10C0F3C0100025212904
:1030D00004D118B1E584204600F08AF820684069E0
:1030E00094F83E10C0F38010222904D118B1E58570
:1030F000204600F056F8206C40F010002064204676
:10310000FEF77FFF70BD10B50146806B0968096846
:10311000C9052FD40021C18501680C3151E8002F69
:1031200022F4807241E80023002BF5D101681431AC
:1031300051E8002F22F0010241E80023002BF5D1D5
:103140000168143151E8002F22F0400241E80023C9
:10315000002BF5D1202180F83E10016B012909D107
:1031600001680C3151E8002F22F0100241E80023E1
:10317000002BF5D1016B012902D0FFF7E6F910BD54
:10318000818DFEF705FF10BD10B5806B016B012925
:1031900002D0FFF7DBF910BD818D4908FEF7F8FE7C
:1031A00010BD01680C3151E8002F22F4907241E803
:1031B0000023002BF5D10168143151E8002F22F0D3
:1031C000010241E80023002BF5D1016B012909D14F
:1031D00001680C3151E8002F22F0100241E8002371
:1031E000002BF5D1202180F83E10002101637047AB
:1031F00001680C3151E8002F22F0C00241E80023A1
:10320000002BF5D1202180F83D10704708B590F8CB
:103210003E10222901D0022008BD82684FF480535D
:103220009A4201D1016921B1816A9A421BD04AB107
:103230000AE00268816A5268C2F308020A80816A61
:10324000891C08E0026972B10268526802F07F02CC
:103250000A70816A491C8162C18D491E0904090CEA
:10326000C18503D019E002685268F1E70168CA68B5
:1032700022F02002CA600168CA6822F48072CA6023
:1032800001684A6922F001024A61202180F83E105B
:10329000016B012903D0FFF758F9002008BD002178
:1032A000016301680C3151E8002F22F0100241E85F
:1032B0000023002BF5D101680A68D20602D50A68FE
:1032C00049680091818DFEF763FEE6E770B504461C
:1032D00000680169E26821F44051114301612169EC
:1032E000A068E26908436169114308432168CA681C
:1032F00049F20C639A430243CA6020684169A2699B
:1033000021F440711143416131492068884202D063
:103310003049884202D1FEF723FC01E0FEF710FCA1
:10332000E2690023192164253226B2F5004F626854
:1033300028D0A0FB0101930F9200FCF761FF01462A
:10334000B0FBF5F06FF01802504301EB800006EB84
:103350000010B0FBF5F000F0F002B1FBF5F002EB6D
:103360000012B1FBF5F06FF01803584301EB800039
:1033700006EB0010B0FBF5F000F00F0021681044E0
:10338000886070BDA0FB010192185B41FCF738FF1B
:103390000146B0FBF5F00201B1FBF5F06FF0180348
:1033A000584301EB800006EBC000B0FBF5F000F0E5
:1033B000F80002EB4002B1FBF5F0584301EB80004E
:1033C00006EBC000B0FBF5F000F00700D6E7000008
:1033D000001001400014014038B58162828500254B
:1033E000134604460564222084F83E00A26B1B4865
:1033F000D063A26B1A481064A26B1A48D064A06B09
:103400000A4605652168A06B091DFDF7A3FF20682A
:1034100001684068009084F83C5020680C3050E807
:10342000001F41F4807140E80012002AF5D12068A5
:10343000143050E8001F41F0010140E80012002A5A
:10344000F5D12068143050E8001F41F0400140E8F9
:103450000012002AF5D1002038BD00000731000815
:1034600089310008BD3000082DE9F0419846174623
:103470000E460446069D27E0681C25D02DB1FEF7B8
:1034800097F8A0EB0800A8421ED920680C3050E83D
:10349000001F21F4D07140E80012002AF5D1206805
:1034A000143050E8001F21F0010140E80012002A0A
:1034B000F5D1202084F83D0084F83E00002084F8F7
:1034C0003C000320BDE8F0812068006836EA000077
:1034D00004D00020B842CFD00020F3E70120F9E764
:1034E00010B50448FEF78EFDBDE81040014800F01D
:1034F0001BB80000B801002010B50448FEF782FD9B
:10350000BDE81040014800F00FB80000FC010020A9
:1035100010B50448FEF776FDBDE81040014800F004
:1035200003B8000040020020F8B53B483B490126A3
:10353000006800253A4C88421FD10168C943C9067A
:103540001BD40168406800903348FEF722FD2078C4
:10355000012800D02670E07800B1E570314800689D
:103560004068C0F1FF00C1B2E1702F48FCF7EEFEE9
:10357000FF222D492848FEF7D3FF2C482C4900682C
:10358000884224D10168C943C90620D40168406833
:1035900000902648FEF7FDFC6078012800D0667098
:1035A000E07800B1E5702348006840681E49C0F12A
:1035B000FF00C2B2E2704FF40073FF311648FEF70D
:1035C000C7FF1949FF22FF311848FEF7A9FF1A4823
:1035D0001A49006888421DD10168C943C90619D437
:1035E0000168406800901448FEF7D3FCA0780128D9
:1035F00000D0A670E07800B1E5701148006840681E
:10360000FF22C0F1FF00E070BDE8F8400D490A4814
:10361000FEF786BFF8BD0000B80100200010014091
:103620003000002084020020A2050020FC010020C0
:1036300000440040E4020020400200200014014049
:1036400044030020A0070020FEE700000FB4054B54
:1036500010B503A9044A029800F062F910BC5DF8A5
:1036600014FB0000354700085C0000200FB47CB557
:103670000C0009AD01D0611E00E00021CDE9000180
:10368000064B6A462946089800F04AF9002C02D0F9
:10369000009A002111707CBC5DF814FB27400008E3
:1036A0000FB4084B10B504A902AA039800F038F92A
:1036B000044602A9002000F0C1FC204610BC5DF8C1
:1036C00014FB00003D4000087CB50C001D4616466A
:1036D000014601D0601E00E00020CDE90010064B3D
:1036E0006A462946304600F01BF9002C02D0009AA9
:1036F000002111707CBD00002740000830B47446E2
:10370000641E2578641CAB4200D21D46635D5B00DD
:10371000E31830BC1847012249005205D14201D1BB
:10372000002801D00020704701207047002800D0F9
:1037300001200143480002494008081AC00F7047A1
:103740000000F07F0907090E002804DB00F1E020EB
:1037500080F80014704700F00F0000F1E02080F8BE
:10376000141D7047004870475800002002E008C848
:10377000121F08C1002AFAD170477047002001E0EB
:1037800001C1121F002AFBD1704700002DE9FF5F25
:1037900082B00021DDE90430020DDDF840B00343C2
:1037A00018D044F61050A2F2FF324243151411987B
:1037B00001281FD0A5EB0B00401C5FEA000A4FF068
:1037C00000064E4FDFF83891B046504615D5CAF185
:1037D000000413E0119801244AA3012801D16FEAE3
:1037E0000B010298119AC0E90031C0E9024206B00B
:1037F000BDE8F09FCBF10000DFE704460021404A1E
:10380000491842EB0450CDE9001012E0E00707D060
:1038100032463B4640464946FCF7BCFF8046894657
:1038200032463B4610461946FCF7B4FF06460F46A3
:103830006410002CEAD1DDE90401DDE90023BAF1CE
:10384000000F06DAFCF7A6FF42464B46FCF7A2FF44
:1038500005E0FDF711F842464B46FDF70DF804462A
:103860000E460022284BFDF78FF803D84FF0FF30AB
:10387000014607E00022254B20463146FCF7E3FED7
:10388000FDF769F8102409E0002C0ADB0A22002366
:10389000FCF7B6FC039B30321A55641E50EA010255
:1038A000F2D1641C039AC4F111031444119A012A41
:1038B00003D0012208430DD10AE0084304D00020C0
:1038C0004FF0110B119072E7A3EB0B056D1E0DE08D
:1038D0005B4504DD4FF0000205F1010504E003DA69
:1038E0004FF00002A5F10105002AECD002981199D1
:1038F000C0E90231C0E9004579E70000000014404A
:103900000000F03F300000000000F0430000E03F06
:1039100030380A2801D2012070470020704700008B
:103920002DE9FF4F95B09A46884606460025EEE100
:10393000252877D100242746F94A0121039400E085
:10394000044316F8013F203B01FA03F01042F7D17F
:1039500030782A2811D06FF02F033078A0F1300290
:10396000092A16D8039A44F0020402EB820203EB00
:1039700042021044761C0390EFE758F8042B0392A0
:10398000002A03DA504244F40054039044F0020445
:10399000761C30782E2816D116F8010F44F0040456
:1039A0002A280DD06FF02F023078A0F13003092BB8
:1039B00009D807EB870302EB4303C718761CF3E72C
:1039C00058F8047B761C30786C280FD006DC4C2825
:1039D00017D068280DD06A2814D104E0742810D0BC
:1039E0007A280FD10DE044F400140AE044F4801466
:1039F00001E044F440147278824202D104F580144C
:103A0000761C761C307866280BD013DC582877D0CB
:103A100009DC002875D04528F6D04628F4D0472880
:103A20001AD193E118E0632835D0642879D065284D
:103A300012D18BE1702873D008DC6728F1D0692897
:103A40006FD06E280DD06F2806D1ACE073282CD033
:103A5000752874D0782853D05246179990476D1C1A
:103A600054E1C4F30250022809D003280DD0D8F83D
:103A7000001004280DD00D6008F1040846E1D8F8C4
:103A80000010EA17C1E90052F6E7D8F800100D80DF
:103A9000F2E70D70F0E718F8041B8DF80010002015
:103AA0008DF80100EB46012003E058F804BB4FF00D
:103AB000FF3061074FF0000102D40DE009F1010170
:103AC0008946B9420FDA8145F8DB1BF80910002955
:103AD000F4D108E009F1010189468142FADB1BF8C3
:103AE00009100029F6D103985346A0EB0907214697
:103AF0003846179A00F080FA284400EB090507E0E1
:103B000044E008E10DE01BF8010B5246179990477D
:103B1000B9F10109F7D2534621463846179AF2E027
:103B200039E00A21C4F302524FF0000B0091022A3F
:103B300006D058F8040BC117032A09D00AE023E085
:103B400008F1070020F00702F2E80201904605E0C4
:103B500000B2C117042A01D140B2C117002906DA08
:103B60000A460021404261EB02012D2202E02205BB
:103B700004D52B228DF80420012203E0E20701D0B6
:103B80002022F7E7914657E00A2100E010214FF08C
:103B9000000B00910BE010214FF0000B44F00404E7
:103BA0000827009103E008204FF0000B0090C4F3B9
:103BB0000252022A05D058F8040B0021032A08D02B
:103BC00008E008F1070020F00702F2E80201904641
:103BD00003E080B2042A00D1C0B24FF000092207EE
:103BE0002AD53278702A07D0DDF800C08CF0100C8E
:103BF0005CEA0B0C05D00EE040228DF80420012277
:103C000008E050EA010306D030238DF804308DF827
:103C1000052002229146009B83F0080353EA0B0320
:103C20000AD150EA010201D1620705D530228DF890
:103C300004204FF001097F1E3278582A04D039A29F
:103C40000C920CAA02920BE03BA2F9E75B46009AA9
:103C5000FCF7D6FA0C9B9B5C029A521E02921370E0
:103C600050EA0102F2D1029804A9081A00F1200BCF
:103C7000600702D524F4803400E001275F4502DDAF
:103C8000A7EB0B0000E0002000EB0B010090039875
:103C90004944401A0390E00306D453462146179A3C
:103CA000039800F0A9F90544002706E001A8524650
:103CB000C05D179990476D1C7F1C4F45F6DBE003F4
:103CC0000CD553462146179A039800F095F9054400
:103CD00004E030205246179990476D1C0099481E09
:103CE00000900029F5DC08E002980299524600781D
:103CF000491C0291179990476D1CBBF10001ABF173
:103D0000010BF1DC5BE100F065F90544761C3078CD
:103D100000287FF40DAE19B02846BDE8F08F0000F2
:103D20000928010030313233343536373839616291
:103D30006364656600000000303132333435363755
:103D4000383941424344454600000000600700D432
:103D5000062708F1070020F00700F0E8022380465C
:103D600003F0004C5FEA0C0001D097A009E02005A9
:103D700001D596A005E0E00701D095A001E0AFF2E3
:103D80004C001390307823F0004365280CD006DCFB
:103D9000452809D046281DD047287FD13BE066281A
:103DA00018D067287AD136E00021112F01DB1120CD
:103DB00000E0781CCDE9000104A90CA8FFF7E6FC9F
:103DC000DDE90D010C9A4FF0000B07F1010910928B
:103DD00000914EE04FF000400097CDE9011004A99A
:103DE0000CA8FFF7D3FCDDE90D020C9B0F994FF0F7
:103DF000000B91461093009211B9791C00EB010958
:103E0000B7EB090003D4C0F1FF3B07F10109A9EBAF
:103E10000700019042E0012F00DA01270021112F55
:103E200001DD112000E03846CDE9000104A90CA80D
:103E3000FFF7ACFCDDE90D010C9A00914FF0000B8F
:103E4000B946109221070FD4009A4A4503DA9146E9
:103E500001E0A9F10109B9F1010F05DD109AA9F1FD
:103E60000101515C3029F4D0B84202DA10F1040F9C
:103E700003DA0121CDE9011010E0002803DC8344BE
:103E8000A9EB000102E0411C494500DD8946A0EB99
:103E90000B00401C01904FF000400290200705D419
:103EA0000198484502DB4FF0FF30019000208DF86B
:103EB0004B0002980DF14B07B0F1004F25D00220C6
:103EC0000C902B200D90029800280CDA40420290B2
:103ED0002D200D9007E00A210298FCF77BF9303184
:103EE000029007F8011D0C99481E0C900029F2DC85
:103EF00002980028EFD1791E0D980870307800F0F4
:103F0000200040F0450007F8020D11A8C01BC01D9D
:103F100002901398007800B1012000EB090101988C
:103F200001EBE071029801440398401A401E03908F
:103F3000E00306D453462146179A039800F05CF834
:103F400005441398007818B15246179990476D1C94
:103F5000E00323D553462146179A039800F04CF806
:103F600005441BE0BBF1000F07DB0098584504DD5A
:103F70001098179910F80B0001E01799302052465D
:103F8000904701980BF1010B401E05F101050190CE
:103F900004D12E205246179990476D1CB9F10001AB
:103FA000A9F10109DEDC05E017F8010B524617996B
:103FB00090476D1C0299481E02900029F4DC53467C
:103FC0002146179A03989EE62D0000002B00000062
:103FD000200000002DE9F041044600251E4617464A
:103FE000880404D405E039462020B0476D1C641EC7
:103FF000F9D52846BDE8F0812DE9F04104460025B9
:104000001E469046C80301D5302700E020278804CB
:1040100004D505E041463846B0476D1C641EF9D50D
:104020002846BDE8F0814A68002A06D00A68531C79
:104030000B6010704868401E486070470A68531C47
:104040000B601070704770B50D4604998C00990094
:104050008918AA0010182246FCF751F970BD0A68A9
:104060000C30824204D14868824201D1012070475D
:104070000020704710B5034619780020752901D03B
:10408000AFF300800122995C00010C46303C092C02
:1040900002D8401830380CE00C46613C192C02D88C
:1040A0004018573805E00C46413C192C05D84018FB
:1040B0003738521C042AE6DD10BD0020C04310BD75
:1040C00010B504460420FDF743FF0148046010BD0D
:1040D0002C00002070B5054600244FF47A7603E0EA
:1040E000304600F005F8641CAC42F9D370BD000006
:1040F00070B54FF0E024002265690949A369096899
:104100004843A1699942FCD002D2A3EB010302E02B
:10411000A5EB010633441A440B468242F1D370BD2D
:104120002C000020FFB59DB01D98269D1C460E4614
:1041300000287DD0007801210300FFF7DFFA0898FE
:1041400041321121090D05792A460421C9A08EE1C9
:104150002A460421C9A08AE12A460521C9A086E190
:104160001D9800F01FFE01910090C8A2642102A8D2
:10417000FFF77CFA014664285AD22A4602A876E163
:104180001D9800F016FF3204D20E009202460B4634
:10419000642101A800F096FF010049D42A4601A835
:1041A00065E11D9800F011FF07461D9800F016FF0D
:1041B0002B4622463946009600F0AEF921B0F0BDFC
:1041C0001D9F7869002842D179611D9800F02EFD6D
:1041D00002902A460121AFA0A047002837D10298BB
:1041E00000280AD01F992346002200953046491C1A
:1041F00000F062F900282AD134E0002078612A46D4
:104200000121A5A033E101461D9800F0DBFC1F9AB7
:10421000234600953146521CFFF784FF002816D133
:1042200002980199401E814214DA2A46012100E0D9
:1042300014E19AA0A047002809D11F992346012222
:1042400000953046491C00F037F9002808D00020BE
:10425000786103E123460022009530461F99F2E77A
:104260000198401C029901908842CCDBC5E7B0065A
:1042700003D58BA00390012002E08AA003900220C6
:1042800005901D980890006A00287DD10898016269
:104290001D9800F005FE06902A46012182A0A04745
:1042A0000028F2D1069800286FD01F9923460022DB
:1042B00000953046491C00F0FFF80028E5D1F005D4
:1042C000800F75D01D9800F045FE0290C00000F0F0
:1042D0009FFF0190002857D00027069800F0C3FBED
:1042E0000146F800019A00901150069800F0E4FD94
:1042F0000146019A00988018416006991D9800F0C7
:10430000E1FD7F1C06900028E7D10298874228D162
:10431000300601D5654B00E0654B082202990198F3
:10432000FBF79FFF00274BE00198F9000818406851
:10433000069001461D9800F0A5FD0990002810D0B8
:104340000698FCF72AF801462B4622460096069866
:1043500000F0E2F82A4605990398A047002823D1E7
:1043600001E0AFF300801F9A234600953146521CAE
:104370000998FFF7D7FE002816D10298401E874201
:1043800017D22A46012101E065E06AE043A0A04778
:10439000002809D11F992346012200953046491C67
:1043A00000F08AF800280AD0019800F029FF52E0B6
:1043B00039E023460022009530461F99F0E77F1C24
:1043C00002988742B0D3019800F01AFF49E006989E
:1043D00000F086FD1F9A234600953146521CFFF7D8
:1043E000A1FE002837D10498002810D02A460121C8
:1043F0002AA0A04700282ED11F992346012200950C
:104400003046491C00F058F8002824D109E0234622
:104410000022009530461F9900F04EF800281AD16E
:104420001FE00498069006991D9800F04BFD04903B
:10443000069800F041FD0746FBF7AFFF01462B460B
:1044400022463846009600F067F82A4605990398F8
:10445000A0470028BBD00899002008620020C04374
:10446000ACE60899002008622A46012111A0A04765
:10447000A4E600006E756C6C000000007472756537
:104480000000000066616C7365000000256C6C64C0
:10449000000000005B0000005D0000002C00000038
:1044A0003A0000003A2000007B0000005560000840
:1044B000616000087D000000F8B50E461C46C1068C
:1044C00018D0C006C00E0090012110A0069AA04787
:1044D0000027FF43002807D1002508E00C48069A72
:1044E0000099A047002801D03846F8BD6D1CB542A0
:1044F000F4DB08E0002A06D0800604D4012105A0E0
:10450000069A9847F8BD0020F8BD00000A00000098
:10451000C075000820000000FFB589B00F460646B0
:104520000B9B012140A00C9A9847002875D1354675
:104530003446F71918E0791B02AA284602F004FC59
:1045400004006AD002985C2810D022280ED02028BF
:104550000CDB1299490501D52F2807D0129949067D
:1045600001D57F2802DC2546BC42E4D3B54206D003
:104570000B9BA91B30460C9A984700284DD1AC42A2
:1045800006D10B9B012128A00C9A98470DB0F0BDD5
:10459000029A02210D2A23D008DC082A1AD0092AFF
:1045A00020D00A2A1AD00C2A06D115E0222A0FD0D0
:1045B0002F2A19D05C2A09D001200004824215DA82
:1045C0001AA105A8FFF76CF8062120E019A01FE04A
:1045D00019A01DE019A01BE019A019E019A017E00F
:1045E00019A015E019A013E019A011E0101A010399
:1045F0001B22890DD2028A18029080053721800D76
:104600008902431813A105A8FFF74AF80C2105A851
:104610000B9B0C9A9847002802D00020C043B5E7B6
:1046200025462E46A0E70000220000005C752530DC
:10463000345800005C5C00005C2200005C620000FA
:104640005C6600005C6E00005C7200005C74000040
:104650005C2F00005C75253034585C75253034586B
:104660000000000013460A4610B50146184602F045
:1046700061F910BD0FB4F0B5D5B0002000255290FF
:10468000ED435A980C462AAE5395002838D05DABBE
:10469000A02130465C9AFFF717F8002750A8C77191
:1046A000002C24D02046283002F0AFF9A1695391A4
:1046B000E569616A529100280DD0017800290AD07D
:1046C000E16A142913D800902AAB10A2A02102A8F5
:1046D000FEF7CCFF08E06069801C08D02AAB0FA26F
:1046E000A02102A8FEF7C2FF28A8C77102AE10A041
:1046F000009001962A46529B53995A9800F043FD28
:1047000055B0F0BC08BC04B0184700002573206EFB
:104710006561722027257327000000002573206E35
:1047200065617220656E64206F662066696C650045
:104730002573000003490A685206FCD5C2B24A60DC
:10474000704700000010014010B5002821D0114B27
:104750000022001F196803E0814203D80A46496815
:104760000029F9D152B11368841A9C4204D100681F
:1047700018441060104602E0506000E0186039B143
:1047800002680B1A934203D10B681A44026049680D
:10479000416010BD6000002070B5044688184E4A84
:1047A00080180246154646E023785B1965782D028D
:1047B000EB18A5782D04EB18E5782D06EE18237973
:1047C0009A1863791B029A18A3791B049A18E37943
:1047D0001B069B18227A1018627A12021018A27A0D
:1047E00012041018E27A12061518701B1C262A46AD
:1047F000F24142401046ED181B1A1A26F2415A4067
:1048000013464019ED1A1826F2416A4015461B1846
:10481000401B1026F2414240EE1810461B1A0D258F
:10482000EA4153408519F21A18461C26F0415040BF
:104830005A190C390C340C29B6D80B00FEF75EFF60
:104840000D4A2724211E1C191613110E0B082900CE
:10485000E17A09060818A17A09040818617A0902A0
:104860000818217A0818E17909068A18A17909043B
:104870008A18617909028A1821798A18E17809066B
:104880004D19A17809044D19617809024D19217853
:104890004D1912231146D9415040411A152308469B
:1048A0004D40D841281A07240346E3414240D21A1A
:1048B00010241346E3415140C91A1C240B464840BA
:1048C000E341C01A42401223D841101A4140082245
:1048D000D041081A70BD0000EFBEADDE10B5044631
:1048E00000F004F8606800F08BFC10BD70B5054660
:1048F0000C35046908E06668A068241F00F0C3F95D
:10490000204600F07DFC3446AC42F4D170BDF8B5D1
:104910000446406800F074FCA1680126491C30463A
:104920008840A1600090C00000F072FC6060002828
:1049300003D0002025460C3509E00020C043F8BD17
:10494000C10062680B1DD5506268401C5550227A28
:10495000314691408142F3D822696D602D600DE0AF
:10496000171F566838680099FBF734FC6068C90067
:1049700041183A1D204600F0D1F83246AA42EFD144
:104980000020F8BDFFB581B01F460E46FFF767FB5C
:10499000002813D13468251F2868B84206D128465C
:1049A00014300399FBF700FD002804D07068A04282
:1049B00004D06468EFE7284605B0F0BD0020FBE7AF
:1049C00070B504460D460846FBF7E7FC0B490A683C
:1049D00001462846FFF7E0FE237A01219940491E4F
:1049E00001406268C900511803462A462046FFF775
:1049F000C9FF002800D0C06870BD0000540000202E
:104A000070B50446002020600320A060402000F024
:104A1000FFFB6060002806D020460C30206100219A
:104A20000123E06009E00020C04370BDCA00656852
:104A3000161DA8516568491CA850257A1A46AA4037
:104A40008A42F3D8002070BD00B501460C3100F059
:104A500003F800BD10307047024648680C3290429F
:104A600000D100207047C068704780687047000020
:104A7000FFB50546027A012401682046904081B0C6
:104A80001F46814204D32846FFF741FF002840D14A
:104A90000298FBF782FC20490A6801460298FFF75A
:104AA0007BFE0646287A33468440641E344068689C
:104AB000E1004018009001462846029AFFF762FF85
:104AC000040004D0E06800F0DEF8E7601EE0029821
:104AD000FBF763FC1521C8421BD2153000F098FB90
:104AE000040016D0266003982061204614300299F5
:104AF000FBF772FC201DA060E7606060221D284665
:104B0000009900F00BF82868401C2860002005B0D0
:104B1000F0BD0020C043FAE75400002070B51546F0
:104B20000C460646FFF79BFA002806D03046294679
:104B30000C3000F0C8FE656003E02946206800F0F4
:104B4000C2FE256070BD70B5182000F061FB040046
:104B50000ED0012020700025E56060600820A06074
:104B6000202000F055FB2061002802D0204665611E
:104B700070BD204600F044FB002070BD70B5104EA3
:104B80000D0005D0002817D00178012914D101E0CB
:104B9000304670BDA8420FD001220446114600F0F5
:104BA0001FF8002808D0E168206989004550E068B6
:104BB000401CE060002070BD284600F058F8E7E790
:104BC000FFFFFFFF002805D00278012A02D1C2684A
:104BD0008A4201D800207047006989004058704718
:104BE000F8B50546C06817464318AA682869934275
:104BF00019D9064654185000844200D80446A00033
:104C000000F006FB00280ED0AC602861002F0BD00E
:104C1000E9680023009132461946FFF714FA30463E
:104C200000F0EEFA2869F8BD3046F8BD002802D041
:104C30000178012901D000207047C068704710B585
:104C4000002807D041684A1C04D0491E416001D1A8
:104C500000F025F810BD10B5002807D041684A1CA7
:104C600004D0491E416001D100F019F810BD10B503
:104C7000002807D041684A1C04D0491E416001D178
:104C800000F00DF810BD10B5002807D041684A1C8F
:104C900004D0491E416001D100F001F810BD70B58B
:104CA00000280AD00178002908D001290BD0022958
:104CB0001AD0032915D0042913D070BD044608303A
:104CC000FFF70CFE0CE00446002504E0A900405864
:104CD000FFF7CDFF6D1CE068A8422069F6D805E01B
:104CE000204600F08DFA70BD0446806800F088FA16
:104CF000F6E738B51C469B0509D4002804D0037894
:104D0000012B04D0002B02D00020C04338BD0B463D
:104D1000009200222146FFF705FA38BD3EB5054650
:104D20000C46684601F04FFE002801D000203EBD31
:104D300023466A4609492846FFF7DBFF002801D0D1
:104D4000002405E0684601F060FE00F069FA0446C0
:104D5000684601F02CFE20463EBD00006546000876
:104D6000004870473C000020002804D041684A1CDD
:104D700001D0491C41607047002804D041684A1C9A
:104D800001D0491C4160704770B504460D461020A3
:104D900000F03EFA002804D0032101700121021D19
:104DA00032C270BD002802D00178032902D0002051
:104DB000014670478268C1681046704770B50E465C
:104DC000044692B0154612A1104600F0CBF9002C13
:104DD0000CD00020119010AA10491094684600F0E1
:104DE0009BFA002808D0002012B070BD0CA2002150
:104DF0002846FFF73FFCF6E72A463146684601F0B1
:104E000003FB0446684600F05DFA2046ECE700002C
:104E10003C737472696E673E000000007D6B000891
:104E200077726F6E6720617267756D656E7473005F
:104E3000004870474400002010B5242000F0E8F935
:104E4000040004D00E480068002802D004E00020CE
:104E500010BD002000F04AF80020207001206060A2
:104E600020460830FFF7CCFD002803D0204600F094
:104E7000C7F9ECE70020E0612062204610BD000089
:104E80005400002010B5002904D0002802D0027878
:104E9000002A01D0002010BD0830FFF791FD10BDA1
:104EA00010B5002802D00178002901D0002010BDE3
:104EB0000830FFF7C9FD10BD10B5002801D0FFF77D
:104EC000C9FD10BD10B5002808D00278002A05D110
:104ED000002903D00830FFF7BFFD10BD002010BD32
:104EE00010B5002801D0FFF7C0FD10BD38B5084C43
:104EF000216800290AD1002807D1684601F0FCFC8E
:104F00000098002801D101200090206038BD0000E9
:104F10005400002070B50E4D140007D0002912D0A7
:104F2000002810D00278002A0DD101E0284670BD7B
:104F3000A04208D0C269531CC36123460830FFF762
:104F400097FD0028F3D02046FFF791FEEEE7000022
:104F5000FFFFFFFF002802D00178002901D00020C8
:104F60007047806870470FB410B5002103AB084646
:104F7000029A00F045F810BC08BC04B0184770B5A0
:104F800004460D46FEF7D2FB002805D120462946EF
:104F9000FEF7C1FB002801D0002070BD102000F0FA
:104FA00037F90028F9D0042101700121021D32C215
:104FB00070BD002802D00178042902D000200146EB
:104FC00070478268C16810467047002802D0017897
:104FD000022901D000207047C0687047002802D025
:104FE0000178022901D0002070478068704710B511
:104FF000002201F0A4FD10BD0048704734000020DD
:10500000F0B595B01D4614000E46074629D020780D
:10501000002826D00021384600F0A4F82346324666
:10502000394601A801F052FC01A800F0D3FF14A9F1
:1050300001A8149501F022F8044600201490002CD9
:105040001BD001A800F0C6FF08A8007A002820465F
:1050500014D0FFF700FE0AA210A101A801F04EFC37
:105060000BE00EA1384600F07DF80FA00023591E7A
:1050700000900A46384600F086F8002015B0F0BDD2
:105080004761726261676520616674657220666F50
:10509000726D617420737472696E67003C666F7222
:1050A0006D61743E000000004E554C4C206F722024
:1050B000656D70747920666F726D6174207374729F
:1050C000696E6700FEB5074608980C46002800D1B7
:1050D000112001930092034620A23846FEF7C6FA3B
:1050E0000026F643002811DB0546A0420ED22E21F1
:1050F0003846FBF748F9002812D165213846FBF7FE
:1051000042F900280CD1E81CA04201D33046FEBD74
:105110002E20785530217819417000218170AD1C06
:1051200065213846FBF72FF9002814D0461C841C53
:1051300040782D2802D1761C00E0641C20783028AD
:10514000FBD0B44207D0E01B2A1A21463046FBF7B9
:10515000D6F8A01B2D1A2846FEBD0000252E2A6772
:105160000000000010B500280AD000225C231A5469
:10517000531E036043608260002902D000F00CF8E7
:1051800010BD027310BD1CB505AC0194049C0094C5
:1051900000F020F81CBD000070B504000D4616D0CC
:1051A000002D14D00846FBF7F8F822460C325028A0
:1051B00002D22946104608E006464C3E04A110469D
:1051C000FBF70AF92046A9190F30FBF705F970BD66
:1051D0002E2E2E0070B50400059D04980FD05C267D
:1051E000365D002E0BD10EC4024620462B46A02170
:1051F00050300C3CFEF768FA0020E034E07670BDD9
:10520000002802D001494968084770474C00002037
:10521000002802D001490968084770474C00002067
:1052200010B50446FBF7B9F80146204600F006F831
:1052300010BD10B5012201F082FC10BD70B506460C
:105240000C46481CFFF7E4FF050007D02246314614
:10525000FBF755F800202855284670BD002070BD8A
:10526000FEB50F460646FEF77DFA0021019001606B
:105270006946306801F090FC04460D4603CE4018A4
:105280000099884201D0AFF3008000220B4B2046EA
:105290002946FBF7ADF806D00022094B20462946E7
:1052A000FBF7A6F803D101980068022802D030C7A6
:1052B0000020FEBD0020C043FEBD00000000F07FC6
:1052C0000000F0FF10B50446406BC11FF93902D150
:1052D000204600F005F82046283001F068FB10BD9C
:1052E00010B50446806BFFF78BFF0020A063E063DE
:1052F00010BD10B501F08CFB10BD70B5054601F076
:1053000087FB0446401C05D0A01C03D0214628463C
:1053100000F01AF8204670BD10B5044606C40020FF
:105320002070A060E060012160612161E0612046A1
:105330002030083C01F047FB0100024801D16063C6
:10534000002010BDFFFFFFFF10B5C9B2283001F0EB
:10535000EBFA10BDF8B5054628300F46009001F075
:1053600021FB686BC11FF93902D12846FFF7B8FF4E
:1053700039462846FFF7BDFF04462028F8D0092CFF
:10538000F6D00A2CF4D00D2CF2D0601C57D0384E39
:10539000A01C59D021462846FFF7D6FF7B2C3CD0D5
:1053A0007D2C3AD05B2C38D05D2C36D03A2C34D0C2
:1053B0002C2C32D0222C32D020463038092833D938
:1053C0002D2C31D01138192802D9613C192C3ED826
:1053D00039462846FFF791FF014641381928F7D989
:1053E000084661381928F3D9284600F059FA009880
:1053F00001F00BFB04461FA1FAF7D6FF002819D0D5
:105400001EA12046FAF7D0FF002816D01DA1204685
:10541000FAF7CAFF002814D016E06C6315E039468D
:10542000284600F0F9F810E03A462146284600F0F8
:105430002DF80AE0FF20043001E0FF20053068630A
:1054400003E0FF200630FAE76E63686BF8BD2C4678
:10545000083408E02846FFF777FF2869401C2861D8
:10546000686A401C68622869015D0029F2D1EBE797
:10547000FFFFFFFF747275650000000066616C73CA
:10548000650000006E756C6C00000000F7B500262A
:10549000F64384B0044646632D2903D10699FFF7ED
:1054A0002CFF014630292FD00846303809286FD804
:1054B00020460699FFF721FF014630380928F7D921
:1054C000254628352E2937D045294FD065294DD07E
:1054D000204600F0E5F9284601F097FA0546FEF768
:1054E00041F90021074601600A2202A92846FAF77D
:1054F0007CFF0246386802280FD0E06A029B401900
:10550000984214D0AFF3008020460699FFF7F5FECD
:105510000146303809283BD9D2E7002901DA2DA20B
:1055200000E033A221460698FFF7A4F833E0FF20FD
:105530000230A26360634AE020460699FFF7D9FE75
:10554000014630380A28204602D301F0D3FA22E07F
:10555000FFF7FAFE20460699FFF7CFFE01463038E6
:105560000928F7D9452901D065291FD12046069978
:10557000FFF7C3FE01462B2801D02D2904D1204678
:105580000699FFF7BAFE0146084630380A2805D3C7
:10559000204600F085F9304607B0F0BD2046069958
:1055A000FFF7ABFE014630380928F7D9204600F056
:1055B00077F969462846FFF753FE002801D010A26C
:1055C000B0E7FF200330606301990098A0630020DA
:1055D000E163E1E7746F6F20626967206E65676160
:1055E0007469766520696E746567657200000000F5
:1055F000746F6F2062696720696E746567657200F9
:105600007265616C206E756D626572206F76657271
:10561000666C6F7700000000F3B583B00026054686
:105620008663701E68634DE0A01C0FD0601C0ED016
:105630001F2C10D82146284600F032F90A2C2346A8
:1056400007D069A229460498FFF714F894E06CA2E9
:105650001AE071A2F6E75C2C34D128460499FFF7D2
:105660004CFE752815D022282CD05C282AD02F2853
:1056700028D0622826D0662824D06E2822D072280E
:1056800020D074281ED069A229460498FEF7F2FFA4
:1056900072E028460499FFF730FE044600272046B2
:1056A00030380A2805D31138062802D3613C062C6D
:1056B000E9D228460499FFF720FE7F1C0446042FF8
:1056C000EDDB04E028460499FFF717FE0446222C80
:1056D000AAD1E86A401CFFF79BFD07004CD0284682
:1056E0002830AF6301F091F9441C72E05C286DD161
:1056F0006078641C75280BD0662860D055DC2228A1
:1057000064D02F2862D05C2860D0622853D154E046
:105710002046FEF7AFFC0190002802DA631E47A284
:1057200090E71B21C902411A4C48641D81422BD8C5
:1057300020785C2825D16078752822D1641C204609
:10574000FEF798FC0028E9DB37218902421A434919
:10575000641D8A4209D80199414A890289180818AA
:10576000092189024018019015E000903DA22946C8
:10577000019B0498FEF77EFF2846FFF7B1FD05B0B8
:10578000F0BD40A2019B5DE7372101988902411AD3
:1057900032488142F5D902AA3946019801F096FAB9
:1057A000002808D102983F1813E06E2809D072280B
:1057B00009D0742809D0AFF30080082006E00C203F
:1057C00004E00A2002E00D2000E009203870641C8B
:1057D0007F1C2078222889D13E70A86B381AE86394
:1057E000FF2001306863CAE7636F6E74726F6C20CC
:1057F0006368617261637465722030782578000097
:105800007072656D617475726520656E64206F6677
:1058100020696E7075740000756E657870656374CC
:105820006564206E65776C696E650000696E7661EF
:105830006C6964206573636170650000696E7661F0
:105840006C696420556E69636F646520657363617C
:1058500070652027252E367327000000FF03000007
:105860000000A0FC696E76616C696420556E696306
:105870006F646520275C75253034585C752530349D
:1058800058270000696E76616C696420556E696303
:105890006F646520275C75253034582700000000B0
:1058A00070B505460C46481C0CD0A01C0AD02846F2
:1058B00001F020F92846283001F096F8844201D002
:1058C000AFF3008070BD486002680A6002685160F2
:1058D00001607047AAB000242746259426462494E8
:1058E000FCF702F8FDF792FBFDF726F8FCF7F6FF50
:1058F000FDF78AF8FDF7A4F8FDF766F8FDF7BCF8A8
:105900006420FEF7DDFBFCF7AFFFFDF7F6F9DFF8EB
:1059100008844FF40055002229464046FBF742FE1A
:1059200000211023FDA20846FDF7A0FAFDF7C2F8FA
:10593000012229464046FBF735FE00211023FBA239
:105940000846FDF793FAFDA0FDF726FB4FF47A70A9
:10595000FEF7C0FBFBA0FDF779FEFE4DDFF8F083FC
:1059600005F1060A08F15C0005F10A0905F10E0BC4
:1059700023900A20FEF7AEFBF748017801295ED19B
:1059800000210170F5A1F748FAF7EBFC08B10027F8
:1059900036E0F5A1F348FAF7E4FC08B101272FE05F
:1059A000F3A1F048FAF7DDFC08B1002005E0F2A110
:1059B000EC48FAF7D6FC10B10120259020E0F0A1C8
:1059C000E848FAF7CEFC08B1002005E0EEA1E54872
:1059D000FAF7C7FC10B10120249011E0ECA1E148D6
:1059E000FAF7BFFC08B100260AE0EBA1DD48FAF7A0
:1059F000B8FC20B9EAA1DB48FAF7B3FC00B10126F4
:105A0000E9A1D848FAF7ADFC0146A861E7A0FDF787
:105A10001DFECF4A0021A869FFF7D0F9686108B1DF
:105A2000017889B1D8F80010E1A0239AFDF70EFEA5
:105A30006869FFF734F9FF21CA48FAF787FCE348A1
:105A4000017801291BD09EE0E1A1FFF71BFAFFF7C7
:105A5000A9F92880E0A16869FFF714FAFFF7A2F915
:105A60006880DFA16869FFF70DFAFFF79BF983B241
:105A7000AB806A882988DCA0FDF7E8FDD8E7002123
:105A80000170E149E1A0FDF7E1FDE2A1DE48FAF78E
:105A900068FC002836D0C4A1DB48FAF762FC014656
:105AA000A861C2A0FDF7D2FDA94A0021A869FFF7AD
:105AB00085F96861F8B10178E9B9D8A1FFF7E2F991
:105AC000FFF770F9AAF80000D6A16869FFF7DAF9C4
:105AD000FFF768F9A9F80000D4A16869FFF7D2F9C7
